{
  "contractName": "test",
  "abi": [
    {
      "inputs": [],
      "name": "index",
      "outputs": [
        {
          "internalType": "uint256",
          "name": "",
          "type": "uint256"
        }
      ],
      "stateMutability": "view",
      "type": "function",
      "constant": true
    },
    {
      "inputs": [
        {
          "internalType": "address",
          "name": "",
          "type": "address"
        }
      ],
      "name": "userdata",
      "outputs": [
        {
          "internalType": "string",
          "name": "username",
          "type": "string"
        },
        {
          "internalType": "address",
          "name": "walletAddress",
          "type": "address"
        },
        {
          "internalType": "string",
          "name": "pin",
          "type": "string"
        }
      ],
      "stateMutability": "view",
      "type": "function",
      "constant": true
    },
    {
      "inputs": [
        {
          "internalType": "string",
          "name": "_username",
          "type": "string"
        },
        {
          "internalType": "address",
          "name": "_walletAddress",
          "type": "address"
        },
        {
          "internalType": "string",
          "name": "_pin",
          "type": "string"
        }
      ],
      "name": "getUserData",
      "outputs": [],
      "stateMutability": "nonpayable",
      "type": "function"
    },
    {
      "inputs": [],
      "name": "getCount",
      "outputs": [
        {
          "internalType": "uint256",
          "name": "",
          "type": "uint256"
        }
      ],
      "stateMutability": "nonpayable",
      "type": "function"
    }
  ],
  "bytecode": "0x60806040526000805534801561001457600080fd5b50610a6b806100246000396000f3fe608060405234801561001057600080fd5b5060043610610069576000357c0100000000000000000000000000000000000000000000000000000000900480632986c0e51461006e57806373c4c1961461008c578063a87d942c146100be578063d5baf6ed146100dc575b600080fd5b6100766100f8565b604051610083919061037c565b60405180910390f35b6100a660048036038101906100a19190610409565b6100fe565b6040516100b5939291906104d5565b60405180910390f35b6100c6610258565b6040516100d3919061037c565b60405180910390f35b6100f660048036038101906100f1919061064f565b610261565b005b60005481565b600160205280600052604060002060009150905080600001805461012190610709565b80601f016020809104026020016040519081016040528092919081815260200182805461014d90610709565b801561019a5780601f1061016f5761010080835404028352916020019161019a565b820191906000526020600020905b81548152906001019060200180831161017d57829003601f168201915b5050505050908060010160009054906101000a900473ffffffffffffffffffffffffffffffffffffffff16908060020180546101d590610709565b80601f016020809104026020016040519081016040528092919081815260200182805461020190610709565b801561024e5780601f106102235761010080835404028352916020019161024e565b820191906000526020600020905b81548152906001019060200180831161023157829003601f168201915b5050505050905083565b60008054905090565b60405180606001604052808481526020018373ffffffffffffffffffffffffffffffffffffffff16815260200182815250600160008473ffffffffffffffffffffffffffffffffffffffff1673ffffffffffffffffffffffffffffffffffffffff16815260200190815260200160002060008201518160000190816102e691906108ec565b5060208201518160010160006101000a81548173ffffffffffffffffffffffffffffffffffffffff021916908373ffffffffffffffffffffffffffffffffffffffff160217905550604082015181600201908161034391906108ec565b50905050600080815480929190610359906109ed565b9190505550505050565b6000819050919050565b61037681610363565b82525050565b6000602082019050610391600083018461036d565b92915050565b6000604051905090565b600080fd5b600080fd5b600073ffffffffffffffffffffffffffffffffffffffff82169050919050565b60006103d6826103ab565b9050919050565b6103e6816103cb565b81146103f157600080fd5b50565b600081359050610403816103dd565b92915050565b60006020828403121561041f5761041e6103a1565b5b600061042d848285016103f4565b91505092915050565b600081519050919050565b600082825260208201905092915050565b60005b83811015610470578082015181840152602081019050610455565b60008484015250505050565b6000601f19601f8301169050919050565b600061049882610436565b6104a28185610441565b93506104b2818560208601610452565b6104bb8161047c565b840191505092915050565b6104cf816103cb565b82525050565b600060608201905081810360008301526104ef818661048d565b90506104fe60208301856104c6565b8181036040830152610510818461048d565b9050949350505050565b600080fd5b600080fd5b7f4e487b7100000000000000000000000000000000000000000000000000000000600052604160045260246000fd5b61055c8261047c565b810181811067ffffffffffffffff8211171561057b5761057a610524565b5b80604052505050565b600061058e610397565b905061059a8282610553565b919050565b600067ffffffffffffffff8211156105ba576105b9610524565b5b6105c38261047c565b9050602081019050919050565b82818337600083830152505050565b60006105f26105ed8461059f565b610584565b90508281526020810184848401111561060e5761060d61051f565b5b6106198482856105d0565b509392505050565b600082601f8301126106365761063561051a565b5b81356106468482602086016105df565b91505092915050565b600080600060608486031215610668576106676103a1565b5b600084013567ffffffffffffffff811115610686576106856103a6565b5b61069286828701610621565b93505060206106a3868287016103f4565b925050604084013567ffffffffffffffff8111156106c4576106c36103a6565b5b6106d086828701610621565b9150509250925092565b7f4e487b7100000000000000000000000000000000000000000000000000000000600052602260045260246000fd5b6000600282049050600182168061072157607f821691505b602082108103610734576107336106da565b5b50919050565b60008190508160005260206000209050919050565b60006020601f8301049050919050565b60008160020a8302905092915050565b60006008830261079f7fffffffffffffffffffffffffffffffffffffffffffffffffffffffffffffffff8261075f565b6107a9868361075f565b95508019841693508086168417925050509392505050565b6000819050919050565b60006107e66107e16107dc84610363565b6107c1565b610363565b9050919050565b6000819050919050565b610800836107cb565b61081461080c826107ed565b84845461076f565b825550505050565b600090565b61082961081c565b6108348184846107f7565b505050565b5b818110156108585761084d600082610821565b60018101905061083a565b5050565b601f82111561089d5761086e8161073a565b6108778461074f565b81016020851015610886578190505b61089a6108928561074f565b830182610839565b50505b505050565b60008160020a8304905092915050565b60006108c3600019846008026108a2565b1980831691505092915050565b60006108dc83836108b2565b9150826002028217905092915050565b6108f582610436565b67ffffffffffffffff81111561090e5761090d610524565b5b6109188254610709565b61092382828561085c565b600060209050601f8311600181146109565760008415610944578287015190505b61094e85826108d0565b8655506109b6565b601f1984166109648661073a565b60005b8281101561098c57848901518255600182019150602085019450602081019050610967565b868310156109a957848901516109a5601f8916826108b2565b8355505b6001600288020188555050505b505050505050565b7f4e487b7100000000000000000000000000000000000000000000000000000000600052601160045260246000fd5b60006109f882610363565b91507fffffffffffffffffffffffffffffffffffffffffffffffffffffffffffffffff8203610a2a57610a296109be565b5b60018201905091905056fea2646970667358221220635b4b76992b808124cbf5183c863a27beebcb59af4787609c7393845b4b384d64736f6c63430008130033",
  "immutableReferences": {},
  "source": "pragma solidity ^0.8.0;\n\ncontract test{\n    struct UserData{\n        string username;\n        address walletAddress;\n        string pin;\n    }\n\n    uint256 public index= 0;\n\n    mapping (address => UserData) public userdata;\n\n    function getUserData(string memory _username , address _walletAddress , string memory _pin) public{\n       userdata[_walletAddress] = UserData(_username , _walletAddress , _pin);\n       index++;\n    }\n\n    function getCount() public returns (uint256)\n    {\n        return index;\n    }\n}",
  "sourcePath": "/Users/ishajasani/Desktop/Isha/GFG_TECHIE TWINS/Techie-Twins/contracts/test.sol",
  "compiler": {
    "name": "solc",
    "version": "0.8.19+commit.7dd6d404.Emscripten.clang"
  },
  "schemaVersion": "3.4.13",
  "updatedAt": "2023-03-19T10:49:40.444Z",
  "networkType": "ethereum",
  "devdoc": {
    "kind": "dev",
    "methods": {},
    "version": 1
  },
  "userdoc": {
    "kind": "user",
    "methods": {},
    "version": 1
  }
}