{
  "contractName": "DoctorInfo",
  "abi": [
    {
      "anonymous": false,
      "inputs": [
        {
          "indexed": true,
          "internalType": "address",
          "name": "doctorAddress",
          "type": "address"
        },
        {
          "indexed": false,
          "internalType": "string",
          "name": "name",
          "type": "string"
        }
      ],
      "name": "DoctorRegistration",
      "type": "event"
    },
    {
      "inputs": [
        {
          "internalType": "string",
          "name": "name",
          "type": "string"
        },
        {
          "internalType": "string",
          "name": "patientCount",
          "type": "string"
        },
        {
          "internalType": "string",
          "name": "experience",
          "type": "string"
        },
        {
          "internalType": "string",
          "name": "gender",
          "type": "string"
        },
        {
          "internalType": "string",
          "name": "rating",
          "type": "string"
        },
        {
          "internalType": "string",
          "name": "email",
          "type": "string"
        },
        {
          "internalType": "string",
          "name": "about",
          "type": "string"
        },
        {
          "internalType": "string",
          "name": "profileImageURL",
          "type": "string"
        }
      ],
      "name": "registerDoctor",
      "outputs": [],
      "stateMutability": "nonpayable",
      "type": "function"
    },
    {
      "inputs": [
        {
          "internalType": "address",
          "name": "doctorAddress",
          "type": "address"
        }
      ],
      "name": "getDoctorInfo",
      "outputs": [
        {
          "internalType": "string",
          "name": "name",
          "type": "string"
        },
        {
          "internalType": "string",
          "name": "patientCount",
          "type": "string"
        },
        {
          "internalType": "string",
          "name": "experience",
          "type": "string"
        },
        {
          "internalType": "string",
          "name": "gender",
          "type": "string"
        },
        {
          "internalType": "string",
          "name": "rating",
          "type": "string"
        },
        {
          "internalType": "string",
          "name": "email",
          "type": "string"
        },
        {
          "internalType": "string",
          "name": "about",
          "type": "string"
        },
        {
          "internalType": "string",
          "name": "profileImageURL",
          "type": "string"
        }
      ],
      "stateMutability": "view",
      "type": "function",
      "constant": true
    },
    {
      "inputs": [],
      "name": "getDoctorAdd",
      "outputs": [
        {
          "internalType": "address[]",
          "name": "docAdd_",
          "type": "address[]"
        }
      ],
      "stateMutability": "view",
      "type": "function",
      "constant": true
    }
  ],
  "bytecode": "0x608060405234801561001057600080fd5b5061127f806100206000396000f3fe608060405234801561001057600080fd5b50600436106100415760003560e01c80630ab2fa2d146100465780636f12fc3514610064578063bc3a12471461009b575b600080fd5b61004e6100b7565b60405161005b9190610a9f565b60405180910390f35b61007e60048036038101906100799190610b01565b610145565b604051610092989796959493929190610bbe565b60405180910390f35b6100b560048036038101906100b09190610da9565b610674565b005b6060600080548060200260200160405190810160405280929190818152602001828054801561013b57602002820191906000526020600020905b8160009054906101000a900473ffffffffffffffffffffffffffffffffffffffff1673ffffffffffffffffffffffffffffffffffffffff16815260200190600101908083116100f1575b5050505050905090565b6060806060806060806060806000600160008b73ffffffffffffffffffffffffffffffffffffffff1673ffffffffffffffffffffffffffffffffffffffff168152602001908152602001600020604051806101000160405290816000820180546101ae90610f6e565b80601f01602080910402602001604051908101604052809291908181526020018280546101da90610f6e565b80156102275780601f106101fc57610100808354040283529160200191610227565b820191906000526020600020905b81548152906001019060200180831161020a57829003601f168201915b5050505050815260200160018201805461024090610f6e565b80601f016020809104026020016040519081016040528092919081815260200182805461026c90610f6e565b80156102b95780601f1061028e576101008083540402835291602001916102b9565b820191906000526020600020905b81548152906001019060200180831161029c57829003601f168201915b505050505081526020016002820180546102d290610f6e565b80601f01602080910402602001604051908101604052809291908181526020018280546102fe90610f6e565b801561034b5780601f106103205761010080835404028352916020019161034b565b820191906000526020600020905b81548152906001019060200180831161032e57829003601f168201915b5050505050815260200160038201805461036490610f6e565b80601f016020809104026020016040519081016040528092919081815260200182805461039090610f6e565b80156103dd5780601f106103b2576101008083540402835291602001916103dd565b820191906000526020600020905b8154815290600101906020018083116103c057829003601f168201915b505050505081526020016004820180546103f690610f6e565b80601f016020809104026020016040519081016040528092919081815260200182805461042290610f6e565b801561046f5780601f106104445761010080835404028352916020019161046f565b820191906000526020600020905b81548152906001019060200180831161045257829003601f168201915b5050505050815260200160058201805461048890610f6e565b80601f01602080910402602001604051908101604052809291908181526020018280546104b490610f6e565b80156105015780601f106104d657610100808354040283529160200191610501565b820191906000526020600020905b8154815290600101906020018083116104e457829003601f168201915b5050505050815260200160068201805461051a90610f6e565b80601f016020809104026020016040519081016040528092919081815260200182805461054690610f6e565b80156105935780601f1061056857610100808354040283529160200191610593565b820191906000526020600020905b81548152906001019060200180831161057657829003601f168201915b505050505081526020016007820180546105ac90610f6e565b80601f01602080910402602001604051908101604052809291908181526020018280546105d890610f6e565b80156106255780601f106105fa57610100808354040283529160200191610625565b820191906000526020600020905b81548152906001019060200180831161060857829003601f168201915b5050505050815250509050806000015181602001518260400151836060015184608001518560a001518660c001518760e001519850985098509850985098509850985050919395975091939597565b87600160003373ffffffffffffffffffffffffffffffffffffffff1673ffffffffffffffffffffffffffffffffffffffff16815260200190815260200160002060000190816106c39190611155565b5086600160003373ffffffffffffffffffffffffffffffffffffffff1673ffffffffffffffffffffffffffffffffffffffff16815260200190815260200160002060010190816107139190611155565b5085600160003373ffffffffffffffffffffffffffffffffffffffff1673ffffffffffffffffffffffffffffffffffffffff16815260200190815260200160002060020190816107639190611155565b5084600160003373ffffffffffffffffffffffffffffffffffffffff1673ffffffffffffffffffffffffffffffffffffffff16815260200190815260200160002060030190816107b39190611155565b5083600160003373ffffffffffffffffffffffffffffffffffffffff1673ffffffffffffffffffffffffffffffffffffffff16815260200190815260200160002060040190816108039190611155565b5082600160003373ffffffffffffffffffffffffffffffffffffffff1673ffffffffffffffffffffffffffffffffffffffff16815260200190815260200160002060060190816108539190611155565b5081600160003373ffffffffffffffffffffffffffffffffffffffff1673ffffffffffffffffffffffffffffffffffffffff16815260200190815260200160002060050190816108a39190611155565b5080600160003373ffffffffffffffffffffffffffffffffffffffff1673ffffffffffffffffffffffffffffffffffffffff16815260200190815260200160002060070190816108f39190611155565b506000339080600181540180825580915050600190039060005260206000200160009091909190916101000a81548173ffffffffffffffffffffffffffffffffffffffff021916908373ffffffffffffffffffffffffffffffffffffffff1602179055503373ffffffffffffffffffffffffffffffffffffffff167f12dd1fdb34f96398cf236f0a35da33ecf85f9ac9c3f34f46c852c333c0bfe67d8960405161099d9190611227565b60405180910390a25050505050505050565b600081519050919050565b600082825260208201905092915050565b6000819050602082019050919050565b600073ffffffffffffffffffffffffffffffffffffffff82169050919050565b6000610a06826109db565b9050919050565b610a16816109fb565b82525050565b6000610a288383610a0d565b60208301905092915050565b6000602082019050919050565b6000610a4c826109af565b610a5681856109ba565b9350610a61836109cb565b8060005b83811015610a92578151610a798882610a1c565b9750610a8483610a34565b925050600181019050610a65565b5085935050505092915050565b60006020820190508181036000830152610ab98184610a41565b905092915050565b6000604051905090565b600080fd5b600080fd5b610ade816109fb565b8114610ae957600080fd5b50565b600081359050610afb81610ad5565b92915050565b600060208284031215610b1757610b16610acb565b5b6000610b2584828501610aec565b91505092915050565b600081519050919050565b600082825260208201905092915050565b60005b83811015610b68578082015181840152602081019050610b4d565b60008484015250505050565b6000601f19601f8301169050919050565b6000610b9082610b2e565b610b9a8185610b39565b9350610baa818560208601610b4a565b610bb381610b74565b840191505092915050565b6000610100820190508181036000830152610bd9818b610b85565b90508181036020830152610bed818a610b85565b90508181036040830152610c018189610b85565b90508181036060830152610c158188610b85565b90508181036080830152610c298187610b85565b905081810360a0830152610c3d8186610b85565b905081810360c0830152610c518185610b85565b905081810360e0830152610c658184610b85565b90509998505050505050505050565b600080fd5b600080fd5b7f4e487b7100000000000000000000000000000000000000000000000000000000600052604160045260246000fd5b610cb682610b74565b810181811067ffffffffffffffff82111715610cd557610cd4610c7e565b5b80604052505050565b6000610ce8610ac1565b9050610cf48282610cad565b919050565b600067ffffffffffffffff821115610d1457610d13610c7e565b5b610d1d82610b74565b9050602081019050919050565b82818337600083830152505050565b6000610d4c610d4784610cf9565b610cde565b905082815260208101848484011115610d6857610d67610c79565b5b610d73848285610d2a565b509392505050565b600082601f830112610d9057610d8f610c74565b5b8135610da0848260208601610d39565b91505092915050565b600080600080600080600080610100898b031215610dca57610dc9610acb565b5b600089013567ffffffffffffffff811115610de857610de7610ad0565b5b610df48b828c01610d7b565b985050602089013567ffffffffffffffff811115610e1557610e14610ad0565b5b610e218b828c01610d7b565b975050604089013567ffffffffffffffff811115610e4257610e41610ad0565b5b610e4e8b828c01610d7b565b965050606089013567ffffffffffffffff811115610e6f57610e6e610ad0565b5b610e7b8b828c01610d7b565b955050608089013567ffffffffffffffff811115610e9c57610e9b610ad0565b5b610ea88b828c01610d7b565b94505060a089013567ffffffffffffffff811115610ec957610ec8610ad0565b5b610ed58b828c01610d7b565b93505060c089013567ffffffffffffffff811115610ef657610ef5610ad0565b5b610f028b828c01610d7b565b92505060e089013567ffffffffffffffff811115610f2357610f22610ad0565b5b610f2f8b828c01610d7b565b9150509295985092959890939650565b7f4e487b7100000000000000000000000000000000000000000000000000000000600052602260045260246000fd5b60006002820490506001821680610f8657607f821691505b602082108103610f9957610f98610f3f565b5b50919050565b60008190508160005260206000209050919050565b60006020601f8301049050919050565b600082821b905092915050565b6000600883026110017fffffffffffffffffffffffffffffffffffffffffffffffffffffffffffffffff82610fc4565b61100b8683610fc4565b95508019841693508086168417925050509392505050565b6000819050919050565b6000819050919050565b600061105261104d61104884611023565b61102d565b611023565b9050919050565b6000819050919050565b61106c83611037565b61108061107882611059565b848454610fd1565b825550505050565b600090565b611095611088565b6110a0818484611063565b505050565b5b818110156110c4576110b960008261108d565b6001810190506110a6565b5050565b601f821115611109576110da81610f9f565b6110e384610fb4565b810160208510156110f2578190505b6111066110fe85610fb4565b8301826110a5565b50505b505050565b600082821c905092915050565b600061112c6000198460080261110e565b1980831691505092915050565b6000611145838361111b565b9150826002028217905092915050565b61115e82610b2e565b67ffffffffffffffff81111561117757611176610c7e565b5b6111818254610f6e565b61118c8282856110c8565b600060209050601f8311600181146111bf57600084156111ad578287015190505b6111b78582611139565b86555061121f565b601f1984166111cd86610f9f565b60005b828110156111f5578489015182556001820191506020850194506020810190506111d0565b86831015611212578489015161120e601f89168261111b565b8355505b6001600288020188555050505b505050505050565b600060208201905081810360008301526112418184610b85565b90509291505056fea2646970667358221220aab34b927083a1915e179a345641f9fdbe52b798df4f17405a5e6be77dec0b7564736f6c63430008130033",
  "immutableReferences": {},
  "source": "// SPDX-License-Identifier: MIT\n\npragma solidity >=0.7.0 <0.9.0;\n\ncontract DoctorInfo{\n    struct Doctor{\n        string name;\n        string patientCount;\n        string experience;\n        string gender;\n        string rating;\n        string about;\n        string email;\n        string profileImageURL;\n    }\n\n    address[] docAdd;\n    mapping(address => Doctor) doctors;\n\n    event DoctorRegistration(address indexed doctorAddress, string name);\n\n    function registerDoctor(\n        string memory name,\n        string memory patientCount,\n        string memory experience,\n        string memory gender,\n        string memory rating,\n        string memory email,\n        string memory about,\n        string memory profileImageURL\n    ) public {\n        doctors[msg.sender].name = name;\n        doctors[msg.sender].patientCount = patientCount;\n        doctors[msg.sender].experience = experience;\n        doctors[msg.sender].gender = gender;\n        doctors[msg.sender].rating = rating;\n        doctors[msg.sender].email = email;\n        doctors[msg.sender].about = about;\n        doctors[msg.sender].profileImageURL = profileImageURL;\n        docAdd.push(msg.sender);\n        emit DoctorRegistration(msg.sender, name);\n    }\n\n    function getDoctorInfo(address doctorAddress)public view\n        returns (\n        string memory name,\n        string memory patientCount,\n        string memory experience,\n        string memory gender,\n        string memory rating,\n        string memory email,\n        string memory about,\n        string memory profileImageURL\n        )\n    {\n        Doctor memory doctor = doctors[doctorAddress];\n        return (\n            doctor.name,\n            doctor.patientCount,\n            doctor.experience,\n            doctor.gender,\n            doctor.rating,\n            doctor.about,\n            doctor.email,\n            doctor.profileImageURL\n        );\n    }\n\n    function getDoctorAdd() public view returns (address[] memory docAdd_){\n        docAdd_ =  docAdd;\n    }\n    \n}",
  "sourcePath": "/Users/ishajasani/Desktop/FLUJECTS/GFG_TECHIE TWINS/Techie-Twins/techie_twins/contracts/DoctorInfo.sol",
  "compiler": {
    "name": "solc",
    "version": "0.8.19+commit.7dd6d404.Emscripten.clang"
  },
  "schemaVersion": "3.4.13",
  "updatedAt": "2023-04-11T17:48:25.331Z",
  "networkType": "ethereum",
  "devdoc": {
    "kind": "dev",
    "methods": {},
    "version": 1
  },
  "userdoc": {
    "kind": "user",
    "methods": {},
    "version": 1
  }
}