{
  "contractName": "DoctorAppointment",
  "abi": [
    {
      "inputs": [],
      "stateMutability": "nonpayable",
      "type": "constructor"
    },
    {
      "anonymous": false,
      "inputs": [
        {
          "indexed": false,
          "internalType": "uint256",
          "name": "appointmentId",
          "type": "uint256"
        },
        {
          "indexed": false,
          "internalType": "address",
          "name": "patient",
          "type": "address"
        },
        {
          "indexed": false,
          "internalType": "uint256",
          "name": "appointmentTime",
          "type": "uint256"
        }
      ],
      "name": "AppointmentBooked",
      "type": "event"
    },
    {
      "anonymous": false,
      "inputs": [
        {
          "indexed": false,
          "internalType": "uint256",
          "name": "appointmentId",
          "type": "uint256"
        }
      ],
      "name": "AppointmentConfirmed",
      "type": "event"
    },
    {
      "inputs": [],
      "name": "appointmentCounter",
      "outputs": [
        {
          "internalType": "uint256",
          "name": "",
          "type": "uint256"
        }
      ],
      "stateMutability": "view",
      "type": "function"
    },
    {
      "inputs": [
        {
          "internalType": "uint256",
          "name": "",
          "type": "uint256"
        }
      ],
      "name": "appointments",
      "outputs": [
        {
          "internalType": "address",
          "name": "patient",
          "type": "address"
        },
        {
          "internalType": "uint256",
          "name": "appointmentTime",
          "type": "uint256"
        },
        {
          "internalType": "bool",
          "name": "isConfirmed",
          "type": "bool"
        }
      ],
      "stateMutability": "view",
      "type": "function"
    },
    {
      "inputs": [],
      "name": "doctor",
      "outputs": [
        {
          "internalType": "address",
          "name": "",
          "type": "address"
        }
      ],
      "stateMutability": "view",
      "type": "function"
    },
    {
      "inputs": [
        {
          "internalType": "uint256",
          "name": "_appointmentTime",
          "type": "uint256"
        }
      ],
      "name": "bookAppointment",
      "outputs": [],
      "stateMutability": "nonpayable",
      "type": "function"
    },
    {
      "inputs": [
        {
          "internalType": "uint256",
          "name": "_appointmentId",
          "type": "uint256"
        }
      ],
      "name": "confirmAppointment",
      "outputs": [],
      "stateMutability": "nonpayable",
      "type": "function"
    },
    {
      "inputs": [
        {
          "internalType": "uint256",
          "name": "_appointmentId",
          "type": "uint256"
        }
      ],
      "name": "getAppointment",
      "outputs": [
        {
          "internalType": "address",
          "name": "",
          "type": "address"
        },
        {
          "internalType": "uint256",
          "name": "",
          "type": "uint256"
        },
        {
          "internalType": "bool",
          "name": "",
          "type": "bool"
        }
      ],
      "stateMutability": "view",
      "type": "function"
    }
  ],
  "bytecode": "0x608060405234801561001057600080fd5b50600180819055506108fa806100276000396000f3fe608060405234801561001057600080fd5b50600436106100625760003560e01c80630d943da21461006757806312dc9013146100995780637ea7118c146100cb578063b41f6ed6146100e9578063c645e73914610107578063cefead9514610123575b600080fd5b610081600480360381019061007c9190610504565b61013f565b6040516100909392919061059c565b60405180910390f35b6100b360048036038101906100ae9190610504565b6101a3565b6040516100c29392919061059c565b60405180910390f35b6100d36101fa565b6040516100e091906105d3565b60405180910390f35b6100f1610220565b6040516100fe91906105ee565b60405180910390f35b610121600480360381019061011c9190610504565b610226565b005b61013d60048036038101906101389190610504565b61037c565b005b60008060008060008086815260200190815260200160002090508060000160009054906101000a900473ffffffffffffffffffffffffffffffffffffffff1681600101548260020160009054906101000a900460ff16935093509350509193909250565b60006020528060005260406000206000915090508060000160009054906101000a900473ffffffffffffffffffffffffffffffffffffffff16908060010154908060020160009054906101000a900460ff16905083565b600260009054906101000a900473ffffffffffffffffffffffffffffffffffffffff1681565b60015481565b428111610268576040517f08c379a000000000000000000000000000000000000000000000000000000000815260040161025f9061068c565b60405180910390fd5b60405180606001604052803373ffffffffffffffffffffffffffffffffffffffff16815260200182815260200160001515815250600080600154815260200190815260200160002060008201518160000160006101000a81548173ffffffffffffffffffffffffffffffffffffffff021916908373ffffffffffffffffffffffffffffffffffffffff1602179055506020820151816001015560408201518160020160006101000a81548160ff0219169083151502179055509050507f82bb4fcdc78c8a61872b05f940ffc6304d86e17ded79a2c4379653191a62d2246001543383604051610359939291906106ac565b60405180910390a16001600081548092919061037490610712565b919050555050565b6000806000838152602001908152602001600020905060008160010154116103d9576040517f08c379a00000000000000000000000000000000000000000000000000000000081526004016103d0906107a6565b60405180910390fd5b8060020160009054906101000a900460ff161561042b576040517f08c379a000000000000000000000000000000000000000000000000000000000815260040161042290610812565b60405180910390fd5b42816001015411610471576040517f08c379a0000000000000000000000000000000000000000000000000000000008152600401610468906108a4565b60405180910390fd5b60018160020160006101000a81548160ff0219169083151502179055507f31b574c71982839b50b1f27014bd878e5d09df2523fd4ea5d288148a7c6479d9826040516104bd91906105ee565b60405180910390a15050565b600080fd5b6000819050919050565b6104e1816104ce565b81146104ec57600080fd5b50565b6000813590506104fe816104d8565b92915050565b60006020828403121561051a576105196104c9565b5b6000610528848285016104ef565b91505092915050565b600073ffffffffffffffffffffffffffffffffffffffff82169050919050565b600061055c82610531565b9050919050565b61056c81610551565b82525050565b61057b816104ce565b82525050565b60008115159050919050565b61059681610581565b82525050565b60006060820190506105b16000830186610563565b6105be6020830185610572565b6105cb604083018461058d565b949350505050565b60006020820190506105e86000830184610563565b92915050565b60006020820190506106036000830184610572565b92915050565b600082825260208201905092915050565b7f4170706f696e746d656e742074696d65206d75737420626520696e207468652060008201527f6675747572650000000000000000000000000000000000000000000000000000602082015250565b6000610676602683610609565b91506106818261061a565b604082019050919050565b600060208201905081810360008301526106a581610669565b9050919050565b60006060820190506106c16000830186610572565b6106ce6020830185610563565b6106db6040830184610572565b949350505050565b7f4e487b7100000000000000000000000000000000000000000000000000000000600052601160045260246000fd5b600061071d826104ce565b91507fffffffffffffffffffffffffffffffffffffffffffffffffffffffffffffffff820361074f5761074e6106e3565b5b600182019050919050565b7f496e76616c6964206170706f696e746d656e7420494400000000000000000000600082015250565b6000610790601683610609565b915061079b8261075a565b602082019050919050565b600060208201905081810360008301526107bf81610783565b9050919050565b7f4170706f696e746d656e7420697320616c726561647920636f6e6669726d6564600082015250565b60006107fc602083610609565b9150610807826107c6565b602082019050919050565b6000602082019050818103600083015261082b816107ef565b9050919050565b7f4170706f696e746d656e742074696d652068617320616c72656164792070617360008201527f7365640000000000000000000000000000000000000000000000000000000000602082015250565b600061088e602383610609565b915061089982610832565b604082019050919050565b600060208201905081810360008301526108bd81610881565b905091905056fea264697066735822122013c3a4d9f04e587408b786cfed37d94a10de661ebb841ad5a9c758dd70a344e464736f6c63430008130033",
  "immutableReferences": {},
  "source": "// SPDX-License-Identifier: MIT\r\n\r\npragma solidity >=0.7.0 <0.9.0;\r\n\r\ncontract DoctorAppointment {\r\n    struct Appointment {\r\n        address patient;\r\n        uint256 appointmentTime;\r\n        bool isConfirmed;\r\n    }\r\n\r\n    mapping(uint256 => Appointment) public appointments;\r\n    uint256 public appointmentCounter;\r\n    address public doctor;\r\n\r\n    event AppointmentBooked(\r\n        uint256 appointmentId,\r\n        address patient,\r\n        uint256 appointmentTime\r\n    );\r\n    event AppointmentConfirmed(uint256 appointmentId);\r\n\r\n    constructor() {\r\n        appointmentCounter = 1;\r\n    }\r\n\r\n    function bookAppointment(uint256 _appointmentTime) external {\r\n        require(\r\n            _appointmentTime > block.timestamp,\r\n            \"Appointment time must be in the future\"\r\n        );\r\n\r\n        appointments[appointmentCounter] = Appointment(\r\n            msg.sender,\r\n            _appointmentTime,\r\n            false\r\n        );\r\n        emit AppointmentBooked(\r\n            appointmentCounter,\r\n            msg.sender,\r\n            _appointmentTime\r\n        );\r\n        appointmentCounter++;\r\n    }\r\n\r\n    function confirmAppointment(uint256 _appointmentId) external {\r\n        Appointment storage appointment = appointments[_appointmentId];\r\n\r\n        require(appointment.appointmentTime > 0, \"Invalid appointment ID\");\r\n        require(!appointment.isConfirmed, \"Appointment is already confirmed\");\r\n        require(\r\n            appointment.appointmentTime > block.timestamp,\r\n            \"Appointment time has already passed\"\r\n        );\r\n\r\n        appointment.isConfirmed = true;\r\n        emit AppointmentConfirmed(_appointmentId);\r\n    }\r\n\r\n    function getAppointment(\r\n        uint256 _appointmentId\r\n    ) external view returns (address, uint256, bool) {\r\n        Appointment storage appointment = appointments[_appointmentId];\r\n        return (\r\n            appointment.patient,\r\n            appointment.appointmentTime,\r\n            appointment.isConfirmed\r\n        );\r\n        \r\n    }\r\n}\r\n",
  "sourcePath": "C:\\Users\\mohit\\Desktop\\Techie-Twins\\techie_twins\\contracts\\Appointment.sol",
  "compiler": {
    "name": "solc",
    "version": "0.8.19+commit.7dd6d404.Emscripten.clang"
  },
  "schemaVersion": "3.4.13",
  "updatedAt": "2023-05-20T13:29:27.825Z",
  "devdoc": {
    "kind": "dev",
    "methods": {},
    "version": 1
  },
  "userdoc": {
    "kind": "user",
    "methods": {},
    "version": 1
  }
}