{
  "contractName": "DoctorInfo",
  "abi": [
    {
      "anonymous": false,
      "inputs": [
        {
          "indexed": true,
          "internalType": "address",
          "name": "doctorAddress",
          "type": "address"
        },
        {
          "indexed": false,
          "internalType": "string",
          "name": "name",
          "type": "string"
        }
      ],
      "name": "DoctorRegistration",
      "type": "event"
    },
    {
      "inputs": [
        {
          "internalType": "string",
          "name": "name",
          "type": "string"
        },
        {
          "internalType": "string",
          "name": "patientCount",
          "type": "string"
        },
        {
          "internalType": "string",
          "name": "experience",
          "type": "string"
        },
        {
          "internalType": "string",
          "name": "gender",
          "type": "string"
        },
        {
          "internalType": "string",
          "name": "rating",
          "type": "string"
        },
        {
          "internalType": "string",
          "name": "email",
          "type": "string"
        },
        {
          "internalType": "string",
          "name": "about",
          "type": "string"
        },
        {
          "internalType": "string",
          "name": "profileImageURL",
          "type": "string"
        }
      ],
      "name": "registerDoctor",
      "outputs": [],
      "stateMutability": "nonpayable",
      "type": "function"
    },
    {
      "inputs": [
        {
          "internalType": "address",
          "name": "doctorAddress",
          "type": "address"
        }
      ],
      "name": "getDoctorInfo",
      "outputs": [
        {
          "internalType": "string",
          "name": "name",
          "type": "string"
        },
        {
          "internalType": "string",
          "name": "patientCount",
          "type": "string"
        },
        {
          "internalType": "string",
          "name": "experience",
          "type": "string"
        },
        {
          "internalType": "string",
          "name": "gender",
          "type": "string"
        },
        {
          "internalType": "string",
          "name": "rating",
          "type": "string"
        },
        {
          "internalType": "string",
          "name": "email",
          "type": "string"
        },
        {
          "internalType": "string",
          "name": "about",
          "type": "string"
        },
        {
          "internalType": "string",
          "name": "profileImageURL",
          "type": "string"
        }
      ],
      "stateMutability": "view",
      "type": "function",
      "constant": true
    }
  ],
  "bytecode": "0x608060405234801561001057600080fd5b5061107c806100206000396000f3fe608060405234801561001057600080fd5b50600436106100365760003560e01c80636f12fc351461003b578063bc3a124714610072575b600080fd5b610055600480360381019061005091906108fe565b61008e565b6040516100699897969594939291906109bb565b60405180910390f35b61008c60048036038101906100879190610ba6565b6105bc565b005b60608060608060608060608060008060008b73ffffffffffffffffffffffffffffffffffffffff1673ffffffffffffffffffffffffffffffffffffffff168152602001908152602001600020604051806101000160405290816000820180546100f690610d6b565b80601f016020809104026020016040519081016040528092919081815260200182805461012290610d6b565b801561016f5780601f106101445761010080835404028352916020019161016f565b820191906000526020600020905b81548152906001019060200180831161015257829003601f168201915b5050505050815260200160018201805461018890610d6b565b80601f01602080910402602001604051908101604052809291908181526020018280546101b490610d6b565b80156102015780601f106101d657610100808354040283529160200191610201565b820191906000526020600020905b8154815290600101906020018083116101e457829003601f168201915b5050505050815260200160028201805461021a90610d6b565b80601f016020809104026020016040519081016040528092919081815260200182805461024690610d6b565b80156102935780601f1061026857610100808354040283529160200191610293565b820191906000526020600020905b81548152906001019060200180831161027657829003601f168201915b505050505081526020016003820180546102ac90610d6b565b80601f01602080910402602001604051908101604052809291908181526020018280546102d890610d6b565b80156103255780601f106102fa57610100808354040283529160200191610325565b820191906000526020600020905b81548152906001019060200180831161030857829003601f168201915b5050505050815260200160048201805461033e90610d6b565b80601f016020809104026020016040519081016040528092919081815260200182805461036a90610d6b565b80156103b75780601f1061038c576101008083540402835291602001916103b7565b820191906000526020600020905b81548152906001019060200180831161039a57829003601f168201915b505050505081526020016005820180546103d090610d6b565b80601f01602080910402602001604051908101604052809291908181526020018280546103fc90610d6b565b80156104495780601f1061041e57610100808354040283529160200191610449565b820191906000526020600020905b81548152906001019060200180831161042c57829003601f168201915b5050505050815260200160068201805461046290610d6b565b80601f016020809104026020016040519081016040528092919081815260200182805461048e90610d6b565b80156104db5780601f106104b0576101008083540402835291602001916104db565b820191906000526020600020905b8154815290600101906020018083116104be57829003601f168201915b505050505081526020016007820180546104f490610d6b565b80601f016020809104026020016040519081016040528092919081815260200182805461052090610d6b565b801561056d5780601f106105425761010080835404028352916020019161056d565b820191906000526020600020905b81548152906001019060200180831161055057829003601f168201915b5050505050815250509050806000015181602001518260400151836060015184608001518560a001518660c001518760e001519850985098509850985098509850985050919395975091939597565b876000803373ffffffffffffffffffffffffffffffffffffffff1673ffffffffffffffffffffffffffffffffffffffff168152602001908152602001600020600001908161060a9190610f52565b50866000803373ffffffffffffffffffffffffffffffffffffffff1673ffffffffffffffffffffffffffffffffffffffff16815260200190815260200160002060010190816106599190610f52565b50856000803373ffffffffffffffffffffffffffffffffffffffff1673ffffffffffffffffffffffffffffffffffffffff16815260200190815260200160002060020190816106a89190610f52565b50846000803373ffffffffffffffffffffffffffffffffffffffff1673ffffffffffffffffffffffffffffffffffffffff16815260200190815260200160002060030190816106f79190610f52565b50836000803373ffffffffffffffffffffffffffffffffffffffff1673ffffffffffffffffffffffffffffffffffffffff16815260200190815260200160002060040190816107469190610f52565b50826000803373ffffffffffffffffffffffffffffffffffffffff1673ffffffffffffffffffffffffffffffffffffffff16815260200190815260200160002060050190816107959190610f52565b50816000803373ffffffffffffffffffffffffffffffffffffffff1673ffffffffffffffffffffffffffffffffffffffff16815260200190815260200160002060060190816107e49190610f52565b50806000803373ffffffffffffffffffffffffffffffffffffffff1673ffffffffffffffffffffffffffffffffffffffff16815260200190815260200160002060070190816108339190610f52565b503373ffffffffffffffffffffffffffffffffffffffff167f12dd1fdb34f96398cf236f0a35da33ecf85f9ac9c3f34f46c852c333c0bfe67d8960405161087a9190611024565b60405180910390a25050505050505050565b6000604051905090565b600080fd5b600080fd5b600073ffffffffffffffffffffffffffffffffffffffff82169050919050565b60006108cb826108a0565b9050919050565b6108db816108c0565b81146108e657600080fd5b50565b6000813590506108f8816108d2565b92915050565b60006020828403121561091457610913610896565b5b6000610922848285016108e9565b91505092915050565b600081519050919050565b600082825260208201905092915050565b60005b8381101561096557808201518184015260208101905061094a565b60008484015250505050565b6000601f19601f8301169050919050565b600061098d8261092b565b6109978185610936565b93506109a7818560208601610947565b6109b081610971565b840191505092915050565b60006101008201905081810360008301526109d6818b610982565b905081810360208301526109ea818a610982565b905081810360408301526109fe8189610982565b90508181036060830152610a128188610982565b90508181036080830152610a268187610982565b905081810360a0830152610a3a8186610982565b905081810360c0830152610a4e8185610982565b905081810360e0830152610a628184610982565b90509998505050505050505050565b600080fd5b600080fd5b7f4e487b7100000000000000000000000000000000000000000000000000000000600052604160045260246000fd5b610ab382610971565b810181811067ffffffffffffffff82111715610ad257610ad1610a7b565b5b80604052505050565b6000610ae561088c565b9050610af18282610aaa565b919050565b600067ffffffffffffffff821115610b1157610b10610a7b565b5b610b1a82610971565b9050602081019050919050565b82818337600083830152505050565b6000610b49610b4484610af6565b610adb565b905082815260208101848484011115610b6557610b64610a76565b5b610b70848285610b27565b509392505050565b600082601f830112610b8d57610b8c610a71565b5b8135610b9d848260208601610b36565b91505092915050565b600080600080600080600080610100898b031215610bc757610bc6610896565b5b600089013567ffffffffffffffff811115610be557610be461089b565b5b610bf18b828c01610b78565b985050602089013567ffffffffffffffff811115610c1257610c1161089b565b5b610c1e8b828c01610b78565b975050604089013567ffffffffffffffff811115610c3f57610c3e61089b565b5b610c4b8b828c01610b78565b965050606089013567ffffffffffffffff811115610c6c57610c6b61089b565b5b610c788b828c01610b78565b955050608089013567ffffffffffffffff811115610c9957610c9861089b565b5b610ca58b828c01610b78565b94505060a089013567ffffffffffffffff811115610cc657610cc561089b565b5b610cd28b828c01610b78565b93505060c089013567ffffffffffffffff811115610cf357610cf261089b565b5b610cff8b828c01610b78565b92505060e089013567ffffffffffffffff811115610d2057610d1f61089b565b5b610d2c8b828c01610b78565b9150509295985092959890939650565b7f4e487b7100000000000000000000000000000000000000000000000000000000600052602260045260246000fd5b60006002820490506001821680610d8357607f821691505b602082108103610d9657610d95610d3c565b5b50919050565b60008190508160005260206000209050919050565b60006020601f8301049050919050565b600082821b905092915050565b600060088302610dfe7fffffffffffffffffffffffffffffffffffffffffffffffffffffffffffffffff82610dc1565b610e088683610dc1565b95508019841693508086168417925050509392505050565b6000819050919050565b6000819050919050565b6000610e4f610e4a610e4584610e20565b610e2a565b610e20565b9050919050565b6000819050919050565b610e6983610e34565b610e7d610e7582610e56565b848454610dce565b825550505050565b600090565b610e92610e85565b610e9d818484610e60565b505050565b5b81811015610ec157610eb6600082610e8a565b600181019050610ea3565b5050565b601f821115610f0657610ed781610d9c565b610ee084610db1565b81016020851015610eef578190505b610f03610efb85610db1565b830182610ea2565b50505b505050565b600082821c905092915050565b6000610f2960001984600802610f0b565b1980831691505092915050565b6000610f428383610f18565b9150826002028217905092915050565b610f5b8261092b565b67ffffffffffffffff811115610f7457610f73610a7b565b5b610f7e8254610d6b565b610f89828285610ec5565b600060209050601f831160018114610fbc5760008415610faa578287015190505b610fb48582610f36565b86555061101c565b601f198416610fca86610d9c565b60005b82811015610ff257848901518255600182019150602085019450602081019050610fcd565b8683101561100f578489015161100b601f891682610f18565b8355505b6001600288020188555050505b505050505050565b6000602082019050818103600083015261103e8184610982565b90509291505056fea26469706673582212203c0c4acf42fa2d30b12fae9b3f782c26a69c1ab428269a738f8f85f09625746f64736f6c63430008130033",
  "immutableReferences": {},
  "source": "// SPDX-License-Identifier: MIT\n\npragma solidity >=0.7.0 <0.9.0;\n\ncontract DoctorInfo{\n    struct Doctor{\n        string name;\n        string patientCount;\n        string experience;\n        string gender;\n        string rating;\n        string email;\n        string about;\n        string profileImageURL;\n    }\n\n    mapping(address => Doctor) doctors;\n\n    event DoctorRegistration(address indexed doctorAddress, string name);\n\n    function registerDoctor(\n        string memory name,\n        string memory patientCount,\n        string memory experience,\n        string memory gender,\n        string memory rating,\n        string memory email,\n        string memory about,\n        string memory profileImageURL\n    ) public {\n        doctors[msg.sender].name = name;\n        doctors[msg.sender].patientCount = patientCount;\n        doctors[msg.sender].experience = experience;\n        doctors[msg.sender].gender = gender;\n        doctors[msg.sender].rating = rating;\n        doctors[msg.sender].email = email;\n        doctors[msg.sender].about = about;\n        doctors[msg.sender].profileImageURL = profileImageURL;\n        emit DoctorRegistration(msg.sender, name);\n    }\n\n    function getDoctorInfo(address doctorAddress)public view\n        returns (\n        string memory name,\n        string memory patientCount,\n        string memory experience,\n        string memory gender,\n        string memory rating,\n        string memory email,\n        string memory about,\n        string memory profileImageURL\n        )\n    {\n        Doctor memory doctor = doctors[doctorAddress];\n        return (\n            doctor.name,\n            doctor.patientCount,\n            doctor.experience,\n            doctor.gender,\n            doctor.rating,\n            doctor.email,\n            doctor.about,\n            doctor.profileImageURL\n        );\n    }\n}",
  "sourcePath": "/media/mohit/Development/Development/GFG Hackathon/Techie-Twins/techie_twins/contracts/DoctorInfo.sol",
  "compiler": {
    "name": "solc",
    "version": "0.8.19+commit.7dd6d404.Emscripten.clang"
  },
  "schemaVersion": "3.4.13",
  "updatedAt": "2023-04-09T12:52:38.055Z",
  "networkType": "ethereum",
  "devdoc": {
    "kind": "dev",
    "methods": {},
    "version": 1
  },
  "userdoc": {
    "kind": "user",
    "methods": {},
    "version": 1
  }
}