{
  "contractName": "DoctorInfo",
  "abi": [
    {
      "anonymous": false,
      "inputs": [
        {
          "indexed": true,
          "internalType": "address",
          "name": "doctorAddress",
          "type": "address"
        },
        {
          "indexed": false,
          "internalType": "string",
          "name": "name",
          "type": "string"
        }
      ],
      "name": "DoctorRegistration",
      "type": "event"
    },
    {
      "inputs": [
        {
          "internalType": "string",
          "name": "name",
          "type": "string"
        },
        {
          "internalType": "string",
          "name": "designation",
          "type": "string"
        },
        {
          "internalType": "string",
          "name": "patientCount",
          "type": "string"
        },
        {
          "internalType": "string",
          "name": "experience",
          "type": "string"
        },
        {
          "internalType": "string",
          "name": "gender",
          "type": "string"
        },
        {
          "internalType": "string",
          "name": "rating",
          "type": "string"
        },
        {
          "internalType": "string",
          "name": "email",
          "type": "string"
        },
        {
          "internalType": "string",
          "name": "about",
          "type": "string"
        },
        {
          "internalType": "string",
          "name": "profileImageURL",
          "type": "string"
        }
      ],
      "name": "registerDoctor",
      "outputs": [],
      "stateMutability": "nonpayable",
      "type": "function"
    },
    {
      "inputs": [
        {
          "internalType": "address",
          "name": "doctorAddress",
          "type": "address"
        }
      ],
      "name": "getDoctorInfo",
      "outputs": [
        {
          "internalType": "string",
          "name": "name",
          "type": "string"
        },
        {
          "internalType": "string",
          "name": "designation",
          "type": "string"
        },
        {
          "internalType": "string",
          "name": "patientCount",
          "type": "string"
        },
        {
          "internalType": "string",
          "name": "experience",
          "type": "string"
        },
        {
          "internalType": "string",
          "name": "gender",
          "type": "string"
        },
        {
          "internalType": "string",
          "name": "rating",
          "type": "string"
        },
        {
          "internalType": "string",
          "name": "email",
          "type": "string"
        },
        {
          "internalType": "string",
          "name": "about",
          "type": "string"
        },
        {
          "internalType": "string",
          "name": "profileImageURL",
          "type": "string"
        }
      ],
      "stateMutability": "view",
      "type": "function",
      "constant": true
    },
    {
      "inputs": [],
      "name": "getDoctorAdd",
      "outputs": [
        {
          "internalType": "address[]",
          "name": "docAdd_",
          "type": "address[]"
        }
      ],
      "stateMutability": "view",
      "type": "function",
      "constant": true
    }
  ],
  "bytecode": "0x608060405234801561001057600080fd5b506113b5806100206000396000f3fe608060405234801561001057600080fd5b50600436106100415760003560e01c80630ab2fa2d146100465780636f12fc3514610064578063e75bdb2a1461009c575b600080fd5b61004e6100b8565b60405161005b9190610b8f565b60405180910390f35b61007e60048036038101906100799190610bf1565b610146565b60405161009399989796959493929190610cae565b60405180910390f35b6100b660048036038101906100b19190610eaf565b610713565b005b6060600080548060200260200160405190810160405280929190818152602001828054801561013c57602002820191906000526020600020905b8160009054906101000a900473ffffffffffffffffffffffffffffffffffffffff1673ffffffffffffffffffffffffffffffffffffffff16815260200190600101908083116100f2575b5050505050905090565b60608060608060608060608060606000600160008c73ffffffffffffffffffffffffffffffffffffffff1673ffffffffffffffffffffffffffffffffffffffff168152602001908152602001600020604051806101200160405290816000820180546101b1906110a4565b80601f01602080910402602001604051908101604052809291908181526020018280546101dd906110a4565b801561022a5780601f106101ff5761010080835404028352916020019161022a565b820191906000526020600020905b81548152906001019060200180831161020d57829003601f168201915b50505050508152602001600182018054610243906110a4565b80601f016020809104026020016040519081016040528092919081815260200182805461026f906110a4565b80156102bc5780601f10610291576101008083540402835291602001916102bc565b820191906000526020600020905b81548152906001019060200180831161029f57829003601f168201915b505050505081526020016002820180546102d5906110a4565b80601f0160208091040260200160405190810160405280929190818152602001828054610301906110a4565b801561034e5780601f106103235761010080835404028352916020019161034e565b820191906000526020600020905b81548152906001019060200180831161033157829003601f168201915b50505050508152602001600382018054610367906110a4565b80601f0160208091040260200160405190810160405280929190818152602001828054610393906110a4565b80156103e05780601f106103b5576101008083540402835291602001916103e0565b820191906000526020600020905b8154815290600101906020018083116103c357829003601f168201915b505050505081526020016004820180546103f9906110a4565b80601f0160208091040260200160405190810160405280929190818152602001828054610425906110a4565b80156104725780601f1061044757610100808354040283529160200191610472565b820191906000526020600020905b81548152906001019060200180831161045557829003601f168201915b5050505050815260200160058201805461048b906110a4565b80601f01602080910402602001604051908101604052809291908181526020018280546104b7906110a4565b80156105045780601f106104d957610100808354040283529160200191610504565b820191906000526020600020905b8154815290600101906020018083116104e757829003601f168201915b5050505050815260200160068201805461051d906110a4565b80601f0160208091040260200160405190810160405280929190818152602001828054610549906110a4565b80156105965780601f1061056b57610100808354040283529160200191610596565b820191906000526020600020905b81548152906001019060200180831161057957829003601f168201915b505050505081526020016007820180546105af906110a4565b80601f01602080910402602001604051908101604052809291908181526020018280546105db906110a4565b80156106285780601f106105fd57610100808354040283529160200191610628565b820191906000526020600020905b81548152906001019060200180831161060b57829003601f168201915b50505050508152602001600882018054610641906110a4565b80601f016020809104026020016040519081016040528092919081815260200182805461066d906110a4565b80156106ba5780601f1061068f576101008083540402835291602001916106ba565b820191906000526020600020905b81548152906001019060200180831161069d57829003601f168201915b5050505050815250509050806000015181602001518260400151836060015184608001518560a001518660c001518760e00151886101000151995099509950995099509950995099509950509193959799909294969850565b88600160003373ffffffffffffffffffffffffffffffffffffffff1673ffffffffffffffffffffffffffffffffffffffff1681526020019081526020016000206000019081610762919061128b565b5087600160003373ffffffffffffffffffffffffffffffffffffffff1673ffffffffffffffffffffffffffffffffffffffff16815260200190815260200160002060010190816107b2919061128b565b5086600160003373ffffffffffffffffffffffffffffffffffffffff1673ffffffffffffffffffffffffffffffffffffffff1681526020019081526020016000206002019081610802919061128b565b5085600160003373ffffffffffffffffffffffffffffffffffffffff1673ffffffffffffffffffffffffffffffffffffffff1681526020019081526020016000206003019081610852919061128b565b5084600160003373ffffffffffffffffffffffffffffffffffffffff1673ffffffffffffffffffffffffffffffffffffffff16815260200190815260200160002060040190816108a2919061128b565b5083600160003373ffffffffffffffffffffffffffffffffffffffff1673ffffffffffffffffffffffffffffffffffffffff16815260200190815260200160002060050190816108f2919061128b565b5082600160003373ffffffffffffffffffffffffffffffffffffffff1673ffffffffffffffffffffffffffffffffffffffff1681526020019081526020016000206007019081610942919061128b565b5081600160003373ffffffffffffffffffffffffffffffffffffffff1673ffffffffffffffffffffffffffffffffffffffff1681526020019081526020016000206006019081610992919061128b565b5080600160003373ffffffffffffffffffffffffffffffffffffffff1673ffffffffffffffffffffffffffffffffffffffff16815260200190815260200160002060080190816109e2919061128b565b506000339080600181540180825580915050600190039060005260206000200160009091909190916101000a81548173ffffffffffffffffffffffffffffffffffffffff021916908373ffffffffffffffffffffffffffffffffffffffff1602179055503373ffffffffffffffffffffffffffffffffffffffff167f12dd1fdb34f96398cf236f0a35da33ecf85f9ac9c3f34f46c852c333c0bfe67d8a604051610a8c919061135d565b60405180910390a2505050505050505050565b600081519050919050565b600082825260208201905092915050565b6000819050602082019050919050565b600073ffffffffffffffffffffffffffffffffffffffff82169050919050565b6000610af682610acb565b9050919050565b610b0681610aeb565b82525050565b6000610b188383610afd565b60208301905092915050565b6000602082019050919050565b6000610b3c82610a9f565b610b468185610aaa565b9350610b5183610abb565b8060005b83811015610b82578151610b698882610b0c565b9750610b7483610b24565b925050600181019050610b55565b5085935050505092915050565b60006020820190508181036000830152610ba98184610b31565b905092915050565b6000604051905090565b600080fd5b600080fd5b610bce81610aeb565b8114610bd957600080fd5b50565b600081359050610beb81610bc5565b92915050565b600060208284031215610c0757610c06610bbb565b5b6000610c1584828501610bdc565b91505092915050565b600081519050919050565b600082825260208201905092915050565b60005b83811015610c58578082015181840152602081019050610c3d565b60008484015250505050565b6000601f19601f8301169050919050565b6000610c8082610c1e565b610c8a8185610c29565b9350610c9a818560208601610c3a565b610ca381610c64565b840191505092915050565b6000610120820190508181036000830152610cc9818c610c75565b90508181036020830152610cdd818b610c75565b90508181036040830152610cf1818a610c75565b90508181036060830152610d058189610c75565b90508181036080830152610d198188610c75565b905081810360a0830152610d2d8187610c75565b905081810360c0830152610d418186610c75565b905081810360e0830152610d558185610c75565b9050818103610100830152610d6a8184610c75565b90509a9950505050505050505050565b600080fd5b600080fd5b7f4e487b7100000000000000000000000000000000000000000000000000000000600052604160045260246000fd5b610dbc82610c64565b810181811067ffffffffffffffff82111715610ddb57610dda610d84565b5b80604052505050565b6000610dee610bb1565b9050610dfa8282610db3565b919050565b600067ffffffffffffffff821115610e1a57610e19610d84565b5b610e2382610c64565b9050602081019050919050565b82818337600083830152505050565b6000610e52610e4d84610dff565b610de4565b905082815260208101848484011115610e6e57610e6d610d7f565b5b610e79848285610e30565b509392505050565b600082601f830112610e9657610e95610d7a565b5b8135610ea6848260208601610e3f565b91505092915050565b60008060008060008060008060006101208a8c031215610ed257610ed1610bbb565b5b60008a013567ffffffffffffffff811115610ef057610eef610bc0565b5b610efc8c828d01610e81565b99505060208a013567ffffffffffffffff811115610f1d57610f1c610bc0565b5b610f298c828d01610e81565b98505060408a013567ffffffffffffffff811115610f4a57610f49610bc0565b5b610f568c828d01610e81565b97505060608a013567ffffffffffffffff811115610f7757610f76610bc0565b5b610f838c828d01610e81565b96505060808a013567ffffffffffffffff811115610fa457610fa3610bc0565b5b610fb08c828d01610e81565b95505060a08a013567ffffffffffffffff811115610fd157610fd0610bc0565b5b610fdd8c828d01610e81565b94505060c08a013567ffffffffffffffff811115610ffe57610ffd610bc0565b5b61100a8c828d01610e81565b93505060e08a013567ffffffffffffffff81111561102b5761102a610bc0565b5b6110378c828d01610e81565b9250506101008a013567ffffffffffffffff81111561105957611058610bc0565b5b6110658c828d01610e81565b9150509295985092959850929598565b7f4e487b7100000000000000000000000000000000000000000000000000000000600052602260045260246000fd5b600060028204905060018216806110bc57607f821691505b6020821081036110cf576110ce611075565b5b50919050565b60008190508160005260206000209050919050565b60006020601f8301049050919050565b600082821b905092915050565b6000600883026111377fffffffffffffffffffffffffffffffffffffffffffffffffffffffffffffffff826110fa565b61114186836110fa565b95508019841693508086168417925050509392505050565b6000819050919050565b6000819050919050565b600061118861118361117e84611159565b611163565b611159565b9050919050565b6000819050919050565b6111a28361116d565b6111b66111ae8261118f565b848454611107565b825550505050565b600090565b6111cb6111be565b6111d6818484611199565b505050565b5b818110156111fa576111ef6000826111c3565b6001810190506111dc565b5050565b601f82111561123f57611210816110d5565b611219846110ea565b81016020851015611228578190505b61123c611234856110ea565b8301826111db565b50505b505050565b600082821c905092915050565b600061126260001984600802611244565b1980831691505092915050565b600061127b8383611251565b9150826002028217905092915050565b61129482610c1e565b67ffffffffffffffff8111156112ad576112ac610d84565b5b6112b782546110a4565b6112c28282856111fe565b600060209050601f8311600181146112f557600084156112e3578287015190505b6112ed858261126f565b865550611355565b601f198416611303866110d5565b60005b8281101561132b57848901518255600182019150602085019450602081019050611306565b868310156113485784890151611344601f891682611251565b8355505b6001600288020188555050505b505050505050565b600060208201905081810360008301526113778184610c75565b90509291505056fea2646970667358221220441b40bfd76a07f778fcb8ab9501a094da8c5487edf26b637566e817c1392c5a64736f6c63430008130033",
  "immutableReferences": {},
  "source": "// SPDX-License-Identifier: MIT\r\n\r\npragma solidity >=0.7.0 <0.9.0;\r\n\r\ncontract DoctorInfo {\r\n    struct Doctor {\r\n        string name;\r\n        string designation;\r\n        string patientCount;\r\n        string experience;\r\n        string gender;\r\n        string rating;\r\n        string about;\r\n        string email;\r\n        string profileImageURL;\r\n    }\r\n\r\n    address[] docAdd;\r\n    mapping(address => Doctor) doctors;\r\n\r\n    event DoctorRegistration(address indexed doctorAddress, string name);\r\n\r\n    function registerDoctor(\r\n        string memory name,\r\n        string memory designation,\r\n        string memory patientCount,\r\n        string memory experience,\r\n        string memory gender,\r\n        string memory rating,\r\n        string memory email,\r\n        string memory about,\r\n        string memory profileImageURL\r\n    ) public {\r\n        doctors[msg.sender].name = name;\r\n        doctors[msg.sender].designation = designation;\r\n        doctors[msg.sender].patientCount = patientCount;\r\n        doctors[msg.sender].experience = experience;\r\n        doctors[msg.sender].gender = gender;\r\n        doctors[msg.sender].rating = rating;\r\n        doctors[msg.sender].email = email;\r\n        doctors[msg.sender].about = about;\r\n        doctors[msg.sender].profileImageURL = profileImageURL;\r\n        docAdd.push(msg.sender);\r\n        emit DoctorRegistration(msg.sender, name);\r\n    }\r\n\r\n    function getDoctorInfo(\r\n        address doctorAddress\r\n    )\r\n        public\r\n        view\r\n        returns (\r\n            string memory name,\r\n            string memory designation,\r\n            string memory patientCount,\r\n            string memory experience,\r\n            string memory gender,\r\n            string memory rating,\r\n            string memory email,\r\n            string memory about,\r\n            string memory profileImageURL\r\n        )\r\n    {\r\n        Doctor memory doctor = doctors[doctorAddress];\r\n        return (\r\n            doctor.name,\r\n            doctor.designation,\r\n            doctor.patientCount,\r\n            doctor.experience,\r\n            doctor.gender,\r\n            doctor.rating,\r\n            doctor.about,\r\n            doctor.email,\r\n            doctor.profileImageURL\r\n        );\r\n    }\r\n\r\n    function getDoctorAdd() public view returns (address[] memory docAdd_) {\r\n        docAdd_ = docAdd;\r\n    }\r\n}\r\n",
  "sourcePath": "C:\\Users\\mohit\\Desktop\\Techie-Twins\\techie_twins\\contracts\\DoctorInfo.sol",
  "compiler": {
    "name": "solc",
    "version": "0.8.19+commit.7dd6d404.Emscripten.clang"
  },
  "schemaVersion": "3.4.13",
  "updatedAt": "2023-05-20T03:46:53.858Z",
  "networkType": "ethereum",
  "devdoc": {
    "kind": "dev",
    "methods": {},
    "version": 1
  },
  "userdoc": {
    "kind": "user",
    "methods": {},
    "version": 1
  }
}