{
  "contractName": "DoctorInfo",
  "abi": [
    {
      "anonymous": false,
      "inputs": [
        {
          "indexed": true,
          "internalType": "address",
          "name": "doctorAddress",
          "type": "address"
        },
        {
          "indexed": false,
          "internalType": "string",
          "name": "name",
          "type": "string"
        }
      ],
      "name": "DoctorRegistration",
      "type": "event"
    },
    {
      "inputs": [
        {
          "internalType": "string",
          "name": "name",
          "type": "string"
        },
        {
          "internalType": "string",
          "name": "designation",
          "type": "string"
        },
        {
          "internalType": "string",
          "name": "patientCount",
          "type": "string"
        },
        {
          "internalType": "string",
          "name": "experience",
          "type": "string"
        },
        {
          "internalType": "string",
          "name": "gender",
          "type": "string"
        },
        {
          "internalType": "string",
          "name": "rating",
          "type": "string"
        },
        {
          "internalType": "string",
          "name": "email",
          "type": "string"
        },
        {
          "internalType": "string",
          "name": "about",
          "type": "string"
        },
        {
          "internalType": "string",
          "name": "profileImageURL",
          "type": "string"
        }
      ],
      "name": "registerDoctor",
      "outputs": [],
      "stateMutability": "nonpayable",
      "type": "function"
    },
    {
      "inputs": [
        {
          "internalType": "address",
          "name": "doctorAddress",
          "type": "address"
        }
      ],
      "name": "getDoctorInfo",
      "outputs": [
        {
          "internalType": "string",
          "name": "name",
          "type": "string"
        },
        {
          "internalType": "string",
          "name": "designation",
          "type": "string"
        },
        {
          "internalType": "string",
          "name": "patientCount",
          "type": "string"
        },
        {
          "internalType": "string",
          "name": "experience",
          "type": "string"
        },
        {
          "internalType": "string",
          "name": "gender",
          "type": "string"
        },
        {
          "internalType": "string",
          "name": "rating",
          "type": "string"
        },
        {
          "internalType": "string",
          "name": "email",
          "type": "string"
        },
        {
          "internalType": "string",
          "name": "about",
          "type": "string"
        },
        {
          "internalType": "string",
          "name": "profileImageURL",
          "type": "string"
        }
      ],
      "stateMutability": "view",
      "type": "function",
      "constant": true
    },
    {
      "inputs": [],
      "name": "getDoctorAdd",
      "outputs": [
        {
          "internalType": "address[]",
          "name": "docAdd_",
          "type": "address[]"
        }
      ],
      "stateMutability": "view",
      "type": "function",
      "constant": true
    },
    {
      "inputs": [
        {
          "internalType": "uint256",
          "name": "_appointmentTime",
          "type": "uint256"
        },
        {
          "internalType": "address",
          "name": "docAddress",
          "type": "address"
        }
      ],
      "name": "bookAppointment",
      "outputs": [],
      "stateMutability": "nonpayable",
      "type": "function"
    },
    {
      "inputs": [
        {
          "internalType": "uint256",
          "name": "index",
          "type": "uint256"
        }
      ],
      "name": "appointmentConfirmed",
      "outputs": [],
      "stateMutability": "nonpayable",
      "type": "function"
    },
    {
      "inputs": [],
      "name": "getAppointments",
      "outputs": [
        {
          "components": [
            {
              "internalType": "address",
              "name": "patient",
              "type": "address"
            },
            {
              "internalType": "uint256",
              "name": "appointmentTime",
              "type": "uint256"
            },
            {
              "internalType": "bool",
              "name": "isConfirmed",
              "type": "bool"
            }
          ],
          "internalType": "struct DoctorInfo.Appointment[]",
          "name": "",
          "type": "tuple[]"
        }
      ],
      "stateMutability": "view",
      "type": "function",
      "constant": true
    }
  ],
  "bytecode": "0x60806040526000805534801561001457600080fd5b50611af8806100246000396000f3fe608060405234801561001057600080fd5b50600436106100625760003560e01c80630ab2fa2d146100675780636f12fc351461008557806396b80d08146100bd578063adee9528146100db578063b37810cf146100f7578063e75bdb2a14610113575b600080fd5b61006f61012f565b60405161007c9190611056565b60405180910390f35b61009f600480360381019061009a91906110b8565b6101bd565b6040516100b499989796959493929190611175565b60405180910390f35b6100c5610864565b6040516100d29190611366565b60405180910390f35b6100f560048036038101906100f091906113b4565b6109f3565b005b610111600480360381019061010c91906113f4565b610b20565b005b61012d60048036038101906101289190611556565b610ba1565b005b606060018054806020026020016040519081016040528092919081815260200182805480156101b357602002820191906000526020600020905b8160009054906101000a900473ffffffffffffffffffffffffffffffffffffffff1673ffffffffffffffffffffffffffffffffffffffff1681526020019060010190808311610169575b5050505050905090565b60608060608060608060608060606000600260008c73ffffffffffffffffffffffffffffffffffffffff1673ffffffffffffffffffffffffffffffffffffffff168152602001908152602001600020604051806101400160405290816000820180546102289061174b565b80601f01602080910402602001604051908101604052809291908181526020018280546102549061174b565b80156102a15780601f10610276576101008083540402835291602001916102a1565b820191906000526020600020905b81548152906001019060200180831161028457829003601f168201915b505050505081526020016001820180546102ba9061174b565b80601f01602080910402602001604051908101604052809291908181526020018280546102e69061174b565b80156103335780601f1061030857610100808354040283529160200191610333565b820191906000526020600020905b81548152906001019060200180831161031657829003601f168201915b5050505050815260200160028201805461034c9061174b565b80601f01602080910402602001604051908101604052809291908181526020018280546103789061174b565b80156103c55780601f1061039a576101008083540402835291602001916103c5565b820191906000526020600020905b8154815290600101906020018083116103a857829003601f168201915b505050505081526020016003820180546103de9061174b565b80601f016020809104026020016040519081016040528092919081815260200182805461040a9061174b565b80156104575780601f1061042c57610100808354040283529160200191610457565b820191906000526020600020905b81548152906001019060200180831161043a57829003601f168201915b505050505081526020016004820180546104709061174b565b80601f016020809104026020016040519081016040528092919081815260200182805461049c9061174b565b80156104e95780601f106104be576101008083540402835291602001916104e9565b820191906000526020600020905b8154815290600101906020018083116104cc57829003601f168201915b505050505081526020016005820180546105029061174b565b80601f016020809104026020016040519081016040528092919081815260200182805461052e9061174b565b801561057b5780601f106105505761010080835404028352916020019161057b565b820191906000526020600020905b81548152906001019060200180831161055e57829003601f168201915b505050505081526020016006820180546105949061174b565b80601f01602080910402602001604051908101604052809291908181526020018280546105c09061174b565b801561060d5780601f106105e25761010080835404028352916020019161060d565b820191906000526020600020905b8154815290600101906020018083116105f057829003601f168201915b505050505081526020016007820180546106269061174b565b80601f01602080910402602001604051908101604052809291908181526020018280546106529061174b565b801561069f5780601f106106745761010080835404028352916020019161069f565b820191906000526020600020905b81548152906001019060200180831161068257829003601f168201915b505050505081526020016008820180546106b89061174b565b80601f01602080910402602001604051908101604052809291908181526020018280546106e49061174b565b80156107315780601f1061070657610100808354040283529160200191610731565b820191906000526020600020905b81548152906001019060200180831161071457829003601f168201915b5050505050815260200160098201805480602002602001604051908101604052809291908181526020016000905b8282101561080c57838290600052602060002090600302016040518060600160405290816000820160009054906101000a900473ffffffffffffffffffffffffffffffffffffffff1673ffffffffffffffffffffffffffffffffffffffff1673ffffffffffffffffffffffffffffffffffffffff168152602001600182015481526020016002820160009054906101000a900460ff1615151515815250508152602001906001019061075f565b50505050815250509050806000015181602001518260400151836060015184608001518560a001518660c001518760e00151886101000151995099509950995099509950995099509950509193959799909294969850565b60606000805467ffffffffffffffff8111156108835761088261142b565b5b6040519080825280602002602001820160405280156108bc57816020015b6108a9610f2d565b8152602001906001900390816108a15790505b50905060005b6000548110156109eb576000600260003373ffffffffffffffffffffffffffffffffffffffff1673ffffffffffffffffffffffffffffffffffffffff16815260200190815260200160002060090182815481106109225761092161177c565b5b90600052602060002090600302016040518060600160405290816000820160009054906101000a900473ffffffffffffffffffffffffffffffffffffffff1673ffffffffffffffffffffffffffffffffffffffff1673ffffffffffffffffffffffffffffffffffffffff168152602001600182015481526020016002820160009054906101000a900460ff1615151515815250509050808383815181106109cc576109cb61177c565b5b60200260200101819052505080806109e3906117da565b9150506108c2565b508091505090565b600260008273ffffffffffffffffffffffffffffffffffffffff1673ffffffffffffffffffffffffffffffffffffffff16815260200190815260200160002060090160405180606001604052803373ffffffffffffffffffffffffffffffffffffffff16815260200184815260200160001515815250908060018154018082558091505060019003906000526020600020906003020160009091909190915060008201518160000160006101000a81548173ffffffffffffffffffffffffffffffffffffffff021916908373ffffffffffffffffffffffffffffffffffffffff1602179055506020820151816001015560408201518160020160006101000a81548160ff0219169083151502179055505050600080815480929190610b17906117da565b91905055505050565b6001600260003373ffffffffffffffffffffffffffffffffffffffff1673ffffffffffffffffffffffffffffffffffffffff1681526020019081526020016000206009018281548110610b7657610b7561177c565b5b906000526020600020906003020160020160006101000a81548160ff02191690831515021790555050565b88600260003373ffffffffffffffffffffffffffffffffffffffff1673ffffffffffffffffffffffffffffffffffffffff1681526020019081526020016000206000019081610bf091906119ce565b5087600260003373ffffffffffffffffffffffffffffffffffffffff1673ffffffffffffffffffffffffffffffffffffffff1681526020019081526020016000206001019081610c4091906119ce565b5086600260003373ffffffffffffffffffffffffffffffffffffffff1673ffffffffffffffffffffffffffffffffffffffff1681526020019081526020016000206002019081610c9091906119ce565b5085600260003373ffffffffffffffffffffffffffffffffffffffff1673ffffffffffffffffffffffffffffffffffffffff1681526020019081526020016000206003019081610ce091906119ce565b5084600260003373ffffffffffffffffffffffffffffffffffffffff1673ffffffffffffffffffffffffffffffffffffffff1681526020019081526020016000206004019081610d3091906119ce565b5083600260003373ffffffffffffffffffffffffffffffffffffffff1673ffffffffffffffffffffffffffffffffffffffff1681526020019081526020016000206005019081610d8091906119ce565b5082600260003373ffffffffffffffffffffffffffffffffffffffff1673ffffffffffffffffffffffffffffffffffffffff1681526020019081526020016000206007019081610dd091906119ce565b5081600260003373ffffffffffffffffffffffffffffffffffffffff1673ffffffffffffffffffffffffffffffffffffffff1681526020019081526020016000206006019081610e2091906119ce565b5080600260003373ffffffffffffffffffffffffffffffffffffffff1673ffffffffffffffffffffffffffffffffffffffff1681526020019081526020016000206008019081610e7091906119ce565b506001339080600181540180825580915050600190039060005260206000200160009091909190916101000a81548173ffffffffffffffffffffffffffffffffffffffff021916908373ffffffffffffffffffffffffffffffffffffffff1602179055503373ffffffffffffffffffffffffffffffffffffffff167f12dd1fdb34f96398cf236f0a35da33ecf85f9ac9c3f34f46c852c333c0bfe67d8a604051610f1a9190611aa0565b60405180910390a2505050505050505050565b6040518060600160405280600073ffffffffffffffffffffffffffffffffffffffff168152602001600081526020016000151581525090565b600081519050919050565b600082825260208201905092915050565b6000819050602082019050919050565b600073ffffffffffffffffffffffffffffffffffffffff82169050919050565b6000610fbd82610f92565b9050919050565b610fcd81610fb2565b82525050565b6000610fdf8383610fc4565b60208301905092915050565b6000602082019050919050565b600061100382610f66565b61100d8185610f71565b935061101883610f82565b8060005b838110156110495781516110308882610fd3565b975061103b83610feb565b92505060018101905061101c565b5085935050505092915050565b600060208201905081810360008301526110708184610ff8565b905092915050565b6000604051905090565b600080fd5b600080fd5b61109581610fb2565b81146110a057600080fd5b50565b6000813590506110b28161108c565b92915050565b6000602082840312156110ce576110cd611082565b5b60006110dc848285016110a3565b91505092915050565b600081519050919050565b600082825260208201905092915050565b60005b8381101561111f578082015181840152602081019050611104565b60008484015250505050565b6000601f19601f8301169050919050565b6000611147826110e5565b61115181856110f0565b9350611161818560208601611101565b61116a8161112b565b840191505092915050565b6000610120820190508181036000830152611190818c61113c565b905081810360208301526111a4818b61113c565b905081810360408301526111b8818a61113c565b905081810360608301526111cc818961113c565b905081810360808301526111e0818861113c565b905081810360a08301526111f4818761113c565b905081810360c0830152611208818661113c565b905081810360e083015261121c818561113c565b9050818103610100830152611231818461113c565b90509a9950505050505050505050565b600081519050919050565b600082825260208201905092915050565b6000819050602082019050919050565b6000819050919050565b6112808161126d565b82525050565b60008115159050919050565b61129b81611286565b82525050565b6060820160008201516112b76000850182610fc4565b5060208201516112ca6020850182611277565b5060408201516112dd6040850182611292565b50505050565b60006112ef83836112a1565b60608301905092915050565b6000602082019050919050565b600061131382611241565b61131d818561124c565b93506113288361125d565b8060005b8381101561135957815161134088826112e3565b975061134b836112fb565b92505060018101905061132c565b5085935050505092915050565b600060208201905081810360008301526113808184611308565b905092915050565b6113918161126d565b811461139c57600080fd5b50565b6000813590506113ae81611388565b92915050565b600080604083850312156113cb576113ca611082565b5b60006113d98582860161139f565b92505060206113ea858286016110a3565b9150509250929050565b60006020828403121561140a57611409611082565b5b60006114188482850161139f565b91505092915050565b600080fd5b600080fd5b7f4e487b7100000000000000000000000000000000000000000000000000000000600052604160045260246000fd5b6114638261112b565b810181811067ffffffffffffffff821117156114825761148161142b565b5b80604052505050565b6000611495611078565b90506114a1828261145a565b919050565b600067ffffffffffffffff8211156114c1576114c061142b565b5b6114ca8261112b565b9050602081019050919050565b82818337600083830152505050565b60006114f96114f4846114a6565b61148b565b90508281526020810184848401111561151557611514611426565b5b6115208482856114d7565b509392505050565b600082601f83011261153d5761153c611421565b5b813561154d8482602086016114e6565b91505092915050565b60008060008060008060008060006101208a8c03121561157957611578611082565b5b60008a013567ffffffffffffffff81111561159757611596611087565b5b6115a38c828d01611528565b99505060208a013567ffffffffffffffff8111156115c4576115c3611087565b5b6115d08c828d01611528565b98505060408a013567ffffffffffffffff8111156115f1576115f0611087565b5b6115fd8c828d01611528565b97505060608a013567ffffffffffffffff81111561161e5761161d611087565b5b61162a8c828d01611528565b96505060808a013567ffffffffffffffff81111561164b5761164a611087565b5b6116578c828d01611528565b95505060a08a013567ffffffffffffffff81111561167857611677611087565b5b6116848c828d01611528565b94505060c08a013567ffffffffffffffff8111156116a5576116a4611087565b5b6116b18c828d01611528565b93505060e08a013567ffffffffffffffff8111156116d2576116d1611087565b5b6116de8c828d01611528565b9250506101008a013567ffffffffffffffff811115611700576116ff611087565b5b61170c8c828d01611528565b9150509295985092959850929598565b7f4e487b7100000000000000000000000000000000000000000000000000000000600052602260045260246000fd5b6000600282049050600182168061176357607f821691505b6020821081036117765761177561171c565b5b50919050565b7f4e487b7100000000000000000000000000000000000000000000000000000000600052603260045260246000fd5b7f4e487b7100000000000000000000000000000000000000000000000000000000600052601160045260246000fd5b60006117e58261126d565b91507fffffffffffffffffffffffffffffffffffffffffffffffffffffffffffffffff8203611817576118166117ab565b5b600182019050919050565b60008190508160005260206000209050919050565b60006020601f8301049050919050565b600082821b905092915050565b6000600883026118847fffffffffffffffffffffffffffffffffffffffffffffffffffffffffffffffff82611847565b61188e8683611847565b95508019841693508086168417925050509392505050565b6000819050919050565b60006118cb6118c66118c18461126d565b6118a6565b61126d565b9050919050565b6000819050919050565b6118e5836118b0565b6118f96118f1826118d2565b848454611854565b825550505050565b600090565b61190e611901565b6119198184846118dc565b505050565b5b8181101561193d57611932600082611906565b60018101905061191f565b5050565b601f8211156119825761195381611822565b61195c84611837565b8101602085101561196b578190505b61197f61197785611837565b83018261191e565b50505b505050565b600082821c905092915050565b60006119a560001984600802611987565b1980831691505092915050565b60006119be8383611994565b9150826002028217905092915050565b6119d7826110e5565b67ffffffffffffffff8111156119f0576119ef61142b565b5b6119fa825461174b565b611a05828285611941565b600060209050601f831160018114611a385760008415611a26578287015190505b611a3085826119b2565b865550611a98565b601f198416611a4686611822565b60005b82811015611a6e57848901518255600182019150602085019450602081019050611a49565b86831015611a8b5784890151611a87601f891682611994565b8355505b6001600288020188555050505b505050505050565b60006020820190508181036000830152611aba818461113c565b90509291505056fea2646970667358221220d88d06dae432d5d906c26558c13e81134832b1fd5f8d049587bad5fb4e16393464736f6c63430008130033",
  "immutableReferences": {},
  "source": "// SPDX-License-Identifier: MIT\n\npragma solidity >=0.7.0 <0.9.0;\n\ncontract DoctorInfo {\n    struct Appointment {\n        address patient;\n        uint256 appointmentTime;\n        bool isConfirmed;\n    }\n\n    struct Doctor {\n        string name;\n        string designation;\n        string patientCount;\n        string experience;\n        string gender;\n        string rating;\n        string about;\n        string email;\n        string profileImageURL;\n        Appointment[] appointments;\n    }\n    uint appointmentCount = 0;\n\n    address[] docAdd;\n    mapping(address => Doctor) doctors;\n\n    event DoctorRegistration(address indexed doctorAddress, string name);\n\n    function registerDoctor(\n        string memory name,\n        string memory designation,\n        string memory patientCount,\n        string memory experience,\n        string memory gender,\n        string memory rating,\n        string memory email,\n        string memory about,\n        string memory profileImageURL\n    ) public {\n        doctors[msg.sender].name = name;\n        doctors[msg.sender].designation = designation;\n        doctors[msg.sender].patientCount = patientCount;\n        doctors[msg.sender].experience = experience;\n        doctors[msg.sender].gender = gender;\n        doctors[msg.sender].rating = rating;\n        doctors[msg.sender].email = email;\n        doctors[msg.sender].about = about;\n        doctors[msg.sender].profileImageURL = profileImageURL;\n        docAdd.push(msg.sender);\n        emit DoctorRegistration(msg.sender, name);\n    }\n\n    function getDoctorInfo(\n        address doctorAddress\n    )\n        public\n        view\n        returns (\n            string memory name,\n            string memory designation,\n            string memory patientCount,\n            string memory experience,\n            string memory gender,\n            string memory rating,\n            string memory email,\n            string memory about,\n            string memory profileImageURL\n        )\n    {\n        Doctor memory doctor = doctors[doctorAddress];\n        return (\n            doctor.name,\n            doctor.designation,\n            doctor.patientCount,\n            doctor.experience,\n            doctor.gender,\n            doctor.rating,\n            doctor.about,\n            doctor.email,\n            doctor.profileImageURL\n        );\n    }\n\n    function getDoctorAdd() public view returns (address[] memory docAdd_) {\n        docAdd_ = docAdd;\n    }\n\n    function bookAppointment(uint256 _appointmentTime , address docAddress) external {\n        doctors[docAddress].appointments.push(Appointment(msg.sender , _appointmentTime , false));\n        appointmentCount++;\n    }\n\n    function appointmentConfirmed(uint256 index) public{\n        doctors[msg.sender].appointments[index].isConfirmed = true;\n    }\n\n    function getAppointments() public view returns (Appointment[] memory){\n        Appointment[] memory tempAppointment = new Appointment[](appointmentCount);\n        for(uint i = 0 ; i<appointmentCount ; i++){\n            Appointment memory tempappointment = doctors[msg.sender].appointments[i];\n            tempAppointment[i] = tempappointment;\n        }\n        return tempAppointment;\n    }\n}",
  "sourcePath": "/Users/ishajasani/Desktop/FLUJECTS/GFG_TECHIE TWINS/Techie-Twins/techie_twins/contracts/DoctorInfo.sol",
  "compiler": {
    "name": "solc",
    "version": "0.8.19+commit.7dd6d404.Emscripten.clang"
  },
  "schemaVersion": "3.4.13",
  "updatedAt": "2023-05-24T11:42:58.699Z",
  "networkType": "ethereum",
  "devdoc": {
    "kind": "dev",
    "methods": {},
    "version": 1
  },
  "userdoc": {
    "kind": "user",
    "methods": {},
    "version": 1
  }
}