{
  "contractName": "DoctorInfo",
  "abi": [
    {
      "anonymous": false,
      "inputs": [
        {
          "indexed": true,
          "internalType": "address",
          "name": "doctorAddress",
          "type": "address"
        },
        {
          "indexed": false,
          "internalType": "string",
          "name": "name",
          "type": "string"
        }
      ],
      "name": "DoctorRegistration",
      "type": "event"
    },
    {
      "inputs": [
        {
          "internalType": "string",
          "name": "name",
          "type": "string"
        },
        {
          "internalType": "string",
          "name": "designation",
          "type": "string"
        },
        {
          "internalType": "string",
          "name": "patientCount",
          "type": "string"
        },
        {
          "internalType": "string",
          "name": "experience",
          "type": "string"
        },
        {
          "internalType": "string",
          "name": "gender",
          "type": "string"
        },
        {
          "internalType": "string",
          "name": "rating",
          "type": "string"
        },
        {
          "internalType": "string",
          "name": "email",
          "type": "string"
        },
        {
          "internalType": "string",
          "name": "about",
          "type": "string"
        },
        {
          "internalType": "string",
          "name": "profileImageURL",
          "type": "string"
        }
      ],
      "name": "registerDoctor",
      "outputs": [],
      "stateMutability": "nonpayable",
      "type": "function"
    },
    {
      "inputs": [
        {
          "internalType": "address",
          "name": "doctorAddress",
          "type": "address"
        }
      ],
      "name": "getDoctorInfo",
      "outputs": [
        {
          "internalType": "string",
          "name": "name",
          "type": "string"
        },
        {
          "internalType": "string",
          "name": "designation",
          "type": "string"
        },
        {
          "internalType": "string",
          "name": "patientCount",
          "type": "string"
        },
        {
          "internalType": "string",
          "name": "experience",
          "type": "string"
        },
        {
          "internalType": "string",
          "name": "gender",
          "type": "string"
        },
        {
          "internalType": "string",
          "name": "rating",
          "type": "string"
        },
        {
          "internalType": "string",
          "name": "email",
          "type": "string"
        },
        {
          "internalType": "string",
          "name": "about",
          "type": "string"
        },
        {
          "internalType": "string",
          "name": "profileImageURL",
          "type": "string"
        }
      ],
      "stateMutability": "view",
      "type": "function",
      "constant": true
    },
    {
      "inputs": [],
      "name": "getDoctorAdd",
      "outputs": [
        {
          "internalType": "address[]",
          "name": "docAdd_",
          "type": "address[]"
        }
      ],
      "stateMutability": "view",
      "type": "function",
      "constant": true
    },
    {
      "inputs": [
        {
          "internalType": "uint256",
          "name": "_appointmentTime",
          "type": "uint256"
        },
        {
          "internalType": "address",
          "name": "docAddress",
          "type": "address"
        },
        {
          "internalType": "address",
          "name": "patientAddress",
          "type": "address"
        },
        {
          "internalType": "string",
          "name": "meetingLink",
          "type": "string"
        }
      ],
      "name": "bookAppointment",
      "outputs": [],
      "stateMutability": "nonpayable",
      "type": "function"
    },
    {
      "inputs": [
        {
          "internalType": "uint256",
          "name": "index",
          "type": "uint256"
        },
        {
          "internalType": "address",
          "name": "doctorAddress",
          "type": "address"
        }
      ],
      "name": "appointmentConfirmed",
      "outputs": [],
      "stateMutability": "nonpayable",
      "type": "function"
    },
    {
      "inputs": [
        {
          "internalType": "uint256",
          "name": "index",
          "type": "uint256"
        },
        {
          "internalType": "address",
          "name": "doctorAddress",
          "type": "address"
        }
      ],
      "name": "declineAppointment",
      "outputs": [],
      "stateMutability": "nonpayable",
      "type": "function"
    },
    {
      "inputs": [
        {
          "internalType": "address",
          "name": "docaddress_",
          "type": "address"
        }
      ],
      "name": "getAppointments",
      "outputs": [
        {
          "components": [
            {
              "internalType": "address",
              "name": "patient",
              "type": "address"
            },
            {
              "internalType": "uint256",
              "name": "appointmentTime",
              "type": "uint256"
            },
            {
              "internalType": "bool",
              "name": "isConfirmed",
              "type": "bool"
            },
            {
              "internalType": "string",
              "name": "meetingLink",
              "type": "string"
            }
          ],
          "internalType": "struct DoctorInfo.Appointment[]",
          "name": "",
          "type": "tuple[]"
        }
      ],
      "stateMutability": "view",
      "type": "function",
      "constant": true
    },
    {
      "inputs": [
        {
          "internalType": "uint256",
          "name": "index",
          "type": "uint256"
        },
        {
          "internalType": "address",
          "name": "doctorAddress",
          "type": "address"
        }
      ],
      "name": "getMeetingLink",
      "outputs": [
        {
          "internalType": "string",
          "name": "",
          "type": "string"
        }
      ],
      "stateMutability": "view",
      "type": "function",
      "constant": true
    }
  ],
  "bytecode": "0x60806040526000805534801561001457600080fd5b50611ef8806100246000396000f3fe608060405234801561001057600080fd5b50600436106100885760003560e01c80632f5c59561161005b5780632f5c5956146101135780636f12fc351461012f5780637b75cfb614610167578063e75bdb2a1461019757610088565b80630ab2fa2d1461008d57806329d5e7b6146100ab5780632c053901146100db5780632ee6fe3a146100f7575b600080fd5b6100956101b3565b6040516100a29190611382565b60405180910390f35b6100c560048036038101906100c0919061141a565b610241565b6040516100d291906114ea565b60405180910390f35b6100f560048036038101906100f09190611641565b610339565b005b610111600480360381019061010c919061141a565b610484565b005b61012d6004803603810190610128919061141a565b610506565b005b610149600480360381019061014491906116c4565b6105c2565b60405161015e999897969594939291906116f1565b60405180910390f35b610181600480360381019061017c91906116c4565b610cfb565b60405161018e9190611956565b60405180910390f35b6101b160048036038101906101ac9190611978565b610ea9565b005b6060600180548060200260200160405190810160405280929190818152602001828054801561023757602002820191906000526020600020905b8160009054906101000a900473ffffffffffffffffffffffffffffffffffffffff1673ffffffffffffffffffffffffffffffffffffffff16815260200190600101908083116101ed575b5050505050905090565b6060600260008373ffffffffffffffffffffffffffffffffffffffff1673ffffffffffffffffffffffffffffffffffffffff168152602001908152602001600020600901838154811061029757610296611b3e565b5b906000526020600020906004020160030180546102b390611b9c565b80601f01602080910402602001604051908101604052809291908181526020018280546102df90611b9c565b801561032c5780601f106103015761010080835404028352916020019161032c565b820191906000526020600020905b81548152906001019060200180831161030f57829003601f168201915b5050505050905092915050565b600260008473ffffffffffffffffffffffffffffffffffffffff1673ffffffffffffffffffffffffffffffffffffffff16815260200190815260200160002060090160405180608001604052808473ffffffffffffffffffffffffffffffffffffffff16815260200186815260200160001515815260200183815250908060018154018082558091505060019003906000526020600020906004020160009091909190915060008201518160000160006101000a81548173ffffffffffffffffffffffffffffffffffffffff021916908373ffffffffffffffffffffffffffffffffffffffff1602179055506020820151816001015560408201518160020160006101000a81548160ff02191690831515021790555060608201518160030190816104649190611d79565b50505060008081548092919061047990611e7a565b919050555050505050565b6001600260008373ffffffffffffffffffffffffffffffffffffffff1673ffffffffffffffffffffffffffffffffffffffff16815260200190815260200160002060090183815481106104da576104d9611b3e565b5b906000526020600020906004020160020160006101000a81548160ff0219169083151502179055505050565b600260008273ffffffffffffffffffffffffffffffffffffffff1673ffffffffffffffffffffffffffffffffffffffff168152602001908152602001600020600901828154811061055a57610559611b3e565b5b9060005260206000209060040201600080820160006101000a81549073ffffffffffffffffffffffffffffffffffffffff021916905560018201600090556002820160006101000a81549060ff02191690556003820160006105bc9190611235565b50505050565b60608060608060608060608060606000600260008c73ffffffffffffffffffffffffffffffffffffffff1673ffffffffffffffffffffffffffffffffffffffff1681526020019081526020016000206040518061014001604052908160008201805461062d90611b9c565b80601f016020809104026020016040519081016040528092919081815260200182805461065990611b9c565b80156106a65780601f1061067b576101008083540402835291602001916106a6565b820191906000526020600020905b81548152906001019060200180831161068957829003601f168201915b505050505081526020016001820180546106bf90611b9c565b80601f01602080910402602001604051908101604052809291908181526020018280546106eb90611b9c565b80156107385780601f1061070d57610100808354040283529160200191610738565b820191906000526020600020905b81548152906001019060200180831161071b57829003601f168201915b5050505050815260200160028201805461075190611b9c565b80601f016020809104026020016040519081016040528092919081815260200182805461077d90611b9c565b80156107ca5780601f1061079f576101008083540402835291602001916107ca565b820191906000526020600020905b8154815290600101906020018083116107ad57829003601f168201915b505050505081526020016003820180546107e390611b9c565b80601f016020809104026020016040519081016040528092919081815260200182805461080f90611b9c565b801561085c5780601f106108315761010080835404028352916020019161085c565b820191906000526020600020905b81548152906001019060200180831161083f57829003601f168201915b5050505050815260200160048201805461087590611b9c565b80601f01602080910402602001604051908101604052809291908181526020018280546108a190611b9c565b80156108ee5780601f106108c3576101008083540402835291602001916108ee565b820191906000526020600020905b8154815290600101906020018083116108d157829003601f168201915b5050505050815260200160058201805461090790611b9c565b80601f016020809104026020016040519081016040528092919081815260200182805461093390611b9c565b80156109805780601f1061095557610100808354040283529160200191610980565b820191906000526020600020905b81548152906001019060200180831161096357829003601f168201915b5050505050815260200160068201805461099990611b9c565b80601f01602080910402602001604051908101604052809291908181526020018280546109c590611b9c565b8015610a125780601f106109e757610100808354040283529160200191610a12565b820191906000526020600020905b8154815290600101906020018083116109f557829003601f168201915b50505050508152602001600782018054610a2b90611b9c565b80601f0160208091040260200160405190810160405280929190818152602001828054610a5790611b9c565b8015610aa45780601f10610a7957610100808354040283529160200191610aa4565b820191906000526020600020905b815481529060010190602001808311610a8757829003601f168201915b50505050508152602001600882018054610abd90611b9c565b80601f0160208091040260200160405190810160405280929190818152602001828054610ae990611b9c565b8015610b365780601f10610b0b57610100808354040283529160200191610b36565b820191906000526020600020905b815481529060010190602001808311610b1957829003601f168201915b5050505050815260200160098201805480602002602001604051908101604052809291908181526020016000905b82821015610ca357838290600052602060002090600402016040518060800160405290816000820160009054906101000a900473ffffffffffffffffffffffffffffffffffffffff1673ffffffffffffffffffffffffffffffffffffffff1673ffffffffffffffffffffffffffffffffffffffff168152602001600182015481526020016002820160009054906101000a900460ff16151515158152602001600382018054610c1290611b9c565b80601f0160208091040260200160405190810160405280929190818152602001828054610c3e90611b9c565b8015610c8b5780601f10610c6057610100808354040283529160200191610c8b565b820191906000526020600020905b815481529060010190602001808311610c6e57829003601f168201915b50505050508152505081526020019060010190610b64565b50505050815250509050806000015181602001518260400151836060015184608001518560a001518660c001518760e00151886101000151995099509950995099509950995099509950509193959799909294969850565b6060600260008373ffffffffffffffffffffffffffffffffffffffff1673ffffffffffffffffffffffffffffffffffffffff168152602001908152602001600020600901805480602002602001604051908101604052809291908181526020016000905b82821015610e9e57838290600052602060002090600402016040518060800160405290816000820160009054906101000a900473ffffffffffffffffffffffffffffffffffffffff1673ffffffffffffffffffffffffffffffffffffffff1673ffffffffffffffffffffffffffffffffffffffff168152602001600182015481526020016002820160009054906101000a900460ff16151515158152602001600382018054610e0d90611b9c565b80601f0160208091040260200160405190810160405280929190818152602001828054610e3990611b9c565b8015610e865780601f10610e5b57610100808354040283529160200191610e86565b820191906000526020600020905b815481529060010190602001808311610e6957829003601f168201915b50505050508152505081526020019060010190610d5f565b505050509050919050565b88600260003373ffffffffffffffffffffffffffffffffffffffff1673ffffffffffffffffffffffffffffffffffffffff1681526020019081526020016000206000019081610ef89190611d79565b5087600260003373ffffffffffffffffffffffffffffffffffffffff1673ffffffffffffffffffffffffffffffffffffffff1681526020019081526020016000206001019081610f489190611d79565b5086600260003373ffffffffffffffffffffffffffffffffffffffff1673ffffffffffffffffffffffffffffffffffffffff1681526020019081526020016000206002019081610f989190611d79565b5085600260003373ffffffffffffffffffffffffffffffffffffffff1673ffffffffffffffffffffffffffffffffffffffff1681526020019081526020016000206003019081610fe89190611d79565b5084600260003373ffffffffffffffffffffffffffffffffffffffff1673ffffffffffffffffffffffffffffffffffffffff16815260200190815260200160002060040190816110389190611d79565b5083600260003373ffffffffffffffffffffffffffffffffffffffff1673ffffffffffffffffffffffffffffffffffffffff16815260200190815260200160002060050190816110889190611d79565b5082600260003373ffffffffffffffffffffffffffffffffffffffff1673ffffffffffffffffffffffffffffffffffffffff16815260200190815260200160002060070190816110d89190611d79565b5081600260003373ffffffffffffffffffffffffffffffffffffffff1673ffffffffffffffffffffffffffffffffffffffff16815260200190815260200160002060060190816111289190611d79565b5080600260003373ffffffffffffffffffffffffffffffffffffffff1673ffffffffffffffffffffffffffffffffffffffff16815260200190815260200160002060080190816111789190611d79565b506001339080600181540180825580915050600190039060005260206000200160009091909190916101000a81548173ffffffffffffffffffffffffffffffffffffffff021916908373ffffffffffffffffffffffffffffffffffffffff1602179055503373ffffffffffffffffffffffffffffffffffffffff167f12dd1fdb34f96398cf236f0a35da33ecf85f9ac9c3f34f46c852c333c0bfe67d8a60405161122291906114ea565b60405180910390a2505050505050505050565b50805461124190611b9c565b6000825580601f106112535750611272565b601f0160209004906000526020600020908101906112719190611275565b5b50565b5b8082111561128e576000816000905550600101611276565b5090565b600081519050919050565b600082825260208201905092915050565b6000819050602082019050919050565b600073ffffffffffffffffffffffffffffffffffffffff82169050919050565b60006112e9826112be565b9050919050565b6112f9816112de565b82525050565b600061130b83836112f0565b60208301905092915050565b6000602082019050919050565b600061132f82611292565b611339818561129d565b9350611344836112ae565b8060005b8381101561137557815161135c88826112ff565b975061136783611317565b925050600181019050611348565b5085935050505092915050565b6000602082019050818103600083015261139c8184611324565b905092915050565b6000604051905090565b600080fd5b600080fd5b6000819050919050565b6113cb816113b8565b81146113d657600080fd5b50565b6000813590506113e8816113c2565b92915050565b6113f7816112de565b811461140257600080fd5b50565b600081359050611414816113ee565b92915050565b60008060408385031215611431576114306113ae565b5b600061143f858286016113d9565b925050602061145085828601611405565b9150509250929050565b600081519050919050565b600082825260208201905092915050565b60005b83811015611494578082015181840152602081019050611479565b60008484015250505050565b6000601f19601f8301169050919050565b60006114bc8261145a565b6114c68185611465565b93506114d6818560208601611476565b6114df816114a0565b840191505092915050565b6000602082019050818103600083015261150481846114b1565b905092915050565b600080fd5b600080fd5b7f4e487b7100000000000000000000000000000000000000000000000000000000600052604160045260246000fd5b61154e826114a0565b810181811067ffffffffffffffff8211171561156d5761156c611516565b5b80604052505050565b60006115806113a4565b905061158c8282611545565b919050565b600067ffffffffffffffff8211156115ac576115ab611516565b5b6115b5826114a0565b9050602081019050919050565b82818337600083830152505050565b60006115e46115df84611591565b611576565b905082815260208101848484011115611600576115ff611511565b5b61160b8482856115c2565b509392505050565b600082601f8301126116285761162761150c565b5b81356116388482602086016115d1565b91505092915050565b6000806000806080858703121561165b5761165a6113ae565b5b6000611669878288016113d9565b945050602061167a87828801611405565b935050604061168b87828801611405565b925050606085013567ffffffffffffffff8111156116ac576116ab6113b3565b5b6116b887828801611613565b91505092959194509250565b6000602082840312156116da576116d96113ae565b5b60006116e884828501611405565b91505092915050565b600061012082019050818103600083015261170c818c6114b1565b90508181036020830152611720818b6114b1565b90508181036040830152611734818a6114b1565b9050818103606083015261174881896114b1565b9050818103608083015261175c81886114b1565b905081810360a083015261177081876114b1565b905081810360c083015261178481866114b1565b905081810360e083015261179881856114b1565b90508181036101008301526117ad81846114b1565b90509a9950505050505050505050565b600081519050919050565b600082825260208201905092915050565b6000819050602082019050919050565b6117f2816113b8565b82525050565b60008115159050919050565b61180d816117f8565b82525050565b600082825260208201905092915050565b600061182f8261145a565b6118398185611813565b9350611849818560208601611476565b611852816114a0565b840191505092915050565b600060808301600083015161187560008601826112f0565b50602083015161188860208601826117e9565b50604083015161189b6040860182611804565b50606083015184820360608601526118b38282611824565b9150508091505092915050565b60006118cc838361185d565b905092915050565b6000602082019050919050565b60006118ec826117bd565b6118f681856117c8565b935083602082028501611908856117d9565b8060005b85811015611944578484038952815161192585826118c0565b9450611930836118d4565b925060208a0199505060018101905061190c565b50829750879550505050505092915050565b6000602082019050818103600083015261197081846118e1565b905092915050565b60008060008060008060008060006101208a8c03121561199b5761199a6113ae565b5b60008a013567ffffffffffffffff8111156119b9576119b86113b3565b5b6119c58c828d01611613565b99505060208a013567ffffffffffffffff8111156119e6576119e56113b3565b5b6119f28c828d01611613565b98505060408a013567ffffffffffffffff811115611a1357611a126113b3565b5b611a1f8c828d01611613565b97505060608a013567ffffffffffffffff811115611a4057611a3f6113b3565b5b611a4c8c828d01611613565b96505060808a013567ffffffffffffffff811115611a6d57611a6c6113b3565b5b611a798c828d01611613565b95505060a08a013567ffffffffffffffff811115611a9a57611a996113b3565b5b611aa68c828d01611613565b94505060c08a013567ffffffffffffffff811115611ac757611ac66113b3565b5b611ad38c828d01611613565b93505060e08a013567ffffffffffffffff811115611af457611af36113b3565b5b611b008c828d01611613565b9250506101008a013567ffffffffffffffff811115611b2257611b216113b3565b5b611b2e8c828d01611613565b9150509295985092959850929598565b7f4e487b7100000000000000000000000000000000000000000000000000000000600052603260045260246000fd5b7f4e487b7100000000000000000000000000000000000000000000000000000000600052602260045260246000fd5b60006002820490506001821680611bb457607f821691505b602082108103611bc757611bc6611b6d565b5b50919050565b60008190508160005260206000209050919050565b60006020601f8301049050919050565b600082821b905092915050565b600060088302611c2f7fffffffffffffffffffffffffffffffffffffffffffffffffffffffffffffffff82611bf2565b611c398683611bf2565b95508019841693508086168417925050509392505050565b6000819050919050565b6000611c76611c71611c6c846113b8565b611c51565b6113b8565b9050919050565b6000819050919050565b611c9083611c5b565b611ca4611c9c82611c7d565b848454611bff565b825550505050565b600090565b611cb9611cac565b611cc4818484611c87565b505050565b5b81811015611ce857611cdd600082611cb1565b600181019050611cca565b5050565b601f821115611d2d57611cfe81611bcd565b611d0784611be2565b81016020851015611d16578190505b611d2a611d2285611be2565b830182611cc9565b50505b505050565b600082821c905092915050565b6000611d5060001984600802611d32565b1980831691505092915050565b6000611d698383611d3f565b9150826002028217905092915050565b611d828261145a565b67ffffffffffffffff811115611d9b57611d9a611516565b5b611da58254611b9c565b611db0828285611cec565b600060209050601f831160018114611de35760008415611dd1578287015190505b611ddb8582611d5d565b865550611e43565b601f198416611df186611bcd565b60005b82811015611e1957848901518255600182019150602085019450602081019050611df4565b86831015611e365784890151611e32601f891682611d3f565b8355505b6001600288020188555050505b505050505050565b7f4e487b7100000000000000000000000000000000000000000000000000000000600052601160045260246000fd5b6000611e85826113b8565b91507fffffffffffffffffffffffffffffffffffffffffffffffffffffffffffffffff8203611eb757611eb6611e4b565b5b60018201905091905056fea2646970667358221220c9f9b21b780a1afafe728b8ac7c520bc0ff11ba44226117355189af2b32592e564736f6c63430008130033",
  "immutableReferences": {},
  "source": "// SPDX-License-Identifier: MIT\n\npragma solidity >=0.7.0 <0.9.0;\n\ncontract DoctorInfo {\n    struct Appointment {\n        address patient;\n        uint256 appointmentTime;\n        bool isConfirmed;\n        string meetingLink;\n    }\n\n    struct Doctor {\n        string name;\n        string designation;\n        string patientCount;\n        string experience;\n        string gender;\n        string rating;\n        string about;\n        string email;\n        string profileImageURL;\n        Appointment[] appointments;\n    }\n    uint appointmentCount = 0;\n\n    address[] docAdd;\n    mapping(address => Doctor) doctors;\n\n    event DoctorRegistration(address indexed doctorAddress, string name);\n\n    function registerDoctor(\n        string memory name,\n        string memory designation,\n        string memory patientCount,\n        string memory experience,\n        string memory gender,\n        string memory rating,\n        string memory email,\n        string memory about,\n        string memory profileImageURL\n    ) public {\n        doctors[msg.sender].name = name;\n        doctors[msg.sender].designation = designation;\n        doctors[msg.sender].patientCount = patientCount;\n        doctors[msg.sender].experience = experience;\n        doctors[msg.sender].gender = gender;\n        doctors[msg.sender].rating = rating;\n        doctors[msg.sender].email = email;\n        doctors[msg.sender].about = about;\n        doctors[msg.sender].profileImageURL = profileImageURL;\n        docAdd.push(msg.sender);\n        emit DoctorRegistration(msg.sender, name);\n    }\n\n    function getDoctorInfo(\n        address doctorAddress\n    )\n        public\n        view\n        returns (\n            string memory name,\n            string memory designation,\n            string memory patientCount,\n            string memory experience,\n            string memory gender,\n            string memory rating,\n            string memory email,\n            string memory about,\n            string memory profileImageURL\n        )\n    {\n        Doctor memory doctor = doctors[doctorAddress];\n        return (\n            doctor.name,\n            doctor.designation,\n            doctor.patientCount,\n            doctor.experience,\n            doctor.gender,\n            doctor.rating,\n            doctor.about,\n            doctor.email,\n            doctor.profileImageURL\n        );\n    }\n\n    function getDoctorAdd() public view returns (address[] memory docAdd_) {\n        docAdd_ = docAdd;\n    }\n\n    function bookAppointment(\n        uint256 _appointmentTime,\n        address docAddress,\n        address patientAddress,\n        string memory meetingLink\n    ) external {\n        doctors[docAddress].appointments.push(\n            Appointment(patientAddress, _appointmentTime, false , meetingLink)\n        );\n        appointmentCount++;\n    }\n\n    function appointmentConfirmed(uint256 index , address doctorAddress) public {\n        doctors[doctorAddress].appointments[index].isConfirmed = true;\n    }\n\n    function declineAppointment(uint256 index , address doctorAddress) public {\n        delete doctors[doctorAddress].appointments[index];\n    } \n\n    function getAppointments(\n        address docaddress_\n    ) public view returns (Appointment[] memory) {\n        return doctors[docaddress_].appointments;\n    }\n\n    function getMeetingLink(uint256 index,address doctorAddress) public view returns(string memory){\n        return doctors[doctorAddress].appointments[index].meetingLink;\n    }\n}\n",
  "sourcePath": "/Users/mohitgajjar501/Developer/Techie-Twins/techie_twins/contracts/DoctorInfo.sol",
  "compiler": {
    "name": "solc",
    "version": "0.8.19+commit.7dd6d404.Emscripten.clang"
  },
  "schemaVersion": "3.4.14",
  "updatedAt": "2023-07-18T15:46:56.889Z",
  "networkType": "ethereum",
  "devdoc": {
    "kind": "dev",
    "methods": {},
    "version": 1
  },
  "userdoc": {
    "kind": "user",
    "methods": {},
    "version": 1
  }
}