{
  "contractName": "DoctorInfo",
  "abi": [
    {
      "anonymous": false,
      "inputs": [
        {
          "indexed": true,
          "internalType": "address",
          "name": "doctorAddress",
          "type": "address"
        },
        {
          "indexed": false,
          "internalType": "string",
          "name": "name",
          "type": "string"
        }
      ],
      "name": "DoctorRegistration",
      "type": "event"
    },
    {
      "inputs": [
        {
          "internalType": "string",
          "name": "name",
          "type": "string"
        },
        {
          "internalType": "string",
          "name": "designation",
          "type": "string"
        },
        {
          "internalType": "string",
          "name": "patientCount",
          "type": "string"
        },
        {
          "internalType": "string",
          "name": "experience",
          "type": "string"
        },
        {
          "internalType": "string",
          "name": "gender",
          "type": "string"
        },
        {
          "internalType": "string",
          "name": "rating",
          "type": "string"
        },
        {
          "internalType": "string",
          "name": "email",
          "type": "string"
        },
        {
          "internalType": "string",
          "name": "about",
          "type": "string"
        },
        {
          "internalType": "string",
          "name": "profileImageURL",
          "type": "string"
        }
      ],
      "name": "registerDoctor",
      "outputs": [],
      "stateMutability": "nonpayable",
      "type": "function"
    },
    {
      "inputs": [
        {
          "internalType": "address",
          "name": "doctorAddress",
          "type": "address"
        }
      ],
      "name": "getDoctorInfo",
      "outputs": [
        {
          "internalType": "string",
          "name": "name",
          "type": "string"
        },
        {
          "internalType": "string",
          "name": "designation",
          "type": "string"
        },
        {
          "internalType": "string",
          "name": "patientCount",
          "type": "string"
        },
        {
          "internalType": "string",
          "name": "experience",
          "type": "string"
        },
        {
          "internalType": "string",
          "name": "gender",
          "type": "string"
        },
        {
          "internalType": "string",
          "name": "rating",
          "type": "string"
        },
        {
          "internalType": "string",
          "name": "email",
          "type": "string"
        },
        {
          "internalType": "string",
          "name": "about",
          "type": "string"
        },
        {
          "internalType": "string",
          "name": "profileImageURL",
          "type": "string"
        }
      ],
      "stateMutability": "view",
      "type": "function",
      "constant": true
    },
    {
      "inputs": [],
      "name": "getDoctorAdd",
      "outputs": [
        {
          "internalType": "address[]",
          "name": "docAdd_",
          "type": "address[]"
        }
      ],
      "stateMutability": "view",
      "type": "function",
      "constant": true
    },
    {
      "inputs": [
        {
          "internalType": "uint256",
          "name": "_appointmentTime",
          "type": "uint256"
        },
        {
          "internalType": "address",
          "name": "docAddress",
          "type": "address"
        }
      ],
      "name": "bookAppointment",
      "outputs": [],
      "stateMutability": "nonpayable",
      "type": "function"
    },
    {
      "inputs": [
        {
          "internalType": "uint256",
          "name": "index",
          "type": "uint256"
        }
      ],
      "name": "appointmentConfirmed",
      "outputs": [],
      "stateMutability": "nonpayable",
      "type": "function"
    },
    {
      "inputs": [
        {
          "internalType": "address",
          "name": "docaddress_",
          "type": "address"
        }
      ],
      "name": "getAppointments",
      "outputs": [
        {
          "components": [
            {
              "internalType": "address",
              "name": "patient",
              "type": "address"
            },
            {
              "internalType": "uint256",
              "name": "appointmentTime",
              "type": "uint256"
            },
            {
              "internalType": "bool",
              "name": "isConfirmed",
              "type": "bool"
            }
          ],
          "internalType": "struct DoctorInfo.Appointment[]",
          "name": "",
          "type": "tuple[]"
        }
      ],
      "stateMutability": "view",
      "type": "function",
      "constant": true
    }
  ],
  "bytecode": "0x60806040526000805534801561001457600080fd5b50611a5e806100246000396000f3fe608060405234801561001057600080fd5b50600436106100625760003560e01c80630ab2fa2d146100675780636f12fc35146100855780637b75cfb6146100bd578063adee9528146100ed578063b37810cf14610109578063e75bdb2a14610125575b600080fd5b61006f610141565b60405161007c9190610fbc565b60405180910390f35b61009f600480360381019061009a919061101e565b6101cf565b6040516100b4999897969594939291906110db565b60405180910390f35b6100d760048036038101906100d2919061101e565b610876565b6040516100e491906112cc565b60405180910390f35b6101076004803603810190610102919061131a565b610992565b005b610123600480360381019061011e919061135a565b610abf565b005b61013f600480360381019061013a91906114bc565b610b40565b005b606060018054806020026020016040519081016040528092919081815260200182805480156101c557602002820191906000526020600020905b8160009054906101000a900473ffffffffffffffffffffffffffffffffffffffff1673ffffffffffffffffffffffffffffffffffffffff168152602001906001019080831161017b575b5050505050905090565b60608060608060608060608060606000600260008c73ffffffffffffffffffffffffffffffffffffffff1673ffffffffffffffffffffffffffffffffffffffff1681526020019081526020016000206040518061014001604052908160008201805461023a906116b1565b80601f0160208091040260200160405190810160405280929190818152602001828054610266906116b1565b80156102b35780601f10610288576101008083540402835291602001916102b3565b820191906000526020600020905b81548152906001019060200180831161029657829003601f168201915b505050505081526020016001820180546102cc906116b1565b80601f01602080910402602001604051908101604052809291908181526020018280546102f8906116b1565b80156103455780601f1061031a57610100808354040283529160200191610345565b820191906000526020600020905b81548152906001019060200180831161032857829003601f168201915b5050505050815260200160028201805461035e906116b1565b80601f016020809104026020016040519081016040528092919081815260200182805461038a906116b1565b80156103d75780601f106103ac576101008083540402835291602001916103d7565b820191906000526020600020905b8154815290600101906020018083116103ba57829003601f168201915b505050505081526020016003820180546103f0906116b1565b80601f016020809104026020016040519081016040528092919081815260200182805461041c906116b1565b80156104695780601f1061043e57610100808354040283529160200191610469565b820191906000526020600020905b81548152906001019060200180831161044c57829003601f168201915b50505050508152602001600482018054610482906116b1565b80601f01602080910402602001604051908101604052809291908181526020018280546104ae906116b1565b80156104fb5780601f106104d0576101008083540402835291602001916104fb565b820191906000526020600020905b8154815290600101906020018083116104de57829003601f168201915b50505050508152602001600582018054610514906116b1565b80601f0160208091040260200160405190810160405280929190818152602001828054610540906116b1565b801561058d5780601f106105625761010080835404028352916020019161058d565b820191906000526020600020905b81548152906001019060200180831161057057829003601f168201915b505050505081526020016006820180546105a6906116b1565b80601f01602080910402602001604051908101604052809291908181526020018280546105d2906116b1565b801561061f5780601f106105f45761010080835404028352916020019161061f565b820191906000526020600020905b81548152906001019060200180831161060257829003601f168201915b50505050508152602001600782018054610638906116b1565b80601f0160208091040260200160405190810160405280929190818152602001828054610664906116b1565b80156106b15780601f10610686576101008083540402835291602001916106b1565b820191906000526020600020905b81548152906001019060200180831161069457829003601f168201915b505050505081526020016008820180546106ca906116b1565b80601f01602080910402602001604051908101604052809291908181526020018280546106f6906116b1565b80156107435780601f1061071857610100808354040283529160200191610743565b820191906000526020600020905b81548152906001019060200180831161072657829003601f168201915b5050505050815260200160098201805480602002602001604051908101604052809291908181526020016000905b8282101561081e57838290600052602060002090600302016040518060600160405290816000820160009054906101000a900473ffffffffffffffffffffffffffffffffffffffff1673ffffffffffffffffffffffffffffffffffffffff1673ffffffffffffffffffffffffffffffffffffffff168152602001600182015481526020016002820160009054906101000a900460ff16151515158152505081526020019060010190610771565b50505050815250509050806000015181602001518260400151836060015184608001518560a001518660c001518760e00151886101000151995099509950995099509950995099509950509193959799909294969850565b6060600260008373ffffffffffffffffffffffffffffffffffffffff1673ffffffffffffffffffffffffffffffffffffffff168152602001908152602001600020600901805480602002602001604051908101604052809291908181526020016000905b8282101561098757838290600052602060002090600302016040518060600160405290816000820160009054906101000a900473ffffffffffffffffffffffffffffffffffffffff1673ffffffffffffffffffffffffffffffffffffffff1673ffffffffffffffffffffffffffffffffffffffff168152602001600182015481526020016002820160009054906101000a900460ff161515151581525050815260200190600101906108da565b505050509050919050565b600260008273ffffffffffffffffffffffffffffffffffffffff1673ffffffffffffffffffffffffffffffffffffffff16815260200190815260200160002060090160405180606001604052803373ffffffffffffffffffffffffffffffffffffffff16815260200184815260200160001515815250908060018154018082558091505060019003906000526020600020906003020160009091909190915060008201518160000160006101000a81548173ffffffffffffffffffffffffffffffffffffffff021916908373ffffffffffffffffffffffffffffffffffffffff1602179055506020820151816001015560408201518160020160006101000a81548160ff0219169083151502179055505050600080815480929190610ab690611711565b91905055505050565b6001600260003373ffffffffffffffffffffffffffffffffffffffff1673ffffffffffffffffffffffffffffffffffffffff1681526020019081526020016000206009018281548110610b1557610b14611759565b5b906000526020600020906003020160020160006101000a81548160ff02191690831515021790555050565b88600260003373ffffffffffffffffffffffffffffffffffffffff1673ffffffffffffffffffffffffffffffffffffffff1681526020019081526020016000206000019081610b8f9190611934565b5087600260003373ffffffffffffffffffffffffffffffffffffffff1673ffffffffffffffffffffffffffffffffffffffff1681526020019081526020016000206001019081610bdf9190611934565b5086600260003373ffffffffffffffffffffffffffffffffffffffff1673ffffffffffffffffffffffffffffffffffffffff1681526020019081526020016000206002019081610c2f9190611934565b5085600260003373ffffffffffffffffffffffffffffffffffffffff1673ffffffffffffffffffffffffffffffffffffffff1681526020019081526020016000206003019081610c7f9190611934565b5084600260003373ffffffffffffffffffffffffffffffffffffffff1673ffffffffffffffffffffffffffffffffffffffff1681526020019081526020016000206004019081610ccf9190611934565b5083600260003373ffffffffffffffffffffffffffffffffffffffff1673ffffffffffffffffffffffffffffffffffffffff1681526020019081526020016000206005019081610d1f9190611934565b5082600260003373ffffffffffffffffffffffffffffffffffffffff1673ffffffffffffffffffffffffffffffffffffffff1681526020019081526020016000206007019081610d6f9190611934565b5081600260003373ffffffffffffffffffffffffffffffffffffffff1673ffffffffffffffffffffffffffffffffffffffff1681526020019081526020016000206006019081610dbf9190611934565b5080600260003373ffffffffffffffffffffffffffffffffffffffff1673ffffffffffffffffffffffffffffffffffffffff1681526020019081526020016000206008019081610e0f9190611934565b506001339080600181540180825580915050600190039060005260206000200160009091909190916101000a81548173ffffffffffffffffffffffffffffffffffffffff021916908373ffffffffffffffffffffffffffffffffffffffff1602179055503373ffffffffffffffffffffffffffffffffffffffff167f12dd1fdb34f96398cf236f0a35da33ecf85f9ac9c3f34f46c852c333c0bfe67d8a604051610eb99190611a06565b60405180910390a2505050505050505050565b600081519050919050565b600082825260208201905092915050565b6000819050602082019050919050565b600073ffffffffffffffffffffffffffffffffffffffff82169050919050565b6000610f2382610ef8565b9050919050565b610f3381610f18565b82525050565b6000610f458383610f2a565b60208301905092915050565b6000602082019050919050565b6000610f6982610ecc565b610f738185610ed7565b9350610f7e83610ee8565b8060005b83811015610faf578151610f968882610f39565b9750610fa183610f51565b925050600181019050610f82565b5085935050505092915050565b60006020820190508181036000830152610fd68184610f5e565b905092915050565b6000604051905090565b600080fd5b600080fd5b610ffb81610f18565b811461100657600080fd5b50565b60008135905061101881610ff2565b92915050565b60006020828403121561103457611033610fe8565b5b600061104284828501611009565b91505092915050565b600081519050919050565b600082825260208201905092915050565b60005b8381101561108557808201518184015260208101905061106a565b60008484015250505050565b6000601f19601f8301169050919050565b60006110ad8261104b565b6110b78185611056565b93506110c7818560208601611067565b6110d081611091565b840191505092915050565b60006101208201905081810360008301526110f6818c6110a2565b9050818103602083015261110a818b6110a2565b9050818103604083015261111e818a6110a2565b9050818103606083015261113281896110a2565b9050818103608083015261114681886110a2565b905081810360a083015261115a81876110a2565b905081810360c083015261116e81866110a2565b905081810360e083015261118281856110a2565b905081810361010083015261119781846110a2565b90509a9950505050505050505050565b600081519050919050565b600082825260208201905092915050565b6000819050602082019050919050565b6000819050919050565b6111e6816111d3565b82525050565b60008115159050919050565b611201816111ec565b82525050565b60608201600082015161121d6000850182610f2a565b50602082015161123060208501826111dd565b50604082015161124360408501826111f8565b50505050565b60006112558383611207565b60608301905092915050565b6000602082019050919050565b6000611279826111a7565b61128381856111b2565b935061128e836111c3565b8060005b838110156112bf5781516112a68882611249565b97506112b183611261565b925050600181019050611292565b5085935050505092915050565b600060208201905081810360008301526112e6818461126e565b905092915050565b6112f7816111d3565b811461130257600080fd5b50565b600081359050611314816112ee565b92915050565b6000806040838503121561133157611330610fe8565b5b600061133f85828601611305565b925050602061135085828601611009565b9150509250929050565b6000602082840312156113705761136f610fe8565b5b600061137e84828501611305565b91505092915050565b600080fd5b600080fd5b7f4e487b7100000000000000000000000000000000000000000000000000000000600052604160045260246000fd5b6113c982611091565b810181811067ffffffffffffffff821117156113e8576113e7611391565b5b80604052505050565b60006113fb610fde565b905061140782826113c0565b919050565b600067ffffffffffffffff82111561142757611426611391565b5b61143082611091565b9050602081019050919050565b82818337600083830152505050565b600061145f61145a8461140c565b6113f1565b90508281526020810184848401111561147b5761147a61138c565b5b61148684828561143d565b509392505050565b600082601f8301126114a3576114a2611387565b5b81356114b384826020860161144c565b91505092915050565b60008060008060008060008060006101208a8c0312156114df576114de610fe8565b5b60008a013567ffffffffffffffff8111156114fd576114fc610fed565b5b6115098c828d0161148e565b99505060208a013567ffffffffffffffff81111561152a57611529610fed565b5b6115368c828d0161148e565b98505060408a013567ffffffffffffffff81111561155757611556610fed565b5b6115638c828d0161148e565b97505060608a013567ffffffffffffffff81111561158457611583610fed565b5b6115908c828d0161148e565b96505060808a013567ffffffffffffffff8111156115b1576115b0610fed565b5b6115bd8c828d0161148e565b95505060a08a013567ffffffffffffffff8111156115de576115dd610fed565b5b6115ea8c828d0161148e565b94505060c08a013567ffffffffffffffff81111561160b5761160a610fed565b5b6116178c828d0161148e565b93505060e08a013567ffffffffffffffff81111561163857611637610fed565b5b6116448c828d0161148e565b9250506101008a013567ffffffffffffffff81111561166657611665610fed565b5b6116728c828d0161148e565b9150509295985092959850929598565b7f4e487b7100000000000000000000000000000000000000000000000000000000600052602260045260246000fd5b600060028204905060018216806116c957607f821691505b6020821081036116dc576116db611682565b5b50919050565b7f4e487b7100000000000000000000000000000000000000000000000000000000600052601160045260246000fd5b600061171c826111d3565b91507fffffffffffffffffffffffffffffffffffffffffffffffffffffffffffffffff820361174e5761174d6116e2565b5b600182019050919050565b7f4e487b7100000000000000000000000000000000000000000000000000000000600052603260045260246000fd5b60008190508160005260206000209050919050565b60006020601f8301049050919050565b600082821b905092915050565b6000600883026117ea7fffffffffffffffffffffffffffffffffffffffffffffffffffffffffffffffff826117ad565b6117f486836117ad565b95508019841693508086168417925050509392505050565b6000819050919050565b600061183161182c611827846111d3565b61180c565b6111d3565b9050919050565b6000819050919050565b61184b83611816565b61185f61185782611838565b8484546117ba565b825550505050565b600090565b611874611867565b61187f818484611842565b505050565b5b818110156118a35761189860008261186c565b600181019050611885565b5050565b601f8211156118e8576118b981611788565b6118c28461179d565b810160208510156118d1578190505b6118e56118dd8561179d565b830182611884565b50505b505050565b600082821c905092915050565b600061190b600019846008026118ed565b1980831691505092915050565b600061192483836118fa565b9150826002028217905092915050565b61193d8261104b565b67ffffffffffffffff81111561195657611955611391565b5b61196082546116b1565b61196b8282856118a7565b600060209050601f83116001811461199e576000841561198c578287015190505b6119968582611918565b8655506119fe565b601f1984166119ac86611788565b60005b828110156119d4578489015182556001820191506020850194506020810190506119af565b868310156119f157848901516119ed601f8916826118fa565b8355505b6001600288020188555050505b505050505050565b60006020820190508181036000830152611a2081846110a2565b90509291505056fea2646970667358221220265d7815f41330e26e5299b54cc8be8e524500fd6fc1dcb73a47a523eef5ea7164736f6c63430008130033",
  "immutableReferences": {},
  "source": "// SPDX-License-Identifier: MIT\n\npragma solidity >=0.7.0 <0.9.0;\n\ncontract DoctorInfo {\n    struct Appointment {\n        address patient;\n        uint256 appointmentTime;\n        bool isConfirmed;\n    }\n\n    struct Doctor {\n        string name;\n        string designation;\n        string patientCount;\n        string experience;\n        string gender;\n        string rating;\n        string about;\n        string email;\n        string profileImageURL;\n        Appointment[] appointments;\n    }\n    uint appointmentCount = 0;\n\n    address[] docAdd;\n    mapping(address => Doctor) doctors;\n\n    event DoctorRegistration(address indexed doctorAddress, string name);\n\n    function registerDoctor(\n        string memory name,\n        string memory designation,\n        string memory patientCount,\n        string memory experience,\n        string memory gender,\n        string memory rating,\n        string memory email,\n        string memory about,\n        string memory profileImageURL\n    ) public {\n        doctors[msg.sender].name = name;\n        doctors[msg.sender].designation = designation;\n        doctors[msg.sender].patientCount = patientCount;\n        doctors[msg.sender].experience = experience;\n        doctors[msg.sender].gender = gender;\n        doctors[msg.sender].rating = rating;\n        doctors[msg.sender].email = email;\n        doctors[msg.sender].about = about;\n        doctors[msg.sender].profileImageURL = profileImageURL;\n        docAdd.push(msg.sender);\n        emit DoctorRegistration(msg.sender, name);\n    }\n\n    function getDoctorInfo(\n        address doctorAddress\n    )\n        public\n        view\n        returns (\n            string memory name,\n            string memory designation,\n            string memory patientCount,\n            string memory experience,\n            string memory gender,\n            string memory rating,\n            string memory email,\n            string memory about,\n            string memory profileImageURL\n        )\n    {\n        Doctor memory doctor = doctors[doctorAddress];\n        return (\n            doctor.name,\n            doctor.designation,\n            doctor.patientCount,\n            doctor.experience,\n            doctor.gender,\n            doctor.rating,\n            doctor.about,\n            doctor.email,\n            doctor.profileImageURL\n        );\n    }\n\n    function getDoctorAdd() public view returns (address[] memory docAdd_) {\n        docAdd_ = docAdd;\n    }\n\n    function bookAppointment(\n        uint256 _appointmentTime,\n        address docAddress\n    ) external {\n        doctors[docAddress].appointments.push(\n            Appointment(msg.sender, _appointmentTime, false)\n        );\n        appointmentCount++;\n    }\n\n    function appointmentConfirmed(uint256 index) public {\n        doctors[msg.sender].appointments[index].isConfirmed = true;\n    }\n\n    function getAppointments(\n        address docaddress_\n    ) public view returns (Appointment[] memory) {\n        return doctors[docaddress_].appointments;\n    }\n}\n",
  "sourcePath": "/Users/ishajasani/Desktop/FLUJECTS/GFG_TECHIE TWINS/Techie-Twins/techie_twins/contracts/DoctorInfo.sol",
  "compiler": {
    "name": "solc",
    "version": "0.8.19+commit.7dd6d404.Emscripten.clang"
  },
  "schemaVersion": "3.4.13",
  "updatedAt": "2023-05-26T13:56:43.034Z",
  "networkType": "ethereum",
  "devdoc": {
    "kind": "dev",
    "methods": {},
    "version": 1
  },
  "userdoc": {
    "kind": "user",
    "methods": {},
    "version": 1
  }
}