{
  "contractName": "LaboratoryInfo",
  "abi": [
    {
      "inputs": [
        {
          "internalType": "string",
          "name": "name",
          "type": "string"
        },
        {
          "internalType": "string",
          "name": "recordsDelivered",
          "type": "string"
        },
        {
          "internalType": "string",
          "name": "experience",
          "type": "string"
        },
        {
          "internalType": "string",
          "name": "rating",
          "type": "string"
        },
        {
          "internalType": "string",
          "name": "email",
          "type": "string"
        },
        {
          "internalType": "string",
          "name": "about",
          "type": "string"
        },
        {
          "internalType": "string",
          "name": "profileImageURL",
          "type": "string"
        }
      ],
      "name": "registerLaboratory",
      "outputs": [],
      "stateMutability": "nonpayable",
      "type": "function"
    },
    {
      "inputs": [
        {
          "internalType": "address",
          "name": "laboratoryAddress",
          "type": "address"
        }
      ],
      "name": "getLaboratoryInfo",
      "outputs": [
        {
          "internalType": "string",
          "name": "name",
          "type": "string"
        },
        {
          "internalType": "string",
          "name": "recordsDelivered",
          "type": "string"
        },
        {
          "internalType": "string",
          "name": "experience",
          "type": "string"
        },
        {
          "internalType": "string",
          "name": "rating",
          "type": "string"
        },
        {
          "internalType": "string",
          "name": "email",
          "type": "string"
        },
        {
          "internalType": "string",
          "name": "about",
          "type": "string"
        },
        {
          "internalType": "string",
          "name": "profileImageURL",
          "type": "string"
        }
      ],
      "stateMutability": "view",
      "type": "function",
      "constant": true
    },
    {
      "inputs": [
        {
          "internalType": "address",
          "name": "doctorAddress",
          "type": "address"
        },
        {
          "internalType": "string",
          "name": "reportType",
          "type": "string"
        },
        {
          "internalType": "address",
          "name": "laboratoryAddress",
          "type": "address"
        },
        {
          "internalType": "address",
          "name": "patientAddress",
          "type": "address"
        }
      ],
      "name": "requestReport",
      "outputs": [],
      "stateMutability": "nonpayable",
      "type": "function"
    },
    {
      "inputs": [
        {
          "internalType": "address",
          "name": "patientAddress_",
          "type": "address"
        },
        {
          "internalType": "address",
          "name": "laboratoryAddress",
          "type": "address"
        },
        {
          "internalType": "string[]",
          "name": "cids_",
          "type": "string[]"
        }
      ],
      "name": "generateReport",
      "outputs": [],
      "stateMutability": "nonpayable",
      "type": "function"
    },
    {
      "inputs": [
        {
          "internalType": "address",
          "name": "patientAddress_",
          "type": "address"
        },
        {
          "internalType": "address",
          "name": "laboratoryAddress",
          "type": "address"
        }
      ],
      "name": "getReport",
      "outputs": [
        {
          "internalType": "string[]",
          "name": "",
          "type": "string[]"
        }
      ],
      "stateMutability": "view",
      "type": "function",
      "constant": true
    },
    {
      "inputs": [],
      "name": "getAllLaboratory",
      "outputs": [
        {
          "internalType": "address[]",
          "name": "labAddress_",
          "type": "address[]"
        }
      ],
      "stateMutability": "view",
      "type": "function",
      "constant": true
    }
  ],
  "bytecode": "0x60806040526000805534801561001457600080fd5b50611dfa806100246000396000f3fe608060405234801561001057600080fd5b50600436106100625760003560e01c80637e3272cb146100675780638ac0b08f146100835780639f19936d146100a1578063b12dc2db146100d1578063e42fbbaa146100ed578063ef55607714610109575b600080fd5b610081600480360381019061007c9190611444565b61013f565b005b61008b610298565b6040516100989190611571565b60405180910390f35b6100bb60048036038101906100b69190611593565b610326565b6040516100c89190611714565b60405180910390f35b6100eb60048036038101906100e69190611736565b61053f565b005b6101076004803603810190610102919061189c565b6107db565b005b610123600480360381019061011e919061191f565b6109c1565b6040516101369796959493929190611996565b60405180910390f35b60005b600054811015610292578373ffffffffffffffffffffffffffffffffffffffff16600260008573ffffffffffffffffffffffffffffffffffffffff1673ffffffffffffffffffffffffffffffffffffffff16815260200190815260200160002060070182815481106101b7576101b6611a36565b5b906000526020600020906004020160000160009054906101000a900473ffffffffffffffffffffffffffffffffffffffff1673ffffffffffffffffffffffffffffffffffffffff160361027f5781600260008573ffffffffffffffffffffffffffffffffffffffff1673ffffffffffffffffffffffffffffffffffffffff168152602001908152602001600020600701828154811061025957610258611a36565b5b9060005260206000209060040201600301908051906020019061027d9291906110cc565b505b808061028a90611a9e565b915050610142565b50505050565b6060600180548060200260200160405190810160405280929190818152602001828054801561031c57602002820191906000526020600020905b8160009054906101000a900473ffffffffffffffffffffffffffffffffffffffff1673ffffffffffffffffffffffffffffffffffffffff16815260200190600101908083116102d2575b5050505050905090565b606060005b600054811015610401578373ffffffffffffffffffffffffffffffffffffffff16600260008573ffffffffffffffffffffffffffffffffffffffff1673ffffffffffffffffffffffffffffffffffffffff16815260200190815260200160002060070182815481106103a05761039f611a36565b5b906000526020600020906004020160000160009054906101000a900473ffffffffffffffffffffffffffffffffffffffff1673ffffffffffffffffffffffffffffffffffffffff1603156104015780806103f990611a9e565b91505061032b565b600260008473ffffffffffffffffffffffffffffffffffffffff1673ffffffffffffffffffffffffffffffffffffffff168152602001908152602001600020600701818154811061045557610454611a36565b5b9060005260206000209060040201600301805480602002602001604051908101604052809291908181526020016000905b828210156105325783829060005260206000200180546104a590611b15565b80601f01602080910402602001604051908101604052809291908181526020018280546104d190611b15565b801561051e5780601f106104f35761010080835404028352916020019161051e565b820191906000526020600020905b81548152906001019060200180831161050157829003601f168201915b505050505081526020019060010190610486565b5050505091505092915050565b86600260003373ffffffffffffffffffffffffffffffffffffffff1673ffffffffffffffffffffffffffffffffffffffff168152602001908152602001600020600001908161058e9190611cf2565b5085600260003373ffffffffffffffffffffffffffffffffffffffff1673ffffffffffffffffffffffffffffffffffffffff16815260200190815260200160002060010190816105de9190611cf2565b5084600260003373ffffffffffffffffffffffffffffffffffffffff1673ffffffffffffffffffffffffffffffffffffffff168152602001908152602001600020600201908161062e9190611cf2565b5083600260003373ffffffffffffffffffffffffffffffffffffffff1673ffffffffffffffffffffffffffffffffffffffff168152602001908152602001600020600301908161067e9190611cf2565b5082600260003373ffffffffffffffffffffffffffffffffffffffff1673ffffffffffffffffffffffffffffffffffffffff16815260200190815260200160002060040190816106ce9190611cf2565b5081600260003373ffffffffffffffffffffffffffffffffffffffff1673ffffffffffffffffffffffffffffffffffffffff168152602001908152602001600020600501908161071e9190611cf2565b5080600260003373ffffffffffffffffffffffffffffffffffffffff1673ffffffffffffffffffffffffffffffffffffffff168152602001908152602001600020600601908161076e9190611cf2565b506001339080600181540180825580915050600190039060005260206000200160009091909190916101000a81548173ffffffffffffffffffffffffffffffffffffffff021916908373ffffffffffffffffffffffffffffffffffffffff16021790555050505050505050565b600260008373ffffffffffffffffffffffffffffffffffffffff1673ffffffffffffffffffffffffffffffffffffffff16815260200190815260200160002060070160405180608001604052808373ffffffffffffffffffffffffffffffffffffffff1681526020018673ffffffffffffffffffffffffffffffffffffffff168152602001858152602001600067ffffffffffffffff8111156108815761088061122e565b5b6040519080825280602002602001820160405280156108b457816020015b606081526020019060019003908161089f5790505b50815250908060018154018082558091505060019003906000526020600020906004020160009091909190915060008201518160000160006101000a81548173ffffffffffffffffffffffffffffffffffffffff021916908373ffffffffffffffffffffffffffffffffffffffff16021790555060208201518160010160006101000a81548173ffffffffffffffffffffffffffffffffffffffff021916908373ffffffffffffffffffffffffffffffffffffffff16021790555060408201518160020190816109849190611cf2565b5060608201518160030190805190602001906109a19291906110cc565b5050506000808154809291906109b690611a9e565b919050555050505050565b60608060608060608060606000600260008a73ffffffffffffffffffffffffffffffffffffffff1673ffffffffffffffffffffffffffffffffffffffff16815260200190815260200160002060405180610100016040529081600082018054610a2990611b15565b80601f0160208091040260200160405190810160405280929190818152602001828054610a5590611b15565b8015610aa25780601f10610a7757610100808354040283529160200191610aa2565b820191906000526020600020905b815481529060010190602001808311610a8557829003601f168201915b50505050508152602001600182018054610abb90611b15565b80601f0160208091040260200160405190810160405280929190818152602001828054610ae790611b15565b8015610b345780601f10610b0957610100808354040283529160200191610b34565b820191906000526020600020905b815481529060010190602001808311610b1757829003601f168201915b50505050508152602001600282018054610b4d90611b15565b80601f0160208091040260200160405190810160405280929190818152602001828054610b7990611b15565b8015610bc65780601f10610b9b57610100808354040283529160200191610bc6565b820191906000526020600020905b815481529060010190602001808311610ba957829003601f168201915b50505050508152602001600382018054610bdf90611b15565b80601f0160208091040260200160405190810160405280929190818152602001828054610c0b90611b15565b8015610c585780601f10610c2d57610100808354040283529160200191610c58565b820191906000526020600020905b815481529060010190602001808311610c3b57829003601f168201915b50505050508152602001600482018054610c7190611b15565b80601f0160208091040260200160405190810160405280929190818152602001828054610c9d90611b15565b8015610cea5780601f10610cbf57610100808354040283529160200191610cea565b820191906000526020600020905b815481529060010190602001808311610ccd57829003601f168201915b50505050508152602001600582018054610d0390611b15565b80601f0160208091040260200160405190810160405280929190818152602001828054610d2f90611b15565b8015610d7c5780601f10610d5157610100808354040283529160200191610d7c565b820191906000526020600020905b815481529060010190602001808311610d5f57829003601f168201915b50505050508152602001600682018054610d9590611b15565b80601f0160208091040260200160405190810160405280929190818152602001828054610dc190611b15565b8015610e0e5780601f10610de357610100808354040283529160200191610e0e565b820191906000526020600020905b815481529060010190602001808311610df157829003601f168201915b5050505050815260200160078201805480602002602001604051908101604052809291908181526020016000905b8282101561108557838290600052602060002090600402016040518060800160405290816000820160009054906101000a900473ffffffffffffffffffffffffffffffffffffffff1673ffffffffffffffffffffffffffffffffffffffff1673ffffffffffffffffffffffffffffffffffffffff1681526020016001820160009054906101000a900473ffffffffffffffffffffffffffffffffffffffff1673ffffffffffffffffffffffffffffffffffffffff1673ffffffffffffffffffffffffffffffffffffffff168152602001600282018054610f1b90611b15565b80601f0160208091040260200160405190810160405280929190818152602001828054610f4790611b15565b8015610f945780601f10610f6957610100808354040283529160200191610f94565b820191906000526020600020905b815481529060010190602001808311610f7757829003601f168201915b5050505050815260200160038201805480602002602001604051908101604052809291908181526020016000905b8282101561106e578382906000526020600020018054610fe190611b15565b80601f016020809104026020016040519081016040528092919081815260200182805461100d90611b15565b801561105a5780601f1061102f5761010080835404028352916020019161105a565b820191906000526020600020905b81548152906001019060200180831161103d57829003601f168201915b505050505081526020019060010190610fc2565b505050508152505081526020019060010190610e3c565b50505050815250509050806000015181602001518260400151836060015184608001518560a001518660c00151975097509750975097509750975050919395979092949650565b828054828255906000526020600020908101928215611114579160200282015b828111156111135782518290816111039190611cf2565b50916020019190600101906110ec565b5b5090506111219190611125565b5090565b5b80821115611145576000818161113c9190611149565b50600101611126565b5090565b50805461115590611b15565b6000825580601f106111675750611186565b601f0160209004906000526020600020908101906111859190611189565b5b50565b5b808211156111a257600081600090555060010161118a565b5090565b6000604051905090565b600080fd5b600080fd5b600073ffffffffffffffffffffffffffffffffffffffff82169050919050565b60006111e5826111ba565b9050919050565b6111f5816111da565b811461120057600080fd5b50565b600081359050611212816111ec565b92915050565b600080fd5b6000601f19601f8301169050919050565b7f4e487b7100000000000000000000000000000000000000000000000000000000600052604160045260246000fd5b6112668261121d565b810181811067ffffffffffffffff821117156112855761128461122e565b5b80604052505050565b60006112986111a6565b90506112a4828261125d565b919050565b600067ffffffffffffffff8211156112c4576112c361122e565b5b602082029050602081019050919050565b600080fd5b600080fd5b600067ffffffffffffffff8211156112fa576112f961122e565b5b6113038261121d565b9050602081019050919050565b82818337600083830152505050565b600061133261132d846112df565b61128e565b90508281526020810184848401111561134e5761134d6112da565b5b611359848285611310565b509392505050565b600082601f83011261137657611375611218565b5b813561138684826020860161131f565b91505092915050565b60006113a261139d846112a9565b61128e565b905080838252602082019050602084028301858111156113c5576113c46112d5565b5b835b8181101561140c57803567ffffffffffffffff8111156113ea576113e9611218565b5b8086016113f78982611361565b855260208501945050506020810190506113c7565b5050509392505050565b600082601f83011261142b5761142a611218565b5b813561143b84826020860161138f565b91505092915050565b60008060006060848603121561145d5761145c6111b0565b5b600061146b86828701611203565b935050602061147c86828701611203565b925050604084013567ffffffffffffffff81111561149d5761149c6111b5565b5b6114a986828701611416565b9150509250925092565b600081519050919050565b600082825260208201905092915050565b6000819050602082019050919050565b6114e8816111da565b82525050565b60006114fa83836114df565b60208301905092915050565b6000602082019050919050565b600061151e826114b3565b61152881856114be565b9350611533836114cf565b8060005b8381101561156457815161154b88826114ee565b975061155683611506565b925050600181019050611537565b5085935050505092915050565b6000602082019050818103600083015261158b8184611513565b905092915050565b600080604083850312156115aa576115a96111b0565b5b60006115b885828601611203565b92505060206115c985828601611203565b9150509250929050565b600081519050919050565b600082825260208201905092915050565b6000819050602082019050919050565b600081519050919050565b600082825260208201905092915050565b60005b8381101561163957808201518184015260208101905061161e565b60008484015250505050565b6000611650826115ff565b61165a818561160a565b935061166a81856020860161161b565b6116738161121d565b840191505092915050565b600061168a8383611645565b905092915050565b6000602082019050919050565b60006116aa826115d3565b6116b481856115de565b9350836020820285016116c6856115ef565b8060005b8581101561170257848403895281516116e3858261167e565b94506116ee83611692565b925060208a019950506001810190506116ca565b50829750879550505050505092915050565b6000602082019050818103600083015261172e818461169f565b905092915050565b600080600080600080600060e0888a031215611755576117546111b0565b5b600088013567ffffffffffffffff811115611773576117726111b5565b5b61177f8a828b01611361565b975050602088013567ffffffffffffffff8111156117a05761179f6111b5565b5b6117ac8a828b01611361565b965050604088013567ffffffffffffffff8111156117cd576117cc6111b5565b5b6117d98a828b01611361565b955050606088013567ffffffffffffffff8111156117fa576117f96111b5565b5b6118068a828b01611361565b945050608088013567ffffffffffffffff811115611827576118266111b5565b5b6118338a828b01611361565b93505060a088013567ffffffffffffffff811115611854576118536111b5565b5b6118608a828b01611361565b92505060c088013567ffffffffffffffff811115611881576118806111b5565b5b61188d8a828b01611361565b91505092959891949750929550565b600080600080608085870312156118b6576118b56111b0565b5b60006118c487828801611203565b945050602085013567ffffffffffffffff8111156118e5576118e46111b5565b5b6118f187828801611361565b935050604061190287828801611203565b925050606061191387828801611203565b91505092959194509250565b600060208284031215611935576119346111b0565b5b600061194384828501611203565b91505092915050565b600082825260208201905092915050565b6000611968826115ff565b611972818561194c565b935061198281856020860161161b565b61198b8161121d565b840191505092915050565b600060e08201905081810360008301526119b0818a61195d565b905081810360208301526119c4818961195d565b905081810360408301526119d8818861195d565b905081810360608301526119ec818761195d565b90508181036080830152611a00818661195d565b905081810360a0830152611a14818561195d565b905081810360c0830152611a28818461195d565b905098975050505050505050565b7f4e487b7100000000000000000000000000000000000000000000000000000000600052603260045260246000fd5b7f4e487b7100000000000000000000000000000000000000000000000000000000600052601160045260246000fd5b6000819050919050565b6000611aa982611a94565b91507fffffffffffffffffffffffffffffffffffffffffffffffffffffffffffffffff8203611adb57611ada611a65565b5b600182019050919050565b7f4e487b7100000000000000000000000000000000000000000000000000000000600052602260045260246000fd5b60006002820490506001821680611b2d57607f821691505b602082108103611b4057611b3f611ae6565b5b50919050565b60008190508160005260206000209050919050565b60006020601f8301049050919050565b600082821b905092915050565b600060088302611ba87fffffffffffffffffffffffffffffffffffffffffffffffffffffffffffffffff82611b6b565b611bb28683611b6b565b95508019841693508086168417925050509392505050565b6000819050919050565b6000611bef611bea611be584611a94565b611bca565b611a94565b9050919050565b6000819050919050565b611c0983611bd4565b611c1d611c1582611bf6565b848454611b78565b825550505050565b600090565b611c32611c25565b611c3d818484611c00565b505050565b5b81811015611c6157611c56600082611c2a565b600181019050611c43565b5050565b601f821115611ca657611c7781611b46565b611c8084611b5b565b81016020851015611c8f578190505b611ca3611c9b85611b5b565b830182611c42565b50505b505050565b600082821c905092915050565b6000611cc960001984600802611cab565b1980831691505092915050565b6000611ce28383611cb8565b9150826002028217905092915050565b611cfb826115ff565b67ffffffffffffffff811115611d1457611d1361122e565b5b611d1e8254611b15565b611d29828285611c65565b600060209050601f831160018114611d5c5760008415611d4a578287015190505b611d548582611cd6565b865550611dbc565b601f198416611d6a86611b46565b60005b82811015611d9257848901518255600182019150602085019450602081019050611d6d565b86831015611daf5784890151611dab601f891682611cb8565b8355505b6001600288020188555050505b50505050505056fea264697066735822122085d203d933432cc06c84ca902924e73c61c0a4c18ff2121c8f662ffa2bcac26c64736f6c63430008130033",
  "immutableReferences": {},
  "source": "// SPDX-License-Identifier: MIT\n\npragma solidity >=0.7.0 <0.9.0;\n\ncontract LaboratoryInfo {\n    uint256 reportCounter = 0;\n    struct Laboratory {\n        string name;\n        string recordsDelivered;\n        string experience;\n        string rating;\n        string email;\n        string about;\n        string profileImageURL;\n        Reports[] reports;\n    }\n\n    struct Reports {\n        address patientAddress;\n        address doctorAddress;\n        string reportType;\n        string[] cids;\n    }\n    address[] labAddress;\n\n    mapping(address => Laboratory) laboratories;\n\n    function registerLaboratory(\n        string memory name,\n        string memory recordsDelivered,\n        string memory experience,\n        string memory rating,\n        string memory email,\n        string memory about,\n        string memory profileImageURL\n    ) public {\n        laboratories[msg.sender].name = name;\n        laboratories[msg.sender].recordsDelivered = recordsDelivered;\n        laboratories[msg.sender].experience = experience;\n        laboratories[msg.sender].rating = rating;\n        laboratories[msg.sender].email = email;\n        laboratories[msg.sender].about = about;\n        laboratories[msg.sender].profileImageURL = profileImageURL;\n        labAddress.push(msg.sender);\n    }\n\n    function getLaboratoryInfo(address laboratoryAddress)\n        public\n        view\n        returns (\n            string memory name,\n            string memory recordsDelivered,\n            string memory experience,\n            string memory rating,\n            string memory email,\n            string memory about,\n            string memory profileImageURL\n        )\n    {\n        Laboratory memory laboratory = laboratories[laboratoryAddress];\n        return (\n            laboratory.name,\n            laboratory.recordsDelivered,\n            laboratory.experience,\n            laboratory.rating,\n            laboratory.email,\n            laboratory.about,\n            laboratory.profileImageURL\n        );\n    }\n\n    function requestReport(\n        address doctorAddress,\n        string memory reportType,\n        address laboratoryAddress,\n        address patientAddress\n    ) public {\n        laboratories[laboratoryAddress].reports.push(\n            Reports(patientAddress, doctorAddress, reportType, new string[](0))\n        );\n\n        reportCounter++;\n    }\n\n    function generateReport(address patientAddress_,address laboratoryAddress, string[] memory cids_)\n        public\n    {\n        for (uint256 i = 0; i < reportCounter; i++) {\n            if (\n                laboratories[laboratoryAddress].reports[i].patientAddress ==\n                patientAddress_\n            ) {\n                laboratories[laboratoryAddress].reports[i].cids = cids_;\n            }\n        }\n    }\n\n    function getReport(address patientAddress_ , address laboratoryAddress)\n        public\n        view\n        returns (string[] memory)\n    {\n        uint256 i;\n        for (i = 0; i < reportCounter; i++) {\n            if (\n                laboratories[laboratoryAddress].reports[i].patientAddress ==\n                patientAddress_\n            ) {\n                break;\n            }\n        }\n        return laboratories[laboratoryAddress].reports[i].cids;\n    }\n\n    function getAllLaboratory() public view  returns (address[] memory labAddress_ ){\n        labAddress_ = labAddress;\n    }\n}\n",
  "sourcePath": "/Users/ishajasani/Desktop/FLUJECTS/GFG_TECHIE TWINS/Techie-Twins/techie_twins/contracts/LaboratoryInfo.sol",
  "compiler": {
    "name": "solc",
    "version": "0.8.19+commit.7dd6d404.Emscripten.clang"
  },
  "schemaVersion": "3.4.13",
  "updatedAt": "2023-05-27T09:39:53.729Z",
  "networkType": "ethereum",
  "devdoc": {
    "kind": "dev",
    "methods": {},
    "version": 1
  },
  "userdoc": {
    "kind": "user",
    "methods": {},
    "version": 1
  }
}