{
  "contractName": "LaboratoryInfo",
  "abi": [
    {
      "inputs": [
        {
          "internalType": "string",
          "name": "name",
          "type": "string"
        },
        {
          "internalType": "string",
          "name": "recordsDelivered",
          "type": "string"
        },
        {
          "internalType": "string",
          "name": "experience",
          "type": "string"
        },
        {
          "internalType": "string",
          "name": "rating",
          "type": "string"
        },
        {
          "internalType": "string",
          "name": "email",
          "type": "string"
        },
        {
          "internalType": "string",
          "name": "about",
          "type": "string"
        },
        {
          "internalType": "string",
          "name": "profileImageURL",
          "type": "string"
        }
      ],
      "name": "registerLaboratory",
      "outputs": [],
      "stateMutability": "nonpayable",
      "type": "function"
    },
    {
      "inputs": [
        {
          "internalType": "address",
          "name": "laboratoryAddress",
          "type": "address"
        }
      ],
      "name": "getLaboratoryInfo",
      "outputs": [
        {
          "internalType": "string",
          "name": "name",
          "type": "string"
        },
        {
          "internalType": "string",
          "name": "recordsDelivered",
          "type": "string"
        },
        {
          "internalType": "string",
          "name": "experience",
          "type": "string"
        },
        {
          "internalType": "string",
          "name": "rating",
          "type": "string"
        },
        {
          "internalType": "string",
          "name": "email",
          "type": "string"
        },
        {
          "internalType": "string",
          "name": "about",
          "type": "string"
        },
        {
          "internalType": "string",
          "name": "profileImageURL",
          "type": "string"
        }
      ],
      "stateMutability": "view",
      "type": "function",
      "constant": true
    },
    {
      "inputs": [
        {
          "internalType": "address",
          "name": "doctorAddress",
          "type": "address"
        },
        {
          "internalType": "string",
          "name": "reportType",
          "type": "string"
        },
        {
          "internalType": "address",
          "name": "laboratoryAddress",
          "type": "address"
        }
      ],
      "name": "requestReport",
      "outputs": [],
      "stateMutability": "nonpayable",
      "type": "function"
    },
    {
      "inputs": [
        {
          "internalType": "address",
          "name": "patientAddress_",
          "type": "address"
        },
        {
          "internalType": "string[]",
          "name": "cids_",
          "type": "string[]"
        }
      ],
      "name": "generateReport",
      "outputs": [],
      "stateMutability": "nonpayable",
      "type": "function"
    },
    {
      "inputs": [
        {
          "internalType": "address",
          "name": "patientAddress_",
          "type": "address"
        }
      ],
      "name": "getReport",
      "outputs": [
        {
          "internalType": "string[]",
          "name": "",
          "type": "string[]"
        }
      ],
      "stateMutability": "view",
      "type": "function",
      "constant": true
    }
  ],
  "bytecode": "0x60806040526000805534801561001457600080fd5b50611b96806100246000396000f3fe608060405234801561001057600080fd5b50600436106100575760003560e01c80635bdba05f1461005c578063a3bdae3e14610078578063b12dc2db146100a8578063ef556077146100c4578063f9d26c22146100fa575b600080fd5b61007660048036038101906100719190611327565b610116565b005b610092600480360381019061008d9190611383565b61026e565b60405161009f91906114f1565b60405180910390f35b6100c260048036038101906100bd9190611513565b610486565b005b6100de60048036038101906100d99190611383565b6106bf565b6040516100f197969594939291906116c3565b60405180910390f35b610114600480360381019061010f9190611763565b610dca565b005b60005b600054811015610269578273ffffffffffffffffffffffffffffffffffffffff16600160003373ffffffffffffffffffffffffffffffffffffffff1673ffffffffffffffffffffffffffffffffffffffff168152602001908152602001600020600701828154811061018e5761018d6117d2565b5b906000526020600020906004020160000160009054906101000a900473ffffffffffffffffffffffffffffffffffffffff1673ffffffffffffffffffffffffffffffffffffffff16036102565781600160003373ffffffffffffffffffffffffffffffffffffffff1673ffffffffffffffffffffffffffffffffffffffff16815260200190815260200160002060070182815481106102305761022f6117d2565b5b90600052602060002090600402016003019080519060200190610254929190610faf565b505b80806102619061183a565b915050610119565b505050565b606060005b600054811015610349578273ffffffffffffffffffffffffffffffffffffffff16600160003373ffffffffffffffffffffffffffffffffffffffff1673ffffffffffffffffffffffffffffffffffffffff16815260200190815260200160002060070182815481106102e8576102e76117d2565b5b906000526020600020906004020160000160009054906101000a900473ffffffffffffffffffffffffffffffffffffffff1673ffffffffffffffffffffffffffffffffffffffff1603156103495780806103419061183a565b915050610273565b600160003373ffffffffffffffffffffffffffffffffffffffff1673ffffffffffffffffffffffffffffffffffffffff168152602001908152602001600020600701818154811061039d5761039c6117d2565b5b9060005260206000209060040201600301805480602002602001604051908101604052809291908181526020016000905b8282101561047a5783829060005260206000200180546103ed906118b1565b80601f0160208091040260200160405190810160405280929190818152602001828054610419906118b1565b80156104665780601f1061043b57610100808354040283529160200191610466565b820191906000526020600020905b81548152906001019060200180831161044957829003601f168201915b5050505050815260200190600101906103ce565b50505050915050919050565b86600160003373ffffffffffffffffffffffffffffffffffffffff1673ffffffffffffffffffffffffffffffffffffffff16815260200190815260200160002060000190816104d59190611a8e565b5085600160003373ffffffffffffffffffffffffffffffffffffffff1673ffffffffffffffffffffffffffffffffffffffff16815260200190815260200160002060010190816105259190611a8e565b5084600160003373ffffffffffffffffffffffffffffffffffffffff1673ffffffffffffffffffffffffffffffffffffffff16815260200190815260200160002060020190816105759190611a8e565b5083600160003373ffffffffffffffffffffffffffffffffffffffff1673ffffffffffffffffffffffffffffffffffffffff16815260200190815260200160002060030190816105c59190611a8e565b5082600160003373ffffffffffffffffffffffffffffffffffffffff1673ffffffffffffffffffffffffffffffffffffffff16815260200190815260200160002060040190816106159190611a8e565b5081600160003373ffffffffffffffffffffffffffffffffffffffff1673ffffffffffffffffffffffffffffffffffffffff16815260200190815260200160002060050190816106659190611a8e565b5080600160003373ffffffffffffffffffffffffffffffffffffffff1673ffffffffffffffffffffffffffffffffffffffff16815260200190815260200160002060060190816106b59190611a8e565b5050505050505050565b60608060608060608060606000600160008a73ffffffffffffffffffffffffffffffffffffffff1673ffffffffffffffffffffffffffffffffffffffff16815260200190815260200160002060405180610100016040529081600082018054610727906118b1565b80601f0160208091040260200160405190810160405280929190818152602001828054610753906118b1565b80156107a05780601f10610775576101008083540402835291602001916107a0565b820191906000526020600020905b81548152906001019060200180831161078357829003601f168201915b505050505081526020016001820180546107b9906118b1565b80601f01602080910402602001604051908101604052809291908181526020018280546107e5906118b1565b80156108325780601f1061080757610100808354040283529160200191610832565b820191906000526020600020905b81548152906001019060200180831161081557829003601f168201915b5050505050815260200160028201805461084b906118b1565b80601f0160208091040260200160405190810160405280929190818152602001828054610877906118b1565b80156108c45780601f10610899576101008083540402835291602001916108c4565b820191906000526020600020905b8154815290600101906020018083116108a757829003601f168201915b505050505081526020016003820180546108dd906118b1565b80601f0160208091040260200160405190810160405280929190818152602001828054610909906118b1565b80156109565780601f1061092b57610100808354040283529160200191610956565b820191906000526020600020905b81548152906001019060200180831161093957829003601f168201915b5050505050815260200160048201805461096f906118b1565b80601f016020809104026020016040519081016040528092919081815260200182805461099b906118b1565b80156109e85780601f106109bd576101008083540402835291602001916109e8565b820191906000526020600020905b8154815290600101906020018083116109cb57829003601f168201915b50505050508152602001600582018054610a01906118b1565b80601f0160208091040260200160405190810160405280929190818152602001828054610a2d906118b1565b8015610a7a5780601f10610a4f57610100808354040283529160200191610a7a565b820191906000526020600020905b815481529060010190602001808311610a5d57829003601f168201915b50505050508152602001600682018054610a93906118b1565b80601f0160208091040260200160405190810160405280929190818152602001828054610abf906118b1565b8015610b0c5780601f10610ae157610100808354040283529160200191610b0c565b820191906000526020600020905b815481529060010190602001808311610aef57829003601f168201915b5050505050815260200160078201805480602002602001604051908101604052809291908181526020016000905b82821015610d8357838290600052602060002090600402016040518060800160405290816000820160009054906101000a900473ffffffffffffffffffffffffffffffffffffffff1673ffffffffffffffffffffffffffffffffffffffff1673ffffffffffffffffffffffffffffffffffffffff1681526020016001820160009054906101000a900473ffffffffffffffffffffffffffffffffffffffff1673ffffffffffffffffffffffffffffffffffffffff1673ffffffffffffffffffffffffffffffffffffffff168152602001600282018054610c19906118b1565b80601f0160208091040260200160405190810160405280929190818152602001828054610c45906118b1565b8015610c925780601f10610c6757610100808354040283529160200191610c92565b820191906000526020600020905b815481529060010190602001808311610c7557829003601f168201915b5050505050815260200160038201805480602002602001604051908101604052809291908181526020016000905b82821015610d6c578382906000526020600020018054610cdf906118b1565b80601f0160208091040260200160405190810160405280929190818152602001828054610d0b906118b1565b8015610d585780601f10610d2d57610100808354040283529160200191610d58565b820191906000526020600020905b815481529060010190602001808311610d3b57829003601f168201915b505050505081526020019060010190610cc0565b505050508152505081526020019060010190610b3a565b50505050815250509050806000015181602001518260400151836060015184608001518560a001518660c00151975097509750975097509750975050919395979092949650565b600160008273ffffffffffffffffffffffffffffffffffffffff1673ffffffffffffffffffffffffffffffffffffffff16815260200190815260200160002060070160405180608001604052803373ffffffffffffffffffffffffffffffffffffffff1681526020018573ffffffffffffffffffffffffffffffffffffffff168152602001848152602001600067ffffffffffffffff811115610e7057610e6f611111565b5b604051908082528060200260200182016040528015610ea357816020015b6060815260200190600190039081610e8e5790505b50815250908060018154018082558091505060019003906000526020600020906004020160009091909190915060008201518160000160006101000a81548173ffffffffffffffffffffffffffffffffffffffff021916908373ffffffffffffffffffffffffffffffffffffffff16021790555060208201518160010160006101000a81548173ffffffffffffffffffffffffffffffffffffffff021916908373ffffffffffffffffffffffffffffffffffffffff1602179055506040820151816002019081610f739190611a8e565b506060820151816003019080519060200190610f90929190610faf565b505050600080815480929190610fa59061183a565b9190505550505050565b828054828255906000526020600020908101928215610ff7579160200282015b82811115610ff6578251829081610fe69190611a8e565b5091602001919060010190610fcf565b5b5090506110049190611008565b5090565b5b80821115611028576000818161101f919061102c565b50600101611009565b5090565b508054611038906118b1565b6000825580601f1061104a5750611069565b601f016020900490600052602060002090810190611068919061106c565b5b50565b5b8082111561108557600081600090555060010161106d565b5090565b6000604051905090565b600080fd5b600080fd5b600073ffffffffffffffffffffffffffffffffffffffff82169050919050565b60006110c88261109d565b9050919050565b6110d8816110bd565b81146110e357600080fd5b50565b6000813590506110f5816110cf565b92915050565b600080fd5b6000601f19601f8301169050919050565b7f4e487b7100000000000000000000000000000000000000000000000000000000600052604160045260246000fd5b61114982611100565b810181811067ffffffffffffffff8211171561116857611167611111565b5b80604052505050565b600061117b611089565b90506111878282611140565b919050565b600067ffffffffffffffff8211156111a7576111a6611111565b5b602082029050602081019050919050565b600080fd5b600080fd5b600067ffffffffffffffff8211156111dd576111dc611111565b5b6111e682611100565b9050602081019050919050565b82818337600083830152505050565b6000611215611210846111c2565b611171565b905082815260208101848484011115611231576112306111bd565b5b61123c8482856111f3565b509392505050565b600082601f830112611259576112586110fb565b5b8135611269848260208601611202565b91505092915050565b60006112856112808461118c565b611171565b905080838252602082019050602084028301858111156112a8576112a76111b8565b5b835b818110156112ef57803567ffffffffffffffff8111156112cd576112cc6110fb565b5b8086016112da8982611244565b855260208501945050506020810190506112aa565b5050509392505050565b600082601f83011261130e5761130d6110fb565b5b813561131e848260208601611272565b91505092915050565b6000806040838503121561133e5761133d611093565b5b600061134c858286016110e6565b925050602083013567ffffffffffffffff81111561136d5761136c611098565b5b611379858286016112f9565b9150509250929050565b60006020828403121561139957611398611093565b5b60006113a7848285016110e6565b91505092915050565b600081519050919050565b600082825260208201905092915050565b6000819050602082019050919050565b600081519050919050565b600082825260208201905092915050565b60005b838110156114165780820151818401526020810190506113fb565b60008484015250505050565b600061142d826113dc565b61143781856113e7565b93506114478185602086016113f8565b61145081611100565b840191505092915050565b60006114678383611422565b905092915050565b6000602082019050919050565b6000611487826113b0565b61149181856113bb565b9350836020820285016114a3856113cc565b8060005b858110156114df57848403895281516114c0858261145b565b94506114cb8361146f565b925060208a019950506001810190506114a7565b50829750879550505050505092915050565b6000602082019050818103600083015261150b818461147c565b905092915050565b600080600080600080600060e0888a03121561153257611531611093565b5b600088013567ffffffffffffffff8111156115505761154f611098565b5b61155c8a828b01611244565b975050602088013567ffffffffffffffff81111561157d5761157c611098565b5b6115898a828b01611244565b965050604088013567ffffffffffffffff8111156115aa576115a9611098565b5b6115b68a828b01611244565b955050606088013567ffffffffffffffff8111156115d7576115d6611098565b5b6115e38a828b01611244565b945050608088013567ffffffffffffffff81111561160457611603611098565b5b6116108a828b01611244565b93505060a088013567ffffffffffffffff81111561163157611630611098565b5b61163d8a828b01611244565b92505060c088013567ffffffffffffffff81111561165e5761165d611098565b5b61166a8a828b01611244565b91505092959891949750929550565b600082825260208201905092915050565b6000611695826113dc565b61169f8185611679565b93506116af8185602086016113f8565b6116b881611100565b840191505092915050565b600060e08201905081810360008301526116dd818a61168a565b905081810360208301526116f1818961168a565b90508181036040830152611705818861168a565b90508181036060830152611719818761168a565b9050818103608083015261172d818661168a565b905081810360a0830152611741818561168a565b905081810360c0830152611755818461168a565b905098975050505050505050565b60008060006060848603121561177c5761177b611093565b5b600061178a868287016110e6565b935050602084013567ffffffffffffffff8111156117ab576117aa611098565b5b6117b786828701611244565b92505060406117c8868287016110e6565b9150509250925092565b7f4e487b7100000000000000000000000000000000000000000000000000000000600052603260045260246000fd5b7f4e487b7100000000000000000000000000000000000000000000000000000000600052601160045260246000fd5b6000819050919050565b600061184582611830565b91507fffffffffffffffffffffffffffffffffffffffffffffffffffffffffffffffff820361187757611876611801565b5b600182019050919050565b7f4e487b7100000000000000000000000000000000000000000000000000000000600052602260045260246000fd5b600060028204905060018216806118c957607f821691505b6020821081036118dc576118db611882565b5b50919050565b60008190508160005260206000209050919050565b60006020601f8301049050919050565b600082821b905092915050565b6000600883026119447fffffffffffffffffffffffffffffffffffffffffffffffffffffffffffffffff82611907565b61194e8683611907565b95508019841693508086168417925050509392505050565b6000819050919050565b600061198b61198661198184611830565b611966565b611830565b9050919050565b6000819050919050565b6119a583611970565b6119b96119b182611992565b848454611914565b825550505050565b600090565b6119ce6119c1565b6119d981848461199c565b505050565b5b818110156119fd576119f26000826119c6565b6001810190506119df565b5050565b601f821115611a4257611a13816118e2565b611a1c846118f7565b81016020851015611a2b578190505b611a3f611a37856118f7565b8301826119de565b50505b505050565b600082821c905092915050565b6000611a6560001984600802611a47565b1980831691505092915050565b6000611a7e8383611a54565b9150826002028217905092915050565b611a97826113dc565b67ffffffffffffffff811115611ab057611aaf611111565b5b611aba82546118b1565b611ac5828285611a01565b600060209050601f831160018114611af85760008415611ae6578287015190505b611af08582611a72565b865550611b58565b601f198416611b06866118e2565b60005b82811015611b2e57848901518255600182019150602085019450602081019050611b09565b86831015611b4b5784890151611b47601f891682611a54565b8355505b6001600288020188555050505b50505050505056fea2646970667358221220a359fe0172c376e14855deeb0ea8121596fd6341c9b45347ccea4450ae782dff64736f6c63430008130033",
  "immutableReferences": {},
  "source": "// SPDX-License-Identifier: MIT\n\npragma solidity >=0.7.0 <0.9.0;\n\ncontract LaboratoryInfo {\n    uint256 reportCounter = 0;\n    struct Laboratory {\n        string name;\n        string recordsDelivered;\n        string experience;\n        string rating;\n        string email;\n        string about;\n        string profileImageURL;\n        Reports[] reports;\n    }\n\n    struct Reports {\n        address patientAddress;\n        address doctorAddress;\n        string reportType;\n        string[] cids;\n    }\n\n    mapping(address => Laboratory) laboratories;\n\n    function registerLaboratory(\n        string memory name,\n        string memory recordsDelivered,\n        string memory experience,\n        string memory rating,\n        string memory email,\n        string memory about,\n        string memory profileImageURL\n    ) public {\n        laboratories[msg.sender].name = name;\n        laboratories[msg.sender].recordsDelivered = recordsDelivered;\n        laboratories[msg.sender].experience = experience;\n        laboratories[msg.sender].rating = rating;\n        laboratories[msg.sender].email = email;\n        laboratories[msg.sender].about = about;\n        laboratories[msg.sender].profileImageURL = profileImageURL;\n    }\n\n    function getLaboratoryInfo(address laboratoryAddress)\n        public\n        view\n        returns (\n            string memory name,\n            string memory recordsDelivered,\n            string memory experience,\n            string memory rating,\n            string memory email,\n            string memory about,\n            string memory profileImageURL\n        )\n    {\n        Laboratory memory laboratory = laboratories[laboratoryAddress];\n        return (\n            laboratory.name,\n            laboratory.recordsDelivered,\n            laboratory.experience,\n            laboratory.rating,\n            laboratory.email,\n            laboratory.about,\n            laboratory.profileImageURL\n        );\n    }\n\n    function requestReport(\n        address doctorAddress,\n        string memory reportType,\n        address laboratoryAddress\n    ) public {\n        laboratories[laboratoryAddress].reports.push(\n            Reports(msg.sender, doctorAddress, reportType, new string[](0))\n        );\n\n        reportCounter++;\n    }\n\n    function generateReport(address patientAddress_, string[] memory cids_)\n        public\n    {\n        for (uint256 i = 0; i < reportCounter; i++) {\n            if (\n                laboratories[msg.sender].reports[i].patientAddress ==\n                patientAddress_\n            ) {\n                laboratories[msg.sender].reports[i].cids = cids_;\n            }\n        }\n    }\n\n    function getReport(address patientAddress_)\n        public\n        view\n        returns (string[] memory)\n    {\n        uint256 i;\n        for (i = 0; i < reportCounter; i++) {\n            if (\n                laboratories[msg.sender].reports[i].patientAddress ==\n                patientAddress_\n            ) {\n                break;\n            }\n        }\n        return laboratories[msg.sender].reports[i].cids;\n    }\n}\n",
  "sourcePath": "/Users/ishajasani/Desktop/FLUJECTS/GFG_TECHIE TWINS/Techie-Twins/techie_twins/contracts/LaboratoryInfo.sol",
  "compiler": {
    "name": "solc",
    "version": "0.8.19+commit.7dd6d404.Emscripten.clang"
  },
  "schemaVersion": "3.4.13",
  "updatedAt": "2023-05-26T09:36:16.168Z",
  "networkType": "ethereum",
  "devdoc": {
    "kind": "dev",
    "methods": {},
    "version": 1
  },
  "userdoc": {
    "kind": "user",
    "methods": {},
    "version": 1
  }
}