{
  "contractName": "LaboratoryInfo",
  "abi": [
    {
      "anonymous": false,
      "inputs": [
        {
          "indexed": true,
          "internalType": "address",
          "name": "laboratoryAddress",
          "type": "address"
        },
        {
          "indexed": false,
          "internalType": "string",
          "name": "name",
          "type": "string"
        }
      ],
      "name": "LaboratoryRegistration",
      "type": "event"
    },
    {
      "inputs": [
        {
          "internalType": "string",
          "name": "name",
          "type": "string"
        },
        {
          "internalType": "string",
          "name": "recordsDelivered",
          "type": "string"
        },
        {
          "internalType": "string",
          "name": "experience",
          "type": "string"
        },
        {
          "internalType": "string",
          "name": "rating",
          "type": "string"
        },
        {
          "internalType": "string",
          "name": "email",
          "type": "string"
        },
        {
          "internalType": "string",
          "name": "about",
          "type": "string"
        },
        {
          "internalType": "string",
          "name": "profileImageURL",
          "type": "string"
        }
      ],
      "name": "registerLaboratory",
      "outputs": [],
      "stateMutability": "nonpayable",
      "type": "function"
    },
    {
      "inputs": [
        {
          "internalType": "address",
          "name": "laboratoryAddress",
          "type": "address"
        }
      ],
      "name": "getLaboratoryInfo",
      "outputs": [
        {
          "internalType": "string",
          "name": "name",
          "type": "string"
        },
        {
          "internalType": "string",
          "name": "recordsDelivered",
          "type": "string"
        },
        {
          "internalType": "string",
          "name": "experience",
          "type": "string"
        },
        {
          "internalType": "string",
          "name": "rating",
          "type": "string"
        },
        {
          "internalType": "string",
          "name": "email",
          "type": "string"
        },
        {
          "internalType": "string",
          "name": "about",
          "type": "string"
        },
        {
          "internalType": "string",
          "name": "profileImageURL",
          "type": "string"
        }
      ],
      "stateMutability": "view",
      "type": "function",
      "constant": true
    }
  ],
  "bytecode": "0x608060405234801561001057600080fd5b50610f4a806100206000396000f3fe608060405234801561001057600080fd5b50600436106100365760003560e01c8063b12dc2db1461003b578063ef55607714610057575b600080fd5b610055600480360381019061005091906108fa565b61008d565b005b610071600480360381019061006c9190610abe565b61030d565b6040516100849796959493929190610b6a565b60405180910390f35b866000803373ffffffffffffffffffffffffffffffffffffffff1673ffffffffffffffffffffffffffffffffffffffff16815260200190815260200160002060000190816100db9190610e20565b50856000803373ffffffffffffffffffffffffffffffffffffffff1673ffffffffffffffffffffffffffffffffffffffff168152602001908152602001600020600101908161012a9190610e20565b50846000803373ffffffffffffffffffffffffffffffffffffffff1673ffffffffffffffffffffffffffffffffffffffff16815260200190815260200160002060020190816101799190610e20565b50836000803373ffffffffffffffffffffffffffffffffffffffff1673ffffffffffffffffffffffffffffffffffffffff16815260200190815260200160002060030190816101c89190610e20565b50826000803373ffffffffffffffffffffffffffffffffffffffff1673ffffffffffffffffffffffffffffffffffffffff16815260200190815260200160002060040190816102179190610e20565b50816000803373ffffffffffffffffffffffffffffffffffffffff1673ffffffffffffffffffffffffffffffffffffffff16815260200190815260200160002060050190816102669190610e20565b50806000803373ffffffffffffffffffffffffffffffffffffffff1673ffffffffffffffffffffffffffffffffffffffff16815260200190815260200160002060060190816102b59190610e20565b503373ffffffffffffffffffffffffffffffffffffffff167fb73f02be10f1ad4250fe23833a3e5f1b8e7a8df90048bba8c371b82e2ecbe857886040516102fc9190610ef2565b60405180910390a250505050505050565b606080606080606080606060008060008a73ffffffffffffffffffffffffffffffffffffffff1673ffffffffffffffffffffffffffffffffffffffff1681526020019081526020016000206040518060e001604052908160008201805461037390610c39565b80601f016020809104026020016040519081016040528092919081815260200182805461039f90610c39565b80156103ec5780601f106103c1576101008083540402835291602001916103ec565b820191906000526020600020905b8154815290600101906020018083116103cf57829003601f168201915b5050505050815260200160018201805461040590610c39565b80601f016020809104026020016040519081016040528092919081815260200182805461043190610c39565b801561047e5780601f106104535761010080835404028352916020019161047e565b820191906000526020600020905b81548152906001019060200180831161046157829003601f168201915b5050505050815260200160028201805461049790610c39565b80601f01602080910402602001604051908101604052809291908181526020018280546104c390610c39565b80156105105780601f106104e557610100808354040283529160200191610510565b820191906000526020600020905b8154815290600101906020018083116104f357829003601f168201915b5050505050815260200160038201805461052990610c39565b80601f016020809104026020016040519081016040528092919081815260200182805461055590610c39565b80156105a25780601f10610577576101008083540402835291602001916105a2565b820191906000526020600020905b81548152906001019060200180831161058557829003601f168201915b505050505081526020016004820180546105bb90610c39565b80601f01602080910402602001604051908101604052809291908181526020018280546105e790610c39565b80156106345780601f1061060957610100808354040283529160200191610634565b820191906000526020600020905b81548152906001019060200180831161061757829003601f168201915b5050505050815260200160058201805461064d90610c39565b80601f016020809104026020016040519081016040528092919081815260200182805461067990610c39565b80156106c65780601f1061069b576101008083540402835291602001916106c6565b820191906000526020600020905b8154815290600101906020018083116106a957829003601f168201915b505050505081526020016006820180546106df90610c39565b80601f016020809104026020016040519081016040528092919081815260200182805461070b90610c39565b80156107585780601f1061072d57610100808354040283529160200191610758565b820191906000526020600020905b81548152906001019060200180831161073b57829003601f168201915b5050505050815250509050806000015181602001518260400151836060015184608001518560a001518660c00151975097509750975097509750975050919395979092949650565b6000604051905090565b600080fd5b600080fd5b600080fd5b600080fd5b6000601f19601f8301169050919050565b7f4e487b7100000000000000000000000000000000000000000000000000000000600052604160045260246000fd5b610807826107be565b810181811067ffffffffffffffff82111715610826576108256107cf565b5b80604052505050565b60006108396107a0565b905061084582826107fe565b919050565b600067ffffffffffffffff821115610865576108646107cf565b5b61086e826107be565b9050602081019050919050565b82818337600083830152505050565b600061089d6108988461084a565b61082f565b9050828152602081018484840111156108b9576108b86107b9565b5b6108c484828561087b565b509392505050565b600082601f8301126108e1576108e06107b4565b5b81356108f184826020860161088a565b91505092915050565b600080600080600080600060e0888a031215610919576109186107aa565b5b600088013567ffffffffffffffff811115610937576109366107af565b5b6109438a828b016108cc565b975050602088013567ffffffffffffffff811115610964576109636107af565b5b6109708a828b016108cc565b965050604088013567ffffffffffffffff811115610991576109906107af565b5b61099d8a828b016108cc565b955050606088013567ffffffffffffffff8111156109be576109bd6107af565b5b6109ca8a828b016108cc565b945050608088013567ffffffffffffffff8111156109eb576109ea6107af565b5b6109f78a828b016108cc565b93505060a088013567ffffffffffffffff811115610a1857610a176107af565b5b610a248a828b016108cc565b92505060c088013567ffffffffffffffff811115610a4557610a446107af565b5b610a518a828b016108cc565b91505092959891949750929550565b600073ffffffffffffffffffffffffffffffffffffffff82169050919050565b6000610a8b82610a60565b9050919050565b610a9b81610a80565b8114610aa657600080fd5b50565b600081359050610ab881610a92565b92915050565b600060208284031215610ad457610ad36107aa565b5b6000610ae284828501610aa9565b91505092915050565b600081519050919050565b600082825260208201905092915050565b60005b83811015610b25578082015181840152602081019050610b0a565b60008484015250505050565b6000610b3c82610aeb565b610b468185610af6565b9350610b56818560208601610b07565b610b5f816107be565b840191505092915050565b600060e0820190508181036000830152610b84818a610b31565b90508181036020830152610b988189610b31565b90508181036040830152610bac8188610b31565b90508181036060830152610bc08187610b31565b90508181036080830152610bd48186610b31565b905081810360a0830152610be88185610b31565b905081810360c0830152610bfc8184610b31565b905098975050505050505050565b7f4e487b7100000000000000000000000000000000000000000000000000000000600052602260045260246000fd5b60006002820490506001821680610c5157607f821691505b602082108103610c6457610c63610c0a565b5b50919050565b60008190508160005260206000209050919050565b60006020601f8301049050919050565b600082821b905092915050565b600060088302610ccc7fffffffffffffffffffffffffffffffffffffffffffffffffffffffffffffffff82610c8f565b610cd68683610c8f565b95508019841693508086168417925050509392505050565b6000819050919050565b6000819050919050565b6000610d1d610d18610d1384610cee565b610cf8565b610cee565b9050919050565b6000819050919050565b610d3783610d02565b610d4b610d4382610d24565b848454610c9c565b825550505050565b600090565b610d60610d53565b610d6b818484610d2e565b505050565b5b81811015610d8f57610d84600082610d58565b600181019050610d71565b5050565b601f821115610dd457610da581610c6a565b610dae84610c7f565b81016020851015610dbd578190505b610dd1610dc985610c7f565b830182610d70565b50505b505050565b600082821c905092915050565b6000610df760001984600802610dd9565b1980831691505092915050565b6000610e108383610de6565b9150826002028217905092915050565b610e2982610aeb565b67ffffffffffffffff811115610e4257610e416107cf565b5b610e4c8254610c39565b610e57828285610d93565b600060209050601f831160018114610e8a5760008415610e78578287015190505b610e828582610e04565b865550610eea565b601f198416610e9886610c6a565b60005b82811015610ec057848901518255600182019150602085019450602081019050610e9b565b86831015610edd5784890151610ed9601f891682610de6565b8355505b6001600288020188555050505b505050505050565b60006020820190508181036000830152610f0c8184610b31565b90509291505056fea26469706673582212202ae318e613facf1d51cf08bfe6776c1355b6334db59418f46cac4f3b03305b0c64736f6c63430008130033",
  "immutableReferences": {},
  "source": "// SPDX-License-Identifier: MIT\n\npragma solidity >=0.7.0 <0.9.0;\n\ncontract LaboratoryInfo{\n    struct Laboratory{\n        string name;\n        string recordsDelivered;\n        string experience;\n        string rating;\n        string email;\n        string about;\n        string profileImageURL;\n    }\n\n    mapping(address => Laboratory) laboratories;\n\n    event LaboratoryRegistration(address indexed laboratoryAddress, string name);\n\n    function registerLaboratory(\n        string memory name,\n        string memory recordsDelivered,\n        string memory experience,\n        string memory rating,\n        string memory email,\n        string memory about,\n        string memory profileImageURL\n    ) public {\n        laboratories[msg.sender].name = name;\n        laboratories[msg.sender].recordsDelivered = recordsDelivered;\n        laboratories[msg.sender].experience = experience;\n        laboratories[msg.sender].rating = rating;\n        laboratories[msg.sender].email = email;\n        laboratories[msg.sender].about = about;\n        laboratories[msg.sender].profileImageURL = profileImageURL;\n        emit LaboratoryRegistration(msg.sender, name);\n    }\n\n    function getLaboratoryInfo(address laboratoryAddress)public view\n        returns (\n        string memory name,\n        string memory recordsDelivered,\n        string memory experience,\n        string memory rating,\n        string memory email,\n        string memory about,\n        string memory profileImageURL\n        )\n    {\n        Laboratory memory laboratory = laboratories[laboratoryAddress];\n        return (\n            laboratory.name,\n            laboratory.recordsDelivered,\n            laboratory.experience,\n            laboratory.rating,\n            laboratory.email,\n            laboratory.about,\n            laboratory.profileImageURL\n        );\n    }\n}",
  "sourcePath": "/Users/ishajasani/Desktop/FLUJECTS/GFG_TECHIE TWINS/Techie-Twins/techie_twins/contracts/LaboratoryInfo.sol",
  "compiler": {
    "name": "solc",
    "version": "0.8.19+commit.7dd6d404.Emscripten.clang"
  },
  "schemaVersion": "3.4.13",
  "updatedAt": "2023-05-24T11:42:59.889Z",
  "networkType": "ethereum",
  "devdoc": {
    "kind": "dev",
    "methods": {},
    "version": 1
  },
  "userdoc": {
    "kind": "user",
    "methods": {},
    "version": 1
  }
}