{
  "contractName": "PatientInfo",
  "abi": [
    {
      "inputs": [
        {
          "internalType": "address",
          "name": "",
          "type": "address"
        }
      ],
      "name": "patients",
      "outputs": [
        {
          "internalType": "string",
          "name": "name",
          "type": "string"
        },
        {
          "internalType": "string",
          "name": "blood",
          "type": "string"
        },
        {
          "internalType": "string",
          "name": "age",
          "type": "string"
        },
        {
          "internalType": "string",
          "name": "gender",
          "type": "string"
        },
        {
          "internalType": "string",
          "name": "email",
          "type": "string"
        },
        {
          "internalType": "string",
          "name": "phone",
          "type": "string"
        },
        {
          "internalType": "string",
          "name": "height",
          "type": "string"
        },
        {
          "internalType": "string",
          "name": "weight",
          "type": "string"
        },
        {
          "internalType": "string",
          "name": "profileImageURL",
          "type": "string"
        }
      ],
      "stateMutability": "view",
      "type": "function",
      "constant": true
    },
    {
      "inputs": [
        {
          "internalType": "string",
          "name": "name",
          "type": "string"
        },
        {
          "internalType": "string",
          "name": "blood",
          "type": "string"
        },
        {
          "internalType": "string",
          "name": "age",
          "type": "string"
        },
        {
          "internalType": "string",
          "name": "height",
          "type": "string"
        },
        {
          "internalType": "string",
          "name": "weight",
          "type": "string"
        },
        {
          "internalType": "string",
          "name": "gender",
          "type": "string"
        },
        {
          "internalType": "string",
          "name": "email",
          "type": "string"
        },
        {
          "internalType": "string",
          "name": "phone",
          "type": "string"
        },
        {
          "internalType": "string",
          "name": "profileImageURL",
          "type": "string"
        }
      ],
      "name": "registerPatient",
      "outputs": [],
      "stateMutability": "nonpayable",
      "type": "function"
    },
    {
      "inputs": [
        {
          "internalType": "address",
          "name": "patientAddress",
          "type": "address"
        }
      ],
      "name": "getPatient",
      "outputs": [
        {
          "internalType": "string",
          "name": "name",
          "type": "string"
        },
        {
          "internalType": "string",
          "name": "blood",
          "type": "string"
        },
        {
          "internalType": "string",
          "name": "age",
          "type": "string"
        },
        {
          "internalType": "string",
          "name": "height",
          "type": "string"
        },
        {
          "internalType": "string",
          "name": "weight",
          "type": "string"
        },
        {
          "internalType": "string",
          "name": "gender",
          "type": "string"
        },
        {
          "internalType": "string",
          "name": "email",
          "type": "string"
        },
        {
          "internalType": "string",
          "name": "phone",
          "type": "string"
        },
        {
          "internalType": "string",
          "name": "profileImageURL",
          "type": "string"
        }
      ],
      "stateMutability": "view",
      "type": "function",
      "constant": true
    },
    {
      "inputs": [
        {
          "internalType": "string",
          "name": "cid",
          "type": "string"
        },
        {
          "internalType": "address",
          "name": "patientAddress",
          "type": "address"
        }
      ],
      "name": "setPatientRecordCids",
      "outputs": [],
      "stateMutability": "nonpayable",
      "type": "function"
    },
    {
      "inputs": [
        {
          "internalType": "address",
          "name": "patientAddress",
          "type": "address"
        }
      ],
      "name": "getPatientRecordCids",
      "outputs": [
        {
          "internalType": "string[]",
          "name": "cid_",
          "type": "string[]"
        }
      ],
      "stateMutability": "view",
      "type": "function",
      "constant": true
    },
    {
      "inputs": [
        {
          "internalType": "uint256",
          "name": "timestamp",
          "type": "uint256"
        },
        {
          "internalType": "address",
          "name": "doctorAddress",
          "type": "address"
        },
        {
          "internalType": "address",
          "name": "patientAddress",
          "type": "address"
        },
        {
          "internalType": "string",
          "name": "link",
          "type": "string"
        }
      ],
      "name": "addAppointment",
      "outputs": [],
      "stateMutability": "nonpayable",
      "type": "function"
    },
    {
      "inputs": [
        {
          "internalType": "address",
          "name": "patientAddress",
          "type": "address"
        }
      ],
      "name": "getMyAppointments",
      "outputs": [
        {
          "components": [
            {
              "internalType": "address",
              "name": "doctorAddress",
              "type": "address"
            },
            {
              "internalType": "uint256",
              "name": "datetime",
              "type": "uint256"
            },
            {
              "internalType": "bool",
              "name": "isConfirmed",
              "type": "bool"
            },
            {
              "internalType": "string",
              "name": "meetingLink",
              "type": "string"
            }
          ],
          "internalType": "struct PatientInfo.Appointment[]",
          "name": "",
          "type": "tuple[]"
        }
      ],
      "stateMutability": "view",
      "type": "function",
      "constant": true
    },
    {
      "inputs": [
        {
          "internalType": "address",
          "name": "doctorAddress_",
          "type": "address"
        },
        {
          "internalType": "address",
          "name": "patientAddress",
          "type": "address"
        }
      ],
      "name": "toggleAccess",
      "outputs": [],
      "stateMutability": "nonpayable",
      "type": "function"
    },
    {
      "inputs": [
        {
          "internalType": "address",
          "name": "patientAddress",
          "type": "address"
        },
        {
          "internalType": "address",
          "name": "doctorAddress_",
          "type": "address"
        }
      ],
      "name": "shareCids",
      "outputs": [
        {
          "internalType": "string[]",
          "name": "",
          "type": "string[]"
        }
      ],
      "stateMutability": "view",
      "type": "function",
      "constant": true
    }
  ],
  "bytecode": "0x608060405234801561001057600080fd5b50612b03806100206000396000f3fe608060405234801561001057600080fd5b50600436106100935760003560e01c806392e3020c1161006657806392e3020c146101385780639375074a146101685780639d820a3614610184578063b5368e20146101b4578063f9c2caa5146101ec57610093565b80630869cfbc1461009857806344a4b331146100d05780634ad297ce14610100578063769319591461011c575b600080fd5b6100b260048036038101906100ad9190611ec2565b610208565b6040516100c799989796959493929190611f7f565b60405180910390f35b6100ea60048036038101906100e5919061204b565b61071e565b6040516100f79190612197565b60405180910390f35b61011a600480360381019061011591906122ee565b6109d5565b005b61013660048036038101906101319190612380565b610a4d565b005b610152600480360381019061014d9190611ec2565b610ce4565b60405161015f9190612561565b60405180910390f35b610182600480360381019061017d919061204b565b610e91565b005b61019e60048036038101906101999190611ec2565b61112d565b6040516101ab9190612197565b60405180910390f35b6101ce60048036038101906101c99190611ec2565b611247565b6040516101e399989796959493929190611f7f565b60405180910390f35b61020660048036038101906102019190612583565b611b7e565b005b600060205280600052604060002060009150905080600001805461022b90612778565b80601f016020809104026020016040519081016040528092919081815260200182805461025790612778565b80156102a45780601f10610279576101008083540402835291602001916102a4565b820191906000526020600020905b81548152906001019060200180831161028757829003601f168201915b5050505050908060010180546102b990612778565b80601f01602080910402602001604051908101604052809291908181526020018280546102e590612778565b80156103325780601f1061030757610100808354040283529160200191610332565b820191906000526020600020905b81548152906001019060200180831161031557829003601f168201915b50505050509080600201805461034790612778565b80601f016020809104026020016040519081016040528092919081815260200182805461037390612778565b80156103c05780601f10610395576101008083540402835291602001916103c0565b820191906000526020600020905b8154815290600101906020018083116103a357829003601f168201915b5050505050908060030180546103d590612778565b80601f016020809104026020016040519081016040528092919081815260200182805461040190612778565b801561044e5780601f106104235761010080835404028352916020019161044e565b820191906000526020600020905b81548152906001019060200180831161043157829003601f168201915b50505050509080600401805461046390612778565b80601f016020809104026020016040519081016040528092919081815260200182805461048f90612778565b80156104dc5780601f106104b1576101008083540402835291602001916104dc565b820191906000526020600020905b8154815290600101906020018083116104bf57829003601f168201915b5050505050908060050180546104f190612778565b80601f016020809104026020016040519081016040528092919081815260200182805461051d90612778565b801561056a5780601f1061053f5761010080835404028352916020019161056a565b820191906000526020600020905b81548152906001019060200180831161054d57829003601f168201915b50505050509080600601805461057f90612778565b80601f01602080910402602001604051908101604052809291908181526020018280546105ab90612778565b80156105f85780601f106105cd576101008083540402835291602001916105f8565b820191906000526020600020905b8154815290600101906020018083116105db57829003601f168201915b50505050509080600701805461060d90612778565b80601f016020809104026020016040519081016040528092919081815260200182805461063990612778565b80156106865780601f1061065b57610100808354040283529160200191610686565b820191906000526020600020905b81548152906001019060200180831161066957829003601f168201915b50505050509080600801805461069b90612778565b80601f01602080910402602001604051908101604052809291908181526020018280546106c790612778565b80156107145780601f106106e957610100808354040283529160200191610714565b820191906000526020600020905b8154815290600101906020018083116106f757829003601f168201915b5050505050905089565b60608060005b6000808673ffffffffffffffffffffffffffffffffffffffff1673ffffffffffffffffffffffffffffffffffffffff168152602001908152602001600020600b01805490508110156109ca578373ffffffffffffffffffffffffffffffffffffffff166000808773ffffffffffffffffffffffffffffffffffffffff1673ffffffffffffffffffffffffffffffffffffffff168152602001908152602001600020600b0182815481106107da576107d96127a9565b5b906000526020600020906002020160000160009054906101000a900473ffffffffffffffffffffffffffffffffffffffff1673ffffffffffffffffffffffffffffffffffffffff16036109b7576000808673ffffffffffffffffffffffffffffffffffffffff1673ffffffffffffffffffffffffffffffffffffffff168152602001908152602001600020600b01818154811061087a576108796127a9565b5b906000526020600020906002020160010160149054906101000a900460ff16156109b6576000808673ffffffffffffffffffffffffffffffffffffffff1673ffffffffffffffffffffffffffffffffffffffff168152602001908152602001600020600901805480602002602001604051908101604052809291908181526020016000905b828210156109ab57838290600052602060002001805461091e90612778565b80601f016020809104026020016040519081016040528092919081815260200182805461094a90612778565b80156109975780601f1061096c57610100808354040283529160200191610997565b820191906000526020600020905b81548152906001019060200180831161097a57829003601f168201915b5050505050815260200190600101906108ff565b5050505091506109ca565b5b80806109c290612807565b915050610724565b508091505092915050565b6000808273ffffffffffffffffffffffffffffffffffffffff1673ffffffffffffffffffffffffffffffffffffffff16815260200190815260200160002060090182908060018154018082558091505060019003906000526020600020016000909190919091509081610a4891906129fb565b505050565b6000808373ffffffffffffffffffffffffffffffffffffffff1673ffffffffffffffffffffffffffffffffffffffff168152602001908152602001600020600a0160405180608001604052808573ffffffffffffffffffffffffffffffffffffffff16815260200186815260200160001515815260200183815250908060018154018082558091505060019003906000526020600020906004020160009091909190915060008201518160000160006101000a81548173ffffffffffffffffffffffffffffffffffffffff021916908373ffffffffffffffffffffffffffffffffffffffff1602179055506020820151816001015560408201518160020160006101000a81548160ff0219169083151502179055506060820151816003019081610b7791906129fb565b5050506000808373ffffffffffffffffffffffffffffffffffffffff1673ffffffffffffffffffffffffffffffffffffffff168152602001908152602001600020600b0160405180606001604052808573ffffffffffffffffffffffffffffffffffffffff1681526020018473ffffffffffffffffffffffffffffffffffffffff16815260200160001515815250908060018154018082558091505060019003906000526020600020906002020160009091909190915060008201518160000160006101000a81548173ffffffffffffffffffffffffffffffffffffffff021916908373ffffffffffffffffffffffffffffffffffffffff16021790555060208201518160010160006101000a81548173ffffffffffffffffffffffffffffffffffffffff021916908373ffffffffffffffffffffffffffffffffffffffff16021790555060408201518160010160146101000a81548160ff021916908315150217905550505050505050565b60606000808373ffffffffffffffffffffffffffffffffffffffff1673ffffffffffffffffffffffffffffffffffffffff168152602001908152602001600020600a01805480602002602001604051908101604052809291908181526020016000905b82821015610e8657838290600052602060002090600402016040518060800160405290816000820160009054906101000a900473ffffffffffffffffffffffffffffffffffffffff1673ffffffffffffffffffffffffffffffffffffffff1673ffffffffffffffffffffffffffffffffffffffff168152602001600182015481526020016002820160009054906101000a900460ff16151515158152602001600382018054610df590612778565b80601f0160208091040260200160405190810160405280929190818152602001828054610e2190612778565b8015610e6e5780601f10610e4357610100808354040283529160200191610e6e565b820191906000526020600020905b815481529060010190602001808311610e5157829003601f168201915b50505050508152505081526020019060010190610d47565b505050509050919050565b60005b6000808373ffffffffffffffffffffffffffffffffffffffff1673ffffffffffffffffffffffffffffffffffffffff168152602001908152602001600020600b0180549050811015611128578273ffffffffffffffffffffffffffffffffffffffff166000808473ffffffffffffffffffffffffffffffffffffffff1673ffffffffffffffffffffffffffffffffffffffff168152602001908152602001600020600b018281548110610f4a57610f496127a9565b5b906000526020600020906002020160000160009054906101000a900473ffffffffffffffffffffffffffffffffffffffff1673ffffffffffffffffffffffffffffffffffffffff160361111557600015156000808473ffffffffffffffffffffffffffffffffffffffff1673ffffffffffffffffffffffffffffffffffffffff168152602001908152602001600020600b018281548110610fee57610fed6127a9565b5b906000526020600020906002020160010160149054906101000a900460ff161515036110965760016000808473ffffffffffffffffffffffffffffffffffffffff1673ffffffffffffffffffffffffffffffffffffffff168152602001908152602001600020600b018281548110611069576110686127a9565b5b906000526020600020906002020160010160146101000a81548160ff021916908315150217905550611114565b60008060008473ffffffffffffffffffffffffffffffffffffffff1673ffffffffffffffffffffffffffffffffffffffff168152602001908152602001600020600b0182815481106110eb576110ea6127a9565b5b906000526020600020906002020160010160146101000a81548160ff0219169083151502179055505b5b808061112090612807565b915050610e94565b505050565b60606000808373ffffffffffffffffffffffffffffffffffffffff1673ffffffffffffffffffffffffffffffffffffffff168152602001908152602001600020600901805480602002602001604051908101604052809291908181526020016000905b8282101561123c5783829060005260206000200180546111af90612778565b80601f01602080910402602001604051908101604052809291908181526020018280546111db90612778565b80156112285780601f106111fd57610100808354040283529160200191611228565b820191906000526020600020905b81548152906001019060200180831161120b57829003601f168201915b505050505081526020019060010190611190565b505050509050919050565b606080606080606080606080606060008060008c73ffffffffffffffffffffffffffffffffffffffff1673ffffffffffffffffffffffffffffffffffffffff168152602001908152602001600020604051806101800160405290816000820180546112b190612778565b80601f01602080910402602001604051908101604052809291908181526020018280546112dd90612778565b801561132a5780601f106112ff5761010080835404028352916020019161132a565b820191906000526020600020905b81548152906001019060200180831161130d57829003601f168201915b5050505050815260200160018201805461134390612778565b80601f016020809104026020016040519081016040528092919081815260200182805461136f90612778565b80156113bc5780601f10611391576101008083540402835291602001916113bc565b820191906000526020600020905b81548152906001019060200180831161139f57829003601f168201915b505050505081526020016002820180546113d590612778565b80601f016020809104026020016040519081016040528092919081815260200182805461140190612778565b801561144e5780601f106114235761010080835404028352916020019161144e565b820191906000526020600020905b81548152906001019060200180831161143157829003601f168201915b5050505050815260200160038201805461146790612778565b80601f016020809104026020016040519081016040528092919081815260200182805461149390612778565b80156114e05780601f106114b5576101008083540402835291602001916114e0565b820191906000526020600020905b8154815290600101906020018083116114c357829003601f168201915b505050505081526020016004820180546114f990612778565b80601f016020809104026020016040519081016040528092919081815260200182805461152590612778565b80156115725780601f1061154757610100808354040283529160200191611572565b820191906000526020600020905b81548152906001019060200180831161155557829003601f168201915b5050505050815260200160058201805461158b90612778565b80601f01602080910402602001604051908101604052809291908181526020018280546115b790612778565b80156116045780601f106115d957610100808354040283529160200191611604565b820191906000526020600020905b8154815290600101906020018083116115e757829003601f168201915b5050505050815260200160068201805461161d90612778565b80601f016020809104026020016040519081016040528092919081815260200182805461164990612778565b80156116965780601f1061166b57610100808354040283529160200191611696565b820191906000526020600020905b81548152906001019060200180831161167957829003601f168201915b505050505081526020016007820180546116af90612778565b80601f01602080910402602001604051908101604052809291908181526020018280546116db90612778565b80156117285780601f106116fd57610100808354040283529160200191611728565b820191906000526020600020905b81548152906001019060200180831161170b57829003601f168201915b5050505050815260200160088201805461174190612778565b80601f016020809104026020016040519081016040528092919081815260200182805461176d90612778565b80156117ba5780601f1061178f576101008083540402835291602001916117ba565b820191906000526020600020905b81548152906001019060200180831161179d57829003601f168201915b5050505050815260200160098201805480602002602001604051908101604052809291908181526020016000905b8282101561189457838290600052602060002001805461180790612778565b80601f016020809104026020016040519081016040528092919081815260200182805461183390612778565b80156118805780601f1061185557610100808354040283529160200191611880565b820191906000526020600020905b81548152906001019060200180831161186357829003601f168201915b5050505050815260200190600101906117e8565b505050508152602001600a8201805480602002602001604051908101604052809291908181526020016000905b82821015611a0057838290600052602060002090600402016040518060800160405290816000820160009054906101000a900473ffffffffffffffffffffffffffffffffffffffff1673ffffffffffffffffffffffffffffffffffffffff1673ffffffffffffffffffffffffffffffffffffffff168152602001600182015481526020016002820160009054906101000a900460ff1615151515815260200160038201805461196f90612778565b80601f016020809104026020016040519081016040528092919081815260200182805461199b90612778565b80156119e85780601f106119bd576101008083540402835291602001916119e8565b820191906000526020600020905b8154815290600101906020018083116119cb57829003601f168201915b505050505081525050815260200190600101906118c1565b505050508152602001600b8201805480602002602001604051908101604052809291908181526020016000905b82821015611b2657838290600052602060002090600202016040518060600160405290816000820160009054906101000a900473ffffffffffffffffffffffffffffffffffffffff1673ffffffffffffffffffffffffffffffffffffffff1673ffffffffffffffffffffffffffffffffffffffff1681526020016001820160009054906101000a900473ffffffffffffffffffffffffffffffffffffffff1673ffffffffffffffffffffffffffffffffffffffff1673ffffffffffffffffffffffffffffffffffffffff1681526020016001820160149054906101000a900460ff16151515158152505081526020019060010190611a2d565b505050508152505090508060000151816020015182604001518360c001518460e00151856060015186608001518760a00151886101000151995099509950995099509950995099509950509193959799909294969850565b886000803373ffffffffffffffffffffffffffffffffffffffff1673ffffffffffffffffffffffffffffffffffffffff1681526020019081526020016000206000019081611bcc91906129fb565b50876000803373ffffffffffffffffffffffffffffffffffffffff1673ffffffffffffffffffffffffffffffffffffffff1681526020019081526020016000206001019081611c1b91906129fb565b50866000803373ffffffffffffffffffffffffffffffffffffffff1673ffffffffffffffffffffffffffffffffffffffff1681526020019081526020016000206002019081611c6a91906129fb565b50836000803373ffffffffffffffffffffffffffffffffffffffff1673ffffffffffffffffffffffffffffffffffffffff1681526020019081526020016000206003019081611cb991906129fb565b50826000803373ffffffffffffffffffffffffffffffffffffffff1673ffffffffffffffffffffffffffffffffffffffff1681526020019081526020016000206004019081611d0891906129fb565b50856000803373ffffffffffffffffffffffffffffffffffffffff1673ffffffffffffffffffffffffffffffffffffffff1681526020019081526020016000206006019081611d5791906129fb565b50846000803373ffffffffffffffffffffffffffffffffffffffff1673ffffffffffffffffffffffffffffffffffffffff1681526020019081526020016000206007019081611da691906129fb565b50816000803373ffffffffffffffffffffffffffffffffffffffff1673ffffffffffffffffffffffffffffffffffffffff1681526020019081526020016000206005019081611df591906129fb565b50806000803373ffffffffffffffffffffffffffffffffffffffff1673ffffffffffffffffffffffffffffffffffffffff1681526020019081526020016000206008019081611e4491906129fb565b50505050505050505050565b6000604051905090565b600080fd5b600080fd5b600073ffffffffffffffffffffffffffffffffffffffff82169050919050565b6000611e8f82611e64565b9050919050565b611e9f81611e84565b8114611eaa57600080fd5b50565b600081359050611ebc81611e96565b92915050565b600060208284031215611ed857611ed7611e5a565b5b6000611ee684828501611ead565b91505092915050565b600081519050919050565b600082825260208201905092915050565b60005b83811015611f29578082015181840152602081019050611f0e565b60008484015250505050565b6000601f19601f8301169050919050565b6000611f5182611eef565b611f5b8185611efa565b9350611f6b818560208601611f0b565b611f7481611f35565b840191505092915050565b6000610120820190508181036000830152611f9a818c611f46565b90508181036020830152611fae818b611f46565b90508181036040830152611fc2818a611f46565b90508181036060830152611fd68189611f46565b90508181036080830152611fea8188611f46565b905081810360a0830152611ffe8187611f46565b905081810360c08301526120128186611f46565b905081810360e08301526120268185611f46565b905081810361010083015261203b8184611f46565b90509a9950505050505050505050565b6000806040838503121561206257612061611e5a565b5b600061207085828601611ead565b925050602061208185828601611ead565b9150509250929050565b600081519050919050565b600082825260208201905092915050565b6000819050602082019050919050565b600082825260208201905092915050565b60006120d382611eef565b6120dd81856120b7565b93506120ed818560208601611f0b565b6120f681611f35565b840191505092915050565b600061210d83836120c8565b905092915050565b6000602082019050919050565b600061212d8261208b565b6121378185612096565b935083602082028501612149856120a7565b8060005b8581101561218557848403895281516121668582612101565b945061217183612115565b925060208a0199505060018101905061214d565b50829750879550505050505092915050565b600060208201905081810360008301526121b18184612122565b905092915050565b600080fd5b600080fd5b7f4e487b7100000000000000000000000000000000000000000000000000000000600052604160045260246000fd5b6121fb82611f35565b810181811067ffffffffffffffff8211171561221a576122196121c3565b5b80604052505050565b600061222d611e50565b905061223982826121f2565b919050565b600067ffffffffffffffff821115612259576122586121c3565b5b61226282611f35565b9050602081019050919050565b82818337600083830152505050565b600061229161228c8461223e565b612223565b9050828152602081018484840111156122ad576122ac6121be565b5b6122b884828561226f565b509392505050565b600082601f8301126122d5576122d46121b9565b5b81356122e584826020860161227e565b91505092915050565b6000806040838503121561230557612304611e5a565b5b600083013567ffffffffffffffff81111561232357612322611e5f565b5b61232f858286016122c0565b925050602061234085828601611ead565b9150509250929050565b6000819050919050565b61235d8161234a565b811461236857600080fd5b50565b60008135905061237a81612354565b92915050565b6000806000806080858703121561239a57612399611e5a565b5b60006123a88782880161236b565b94505060206123b987828801611ead565b93505060406123ca87828801611ead565b925050606085013567ffffffffffffffff8111156123eb576123ea611e5f565b5b6123f7878288016122c0565b91505092959194509250565b600081519050919050565b600082825260208201905092915050565b6000819050602082019050919050565b61243881611e84565b82525050565b6124478161234a565b82525050565b60008115159050919050565b6124628161244d565b82525050565b6000608083016000830151612480600086018261242f565b506020830151612493602086018261243e565b5060408301516124a66040860182612459565b50606083015184820360608601526124be82826120c8565b9150508091505092915050565b60006124d78383612468565b905092915050565b6000602082019050919050565b60006124f782612403565b612501818561240e565b9350836020820285016125138561241f565b8060005b8581101561254f578484038952815161253085826124cb565b945061253b836124df565b925060208a01995050600181019050612517565b50829750879550505050505092915050565b6000602082019050818103600083015261257b81846124ec565b905092915050565b60008060008060008060008060006101208a8c0312156125a6576125a5611e5a565b5b60008a013567ffffffffffffffff8111156125c4576125c3611e5f565b5b6125d08c828d016122c0565b99505060208a013567ffffffffffffffff8111156125f1576125f0611e5f565b5b6125fd8c828d016122c0565b98505060408a013567ffffffffffffffff81111561261e5761261d611e5f565b5b61262a8c828d016122c0565b97505060608a013567ffffffffffffffff81111561264b5761264a611e5f565b5b6126578c828d016122c0565b96505060808a013567ffffffffffffffff81111561267857612677611e5f565b5b6126848c828d016122c0565b95505060a08a013567ffffffffffffffff8111156126a5576126a4611e5f565b5b6126b18c828d016122c0565b94505060c08a013567ffffffffffffffff8111156126d2576126d1611e5f565b5b6126de8c828d016122c0565b93505060e08a013567ffffffffffffffff8111156126ff576126fe611e5f565b5b61270b8c828d016122c0565b9250506101008a013567ffffffffffffffff81111561272d5761272c611e5f565b5b6127398c828d016122c0565b9150509295985092959850929598565b7f4e487b7100000000000000000000000000000000000000000000000000000000600052602260045260246000fd5b6000600282049050600182168061279057607f821691505b6020821081036127a3576127a2612749565b5b50919050565b7f4e487b7100000000000000000000000000000000000000000000000000000000600052603260045260246000fd5b7f4e487b7100000000000000000000000000000000000000000000000000000000600052601160045260246000fd5b60006128128261234a565b91507fffffffffffffffffffffffffffffffffffffffffffffffffffffffffffffffff8203612844576128436127d8565b5b600182019050919050565b60008190508160005260206000209050919050565b60006020601f8301049050919050565b600082821b905092915050565b6000600883026128b17fffffffffffffffffffffffffffffffffffffffffffffffffffffffffffffffff82612874565b6128bb8683612874565b95508019841693508086168417925050509392505050565b6000819050919050565b60006128f86128f36128ee8461234a565b6128d3565b61234a565b9050919050565b6000819050919050565b612912836128dd565b61292661291e826128ff565b848454612881565b825550505050565b600090565b61293b61292e565b612946818484612909565b505050565b5b8181101561296a5761295f600082612933565b60018101905061294c565b5050565b601f8211156129af576129808161284f565b61298984612864565b81016020851015612998578190505b6129ac6129a485612864565b83018261294b565b50505b505050565b600082821c905092915050565b60006129d2600019846008026129b4565b1980831691505092915050565b60006129eb83836129c1565b9150826002028217905092915050565b612a0482611eef565b67ffffffffffffffff811115612a1d57612a1c6121c3565b5b612a278254612778565b612a3282828561296e565b600060209050601f831160018114612a655760008415612a53578287015190505b612a5d85826129df565b865550612ac5565b601f198416612a738661284f565b60005b82811015612a9b57848901518255600182019150602085019450602081019050612a76565b86831015612ab85784890151612ab4601f8916826129c1565b8355505b6001600288020188555050505b50505050505056fea2646970667358221220c43d76df662802d6e489d1a696a896aaf7a3d73d96355aafd0431aac4615123b64736f6c63430008130033",
  "immutableReferences": {},
  "source": "// SPDX-License-Identifier: GPL-3.0\r\n\r\npragma solidity >=0.7.0 <0.9.0;\r\n\r\ncontract PatientInfo {\r\n    struct Appointment {\r\n        address doctorAddress;\r\n        uint256 datetime;\r\n        bool isConfirmed;\r\n        string  meetingLink;\r\n    }\r\n\r\n    struct Patient {\r\n        string name;\r\n        string blood;\r\n        string age;\r\n        string gender;\r\n        string email;\r\n        string phone;\r\n        string height;\r\n        string weight;\r\n        string profileImageURL;\r\n        string[] recordCids;\r\n        Appointment[] appointments;\r\n        DoctorAccess[] access;\r\n    }\r\n\r\n    struct DoctorAccess {\r\n        address doctorAddress;\r\n        address patientAddress;\r\n        bool hasAccess;\r\n    }\r\n\r\n    mapping(address => Patient) public patients;\r\n\r\n    function registerPatient(\r\n        string memory name,\r\n        string memory blood,\r\n        string memory age,\r\n        string memory height,\r\n        string memory weight,\r\n        string memory gender,\r\n        string memory email,\r\n        string memory phone,\r\n        string memory profileImageURL\r\n    ) public {\r\n        patients[msg.sender].name = name;\r\n        patients[msg.sender].blood = blood;\r\n        patients[msg.sender].age = age;\r\n        patients[msg.sender].gender = gender;\r\n        patients[msg.sender].email = email;\r\n        patients[msg.sender].height = height;\r\n        patients[msg.sender].weight = weight;\r\n        patients[msg.sender].phone = phone;\r\n        patients[msg.sender].profileImageURL = profileImageURL;\r\n    }\r\n\r\n    function getPatient(address patientAddress)\r\n        public\r\n        view\r\n        returns (\r\n            string memory name,\r\n            string memory blood,\r\n            string memory age,\r\n            string memory height,\r\n            string memory weight,\r\n            string memory gender,\r\n            string memory email,\r\n            string memory phone,\r\n            string memory profileImageURL\r\n        )\r\n    {\r\n        Patient memory patient = patients[patientAddress];\r\n        return (\r\n            patient.name,\r\n            patient.blood,\r\n            patient.age,\r\n            patient.height,\r\n            patient.weight,\r\n            patient.gender,\r\n            patient.email,\r\n            patient.phone,\r\n            patient.profileImageURL\r\n        );\r\n    }\r\n\r\n    function setPatientRecordCids(string memory cid, address patientAddress)\r\n        public\r\n    {\r\n        patients[patientAddress].recordCids.push(cid);\r\n    }\r\n\r\n    function getPatientRecordCids(address patientAddress)\r\n        public\r\n        view\r\n        returns (string[] memory cid_)\r\n    {\r\n        cid_ = patients[patientAddress].recordCids;\r\n    }\r\n\r\n    function addAppointment(\r\n        uint256 timestamp,\r\n        address doctorAddress,\r\n        address patientAddress,\r\n        string memory link\r\n\r\n\r\n    ) public {\r\n        patients[patientAddress].appointments.push(\r\n            Appointment(doctorAddress, timestamp, false, link)\r\n        );\r\n        patients[patientAddress].access.push(\r\n            DoctorAccess(doctorAddress, patientAddress, false)\r\n        );\r\n    }\r\n\r\n    function getMyAppointments(address patientAddress)\r\n        public\r\n        view\r\n        returns (Appointment[] memory)\r\n    {\r\n        return patients[patientAddress].appointments;\r\n    }\r\n\r\n    function toggleAccess(address doctorAddress_, address patientAddress)\r\n        public\r\n    {\r\n        for (uint256 i = 0; i < patients[patientAddress].access.length; i++) {\r\n            if (\r\n                patients[patientAddress].access[i].doctorAddress ==\r\n                doctorAddress_\r\n            ) {\r\n                if(patients[patientAddress].access[i].hasAccess == false){\r\n                    patients[patientAddress].access[i].hasAccess = true;\r\n                }\r\n                else \r\n                {\r\n                    patients[patientAddress].access[i].hasAccess = false;\r\n                }\r\n            }\r\n        }\r\n    }\r\n\r\n    function shareCids(address patientAddress, address doctorAddress_)\r\n        public\r\n        view\r\n        returns (string [] memory)\r\n    {\r\n        string[] memory recordCids;\r\n        for (uint256 i = 0; i < patients[patientAddress].access.length; i++) {\r\n            if (\r\n                patients[patientAddress].access[i].doctorAddress ==\r\n                doctorAddress_\r\n            ) {\r\n                if( patients[patientAddress].access[i].hasAccess){\r\n                    recordCids =  patients[patientAddress].recordCids;\r\n                    break;\r\n                }\r\n            }\r\n        }\r\n        return recordCids;\r\n    }\r\n}\r\n",
  "sourcePath": "C:\\Users\\mohit\\Desktop\\Techie-Twins\\techie_twins\\contracts\\PatientInfo.sol",
  "compiler": {
    "name": "solc",
    "version": "0.8.19+commit.7dd6d404.Emscripten.clang"
  },
  "schemaVersion": "3.4.13",
  "updatedAt": "2023-05-27T16:51:47.810Z",
  "networkType": "ethereum",
  "devdoc": {
    "kind": "dev",
    "methods": {},
    "version": 1
  },
  "userdoc": {
    "kind": "user",
    "methods": {},
    "version": 1
  }
}