{
  "contractName": "PatientInfo",
  "abi": [
    {
      "inputs": [
        {
          "internalType": "address",
          "name": "",
          "type": "address"
        }
      ],
      "name": "patients",
      "outputs": [
        {
          "internalType": "string",
          "name": "name",
          "type": "string"
        },
        {
          "internalType": "string",
          "name": "blood",
          "type": "string"
        },
        {
          "internalType": "string",
          "name": "age",
          "type": "string"
        },
        {
          "internalType": "string",
          "name": "gender",
          "type": "string"
        },
        {
          "internalType": "string",
          "name": "email",
          "type": "string"
        },
        {
          "internalType": "string",
          "name": "phone",
          "type": "string"
        },
        {
          "internalType": "string",
          "name": "height",
          "type": "string"
        },
        {
          "internalType": "string",
          "name": "weight",
          "type": "string"
        },
        {
          "internalType": "string",
          "name": "profileImageURL",
          "type": "string"
        }
      ],
      "stateMutability": "view",
      "type": "function",
      "constant": true
    },
    {
      "inputs": [
        {
          "internalType": "string",
          "name": "name",
          "type": "string"
        },
        {
          "internalType": "string",
          "name": "blood",
          "type": "string"
        },
        {
          "internalType": "string",
          "name": "age",
          "type": "string"
        },
        {
          "internalType": "string",
          "name": "height",
          "type": "string"
        },
        {
          "internalType": "string",
          "name": "weight",
          "type": "string"
        },
        {
          "internalType": "string",
          "name": "gender",
          "type": "string"
        },
        {
          "internalType": "string",
          "name": "email",
          "type": "string"
        },
        {
          "internalType": "string",
          "name": "phone",
          "type": "string"
        },
        {
          "internalType": "string",
          "name": "profileImageURL",
          "type": "string"
        }
      ],
      "name": "registerPatient",
      "outputs": [],
      "stateMutability": "nonpayable",
      "type": "function"
    },
    {
      "inputs": [
        {
          "internalType": "address",
          "name": "patientAddress",
          "type": "address"
        }
      ],
      "name": "getPatient",
      "outputs": [
        {
          "internalType": "string",
          "name": "name",
          "type": "string"
        },
        {
          "internalType": "string",
          "name": "blood",
          "type": "string"
        },
        {
          "internalType": "string",
          "name": "age",
          "type": "string"
        },
        {
          "internalType": "string",
          "name": "height",
          "type": "string"
        },
        {
          "internalType": "string",
          "name": "weight",
          "type": "string"
        },
        {
          "internalType": "string",
          "name": "gender",
          "type": "string"
        },
        {
          "internalType": "string",
          "name": "email",
          "type": "string"
        },
        {
          "internalType": "string",
          "name": "phone",
          "type": "string"
        },
        {
          "internalType": "string",
          "name": "profileImageURL",
          "type": "string"
        }
      ],
      "stateMutability": "view",
      "type": "function",
      "constant": true
    },
    {
      "inputs": [
        {
          "internalType": "string",
          "name": "cid",
          "type": "string"
        }
      ],
      "name": "setPatientRecordCids",
      "outputs": [],
      "stateMutability": "nonpayable",
      "type": "function"
    },
    {
      "inputs": [],
      "name": "getPatientRecordCids",
      "outputs": [
        {
          "internalType": "string[]",
          "name": "cid_",
          "type": "string[]"
        }
      ],
      "stateMutability": "view",
      "type": "function",
      "constant": true
    },
    {
      "inputs": [
        {
          "internalType": "uint256",
          "name": "timestamp",
          "type": "uint256"
        },
        {
          "internalType": "address",
          "name": "doctorAddress",
          "type": "address"
        },
        {
          "internalType": "address",
          "name": "patientAddress",
          "type": "address"
        },
        {
          "internalType": "bool",
          "name": "isConfirmed",
          "type": "bool"
        }
      ],
      "name": "addAppointment",
      "outputs": [],
      "stateMutability": "nonpayable",
      "type": "function"
    },
    {
      "inputs": [],
      "name": "getMyAppointments",
      "outputs": [
        {
          "components": [
            {
              "internalType": "address",
              "name": "doctorAddress",
              "type": "address"
            },
            {
              "internalType": "uint256",
              "name": "datetime",
              "type": "uint256"
            },
            {
              "internalType": "bool",
              "name": "isConfirmed",
              "type": "bool"
            }
          ],
          "internalType": "struct PatientInfo.Appointment[]",
          "name": "",
          "type": "tuple[]"
        }
      ],
      "stateMutability": "view",
      "type": "function",
      "constant": true
    }
  ],
  "bytecode": "0x6080604052600060015534801561001557600080fd5b5061203d806100256000396000f3fe608060405234801561001057600080fd5b506004361061007d5760003560e01c8063b5368e201161005b578063b5368e20146100f4578063c5e8036d1461012c578063ceaf444e14610148578063f9c2caa5146101665761007d565b80630869cfbc146100825780630d15a118146100ba57806399e5ca9a146100d6575b600080fd5b61009c60048036038101906100979190611519565b610182565b6040516100b1999897969594939291906115d6565b60405180910390f35b6100d460048036038101906100cf91906117d7565b610698565b005b6100de61070f565b6040516100eb919061192c565b60405180910390f35b61010e60048036038101906101099190611519565b610827565b604051610123999897969594939291906115d6565b60405180910390f35b610146600480360381019061014191906119bc565b610fa6565b005b6101506110bc565b60405161015d9190611b41565b60405180910390f35b610180600480360381019061017b9190611b63565b6111d5565b005b60006020528060005260406000206000915090508060000180546101a590611d58565b80601f01602080910402602001604051908101604052809291908181526020018280546101d190611d58565b801561021e5780601f106101f35761010080835404028352916020019161021e565b820191906000526020600020905b81548152906001019060200180831161020157829003601f168201915b50505050509080600101805461023390611d58565b80601f016020809104026020016040519081016040528092919081815260200182805461025f90611d58565b80156102ac5780601f10610281576101008083540402835291602001916102ac565b820191906000526020600020905b81548152906001019060200180831161028f57829003601f168201915b5050505050908060020180546102c190611d58565b80601f01602080910402602001604051908101604052809291908181526020018280546102ed90611d58565b801561033a5780601f1061030f5761010080835404028352916020019161033a565b820191906000526020600020905b81548152906001019060200180831161031d57829003601f168201915b50505050509080600301805461034f90611d58565b80601f016020809104026020016040519081016040528092919081815260200182805461037b90611d58565b80156103c85780601f1061039d576101008083540402835291602001916103c8565b820191906000526020600020905b8154815290600101906020018083116103ab57829003601f168201915b5050505050908060040180546103dd90611d58565b80601f016020809104026020016040519081016040528092919081815260200182805461040990611d58565b80156104565780601f1061042b57610100808354040283529160200191610456565b820191906000526020600020905b81548152906001019060200180831161043957829003601f168201915b50505050509080600501805461046b90611d58565b80601f016020809104026020016040519081016040528092919081815260200182805461049790611d58565b80156104e45780601f106104b9576101008083540402835291602001916104e4565b820191906000526020600020905b8154815290600101906020018083116104c757829003601f168201915b5050505050908060060180546104f990611d58565b80601f016020809104026020016040519081016040528092919081815260200182805461052590611d58565b80156105725780601f1061054757610100808354040283529160200191610572565b820191906000526020600020905b81548152906001019060200180831161055557829003601f168201915b50505050509080600701805461058790611d58565b80601f01602080910402602001604051908101604052809291908181526020018280546105b390611d58565b80156106005780601f106105d557610100808354040283529160200191610600565b820191906000526020600020905b8154815290600101906020018083116105e357829003601f168201915b50505050509080600801805461061590611d58565b80601f016020809104026020016040519081016040528092919081815260200182805461064190611d58565b801561068e5780601f106106635761010080835404028352916020019161068e565b820191906000526020600020905b81548152906001019060200180831161067157829003601f168201915b5050505050905089565b6000803373ffffffffffffffffffffffffffffffffffffffff1673ffffffffffffffffffffffffffffffffffffffff1681526020019081526020016000206009018190806001815401808255809150506001900390600052602060002001600090919091909150908161070b9190611f35565b5050565b60606000803373ffffffffffffffffffffffffffffffffffffffff1673ffffffffffffffffffffffffffffffffffffffff168152602001908152602001600020600901805480602002602001604051908101604052809291908181526020016000905b8282101561081e57838290600052602060002001805461079190611d58565b80601f01602080910402602001604051908101604052809291908181526020018280546107bd90611d58565b801561080a5780601f106107df5761010080835404028352916020019161080a565b820191906000526020600020905b8154815290600101906020018083116107ed57829003601f168201915b505050505081526020019060010190610772565b50505050905090565b606080606080606080606080606060008060008c73ffffffffffffffffffffffffffffffffffffffff1673ffffffffffffffffffffffffffffffffffffffff1681526020019081526020016000206040518061016001604052908160008201805461089190611d58565b80601f01602080910402602001604051908101604052809291908181526020018280546108bd90611d58565b801561090a5780601f106108df5761010080835404028352916020019161090a565b820191906000526020600020905b8154815290600101906020018083116108ed57829003601f168201915b5050505050815260200160018201805461092390611d58565b80601f016020809104026020016040519081016040528092919081815260200182805461094f90611d58565b801561099c5780601f106109715761010080835404028352916020019161099c565b820191906000526020600020905b81548152906001019060200180831161097f57829003601f168201915b505050505081526020016002820180546109b590611d58565b80601f01602080910402602001604051908101604052809291908181526020018280546109e190611d58565b8015610a2e5780601f10610a0357610100808354040283529160200191610a2e565b820191906000526020600020905b815481529060010190602001808311610a1157829003601f168201915b50505050508152602001600382018054610a4790611d58565b80601f0160208091040260200160405190810160405280929190818152602001828054610a7390611d58565b8015610ac05780601f10610a9557610100808354040283529160200191610ac0565b820191906000526020600020905b815481529060010190602001808311610aa357829003601f168201915b50505050508152602001600482018054610ad990611d58565b80601f0160208091040260200160405190810160405280929190818152602001828054610b0590611d58565b8015610b525780601f10610b2757610100808354040283529160200191610b52565b820191906000526020600020905b815481529060010190602001808311610b3557829003601f168201915b50505050508152602001600582018054610b6b90611d58565b80601f0160208091040260200160405190810160405280929190818152602001828054610b9790611d58565b8015610be45780601f10610bb957610100808354040283529160200191610be4565b820191906000526020600020905b815481529060010190602001808311610bc757829003601f168201915b50505050508152602001600682018054610bfd90611d58565b80601f0160208091040260200160405190810160405280929190818152602001828054610c2990611d58565b8015610c765780601f10610c4b57610100808354040283529160200191610c76565b820191906000526020600020905b815481529060010190602001808311610c5957829003601f168201915b50505050508152602001600782018054610c8f90611d58565b80601f0160208091040260200160405190810160405280929190818152602001828054610cbb90611d58565b8015610d085780601f10610cdd57610100808354040283529160200191610d08565b820191906000526020600020905b815481529060010190602001808311610ceb57829003601f168201915b50505050508152602001600882018054610d2190611d58565b80601f0160208091040260200160405190810160405280929190818152602001828054610d4d90611d58565b8015610d9a5780601f10610d6f57610100808354040283529160200191610d9a565b820191906000526020600020905b815481529060010190602001808311610d7d57829003601f168201915b5050505050815260200160098201805480602002602001604051908101604052809291908181526020016000905b82821015610e74578382906000526020600020018054610de790611d58565b80601f0160208091040260200160405190810160405280929190818152602001828054610e1390611d58565b8015610e605780601f10610e3557610100808354040283529160200191610e60565b820191906000526020600020905b815481529060010190602001808311610e4357829003601f168201915b505050505081526020019060010190610dc8565b505050508152602001600a8201805480602002602001604051908101604052809291908181526020016000905b82821015610f4e57838290600052602060002090600302016040518060600160405290816000820160009054906101000a900473ffffffffffffffffffffffffffffffffffffffff1673ffffffffffffffffffffffffffffffffffffffff1673ffffffffffffffffffffffffffffffffffffffff168152602001600182015481526020016002820160009054906101000a900460ff16151515158152505081526020019060010190610ea1565b505050508152505090508060000151816020015182604001518360c001518460e00151856060015186608001518760a00151886101000151995099509950995099509950995099509950509193959799909294969850565b6000808373ffffffffffffffffffffffffffffffffffffffff1673ffffffffffffffffffffffffffffffffffffffff168152602001908152602001600020600a0160405180606001604052808573ffffffffffffffffffffffffffffffffffffffff168152602001868152602001831515815250908060018154018082558091505060019003906000526020600020906003020160009091909190915060008201518160000160006101000a81548173ffffffffffffffffffffffffffffffffffffffff021916908373ffffffffffffffffffffffffffffffffffffffff1602179055506020820151816001015560408201518160020160006101000a81548160ff021916908315150217905550505050505050565b60606000803373ffffffffffffffffffffffffffffffffffffffff1673ffffffffffffffffffffffffffffffffffffffff168152602001908152602001600020600a01805480602002602001604051908101604052809291908181526020016000905b828210156111cc57838290600052602060002090600302016040518060600160405290816000820160009054906101000a900473ffffffffffffffffffffffffffffffffffffffff1673ffffffffffffffffffffffffffffffffffffffff1673ffffffffffffffffffffffffffffffffffffffff168152602001600182015481526020016002820160009054906101000a900460ff1615151515815250508152602001906001019061111f565b50505050905090565b886000803373ffffffffffffffffffffffffffffffffffffffff1673ffffffffffffffffffffffffffffffffffffffff16815260200190815260200160002060000190816112239190611f35565b50876000803373ffffffffffffffffffffffffffffffffffffffff1673ffffffffffffffffffffffffffffffffffffffff16815260200190815260200160002060010190816112729190611f35565b50866000803373ffffffffffffffffffffffffffffffffffffffff1673ffffffffffffffffffffffffffffffffffffffff16815260200190815260200160002060020190816112c19190611f35565b50836000803373ffffffffffffffffffffffffffffffffffffffff1673ffffffffffffffffffffffffffffffffffffffff16815260200190815260200160002060030190816113109190611f35565b50826000803373ffffffffffffffffffffffffffffffffffffffff1673ffffffffffffffffffffffffffffffffffffffff168152602001908152602001600020600401908161135f9190611f35565b50856000803373ffffffffffffffffffffffffffffffffffffffff1673ffffffffffffffffffffffffffffffffffffffff16815260200190815260200160002060060190816113ae9190611f35565b50846000803373ffffffffffffffffffffffffffffffffffffffff1673ffffffffffffffffffffffffffffffffffffffff16815260200190815260200160002060070190816113fd9190611f35565b50816000803373ffffffffffffffffffffffffffffffffffffffff1673ffffffffffffffffffffffffffffffffffffffff168152602001908152602001600020600501908161144c9190611f35565b50806000803373ffffffffffffffffffffffffffffffffffffffff1673ffffffffffffffffffffffffffffffffffffffff168152602001908152602001600020600801908161149b9190611f35565b50505050505050505050565b6000604051905090565b600080fd5b600080fd5b600073ffffffffffffffffffffffffffffffffffffffff82169050919050565b60006114e6826114bb565b9050919050565b6114f6816114db565b811461150157600080fd5b50565b600081359050611513816114ed565b92915050565b60006020828403121561152f5761152e6114b1565b5b600061153d84828501611504565b91505092915050565b600081519050919050565b600082825260208201905092915050565b60005b83811015611580578082015181840152602081019050611565565b60008484015250505050565b6000601f19601f8301169050919050565b60006115a882611546565b6115b28185611551565b93506115c2818560208601611562565b6115cb8161158c565b840191505092915050565b60006101208201905081810360008301526115f1818c61159d565b90508181036020830152611605818b61159d565b90508181036040830152611619818a61159d565b9050818103606083015261162d818961159d565b90508181036080830152611641818861159d565b905081810360a0830152611655818761159d565b905081810360c0830152611669818661159d565b905081810360e083015261167d818561159d565b9050818103610100830152611692818461159d565b90509a9950505050505050505050565b600080fd5b600080fd5b7f4e487b7100000000000000000000000000000000000000000000000000000000600052604160045260246000fd5b6116e48261158c565b810181811067ffffffffffffffff82111715611703576117026116ac565b5b80604052505050565b60006117166114a7565b905061172282826116db565b919050565b600067ffffffffffffffff821115611742576117416116ac565b5b61174b8261158c565b9050602081019050919050565b82818337600083830152505050565b600061177a61177584611727565b61170c565b905082815260208101848484011115611796576117956116a7565b5b6117a1848285611758565b509392505050565b600082601f8301126117be576117bd6116a2565b5b81356117ce848260208601611767565b91505092915050565b6000602082840312156117ed576117ec6114b1565b5b600082013567ffffffffffffffff81111561180b5761180a6114b6565b5b611817848285016117a9565b91505092915050565b600081519050919050565b600082825260208201905092915050565b6000819050602082019050919050565b600082825260208201905092915050565b600061186882611546565b611872818561184c565b9350611882818560208601611562565b61188b8161158c565b840191505092915050565b60006118a2838361185d565b905092915050565b6000602082019050919050565b60006118c282611820565b6118cc818561182b565b9350836020820285016118de8561183c565b8060005b8581101561191a57848403895281516118fb8582611896565b9450611906836118aa565b925060208a019950506001810190506118e2565b50829750879550505050505092915050565b6000602082019050818103600083015261194681846118b7565b905092915050565b6000819050919050565b6119618161194e565b811461196c57600080fd5b50565b60008135905061197e81611958565b92915050565b60008115159050919050565b61199981611984565b81146119a457600080fd5b50565b6000813590506119b681611990565b92915050565b600080600080608085870312156119d6576119d56114b1565b5b60006119e48782880161196f565b94505060206119f587828801611504565b9350506040611a0687828801611504565b9250506060611a17878288016119a7565b91505092959194509250565b600081519050919050565b600082825260208201905092915050565b6000819050602082019050919050565b611a58816114db565b82525050565b611a678161194e565b82525050565b611a7681611984565b82525050565b606082016000820151611a926000850182611a4f565b506020820151611aa56020850182611a5e565b506040820151611ab86040850182611a6d565b50505050565b6000611aca8383611a7c565b60608301905092915050565b6000602082019050919050565b6000611aee82611a23565b611af88185611a2e565b9350611b0383611a3f565b8060005b83811015611b34578151611b1b8882611abe565b9750611b2683611ad6565b925050600181019050611b07565b5085935050505092915050565b60006020820190508181036000830152611b5b8184611ae3565b905092915050565b60008060008060008060008060006101208a8c031215611b8657611b856114b1565b5b60008a013567ffffffffffffffff811115611ba457611ba36114b6565b5b611bb08c828d016117a9565b99505060208a013567ffffffffffffffff811115611bd157611bd06114b6565b5b611bdd8c828d016117a9565b98505060408a013567ffffffffffffffff811115611bfe57611bfd6114b6565b5b611c0a8c828d016117a9565b97505060608a013567ffffffffffffffff811115611c2b57611c2a6114b6565b5b611c378c828d016117a9565b96505060808a013567ffffffffffffffff811115611c5857611c576114b6565b5b611c648c828d016117a9565b95505060a08a013567ffffffffffffffff811115611c8557611c846114b6565b5b611c918c828d016117a9565b94505060c08a013567ffffffffffffffff811115611cb257611cb16114b6565b5b611cbe8c828d016117a9565b93505060e08a013567ffffffffffffffff811115611cdf57611cde6114b6565b5b611ceb8c828d016117a9565b9250506101008a013567ffffffffffffffff811115611d0d57611d0c6114b6565b5b611d198c828d016117a9565b9150509295985092959850929598565b7f4e487b7100000000000000000000000000000000000000000000000000000000600052602260045260246000fd5b60006002820490506001821680611d7057607f821691505b602082108103611d8357611d82611d29565b5b50919050565b60008190508160005260206000209050919050565b60006020601f8301049050919050565b600082821b905092915050565b600060088302611deb7fffffffffffffffffffffffffffffffffffffffffffffffffffffffffffffffff82611dae565b611df58683611dae565b95508019841693508086168417925050509392505050565b6000819050919050565b6000611e32611e2d611e288461194e565b611e0d565b61194e565b9050919050565b6000819050919050565b611e4c83611e17565b611e60611e5882611e39565b848454611dbb565b825550505050565b600090565b611e75611e68565b611e80818484611e43565b505050565b5b81811015611ea457611e99600082611e6d565b600181019050611e86565b5050565b601f821115611ee957611eba81611d89565b611ec384611d9e565b81016020851015611ed2578190505b611ee6611ede85611d9e565b830182611e85565b50505b505050565b600082821c905092915050565b6000611f0c60001984600802611eee565b1980831691505092915050565b6000611f258383611efb565b9150826002028217905092915050565b611f3e82611546565b67ffffffffffffffff811115611f5757611f566116ac565b5b611f618254611d58565b611f6c828285611ea8565b600060209050601f831160018114611f9f5760008415611f8d578287015190505b611f978582611f19565b865550611fff565b601f198416611fad86611d89565b60005b82811015611fd557848901518255600182019150602085019450602081019050611fb0565b86831015611ff25784890151611fee601f891682611efb565b8355505b6001600288020188555050505b50505050505056fea26469706673582212207ea5b9cd8a485e08df5ca8bc4b9016695ddff51895326ac4eba4aefc8afe544464736f6c63430008130033",
  "immutableReferences": {},
  "source": "// SPDX-License-Identifier: GPL-3.0\n\npragma solidity >=0.7.0 <0.9.0;\n\ncontract PatientInfo{\n    struct Appointment {\n        address doctorAddress;\n        uint256 datetime;\n        bool isConfirmed;\n    }\n\n    struct Patient {\n        string name;\n        string blood;\n        string age;\n        string gender;\n        string email;\n        string phone;\n        string height;\n        string weight;\n        string profileImageURL;\n        string[] recordCids;\n        Appointment[] appointments;\n    }\n\n    mapping(address => Patient) public patients;\n    uint appointmentCount = 0;\n\n    function registerPatient(\n        string memory name,\n        string memory blood,\n        string memory age,\n        string memory height,\n        string memory weight,\n        string memory gender,\n        string memory email,\n        string memory phone,\n        string memory profileImageURL\n    ) public {\n        patients[msg.sender].name = name;\n        patients[msg.sender].blood = blood;\n        patients[msg.sender].age = age;\n        patients[msg.sender].gender = gender;\n        patients[msg.sender].email = email;\n        patients[msg.sender].height = height;\n        patients[msg.sender].weight = weight;\n        patients[msg.sender].phone = phone;\n        patients[msg.sender].profileImageURL = profileImageURL;\n    }\n\n    function getPatient(\n        address patientAddress\n    )\n        public\n        view\n        returns (\n            string memory name,\n            string memory blood,\n            string memory age,\n            string memory height,\n            string memory weight,\n            string memory gender,\n            string memory email,\n            string memory phone,\n            string memory profileImageURL\n        )\n    {\n        Patient memory patient = patients[patientAddress];\n        return (\n            patient.name,\n            patient.blood,\n            patient.age,\n            patient.height,\n            patient.weight,\n            patient.gender,\n            patient.email,\n            patient.phone,\n            patient.profileImageURL\n        );\n    }\n\n    function setPatientRecordCids(string memory cid) public {\n        patients[msg.sender].recordCids.push(cid);\n    }\n\n    function getPatientRecordCids() public view returns (string[] memory cid_) {\n        cid_ = patients[msg.sender].recordCids;\n    }\n\n    function addAppointment (uint256 timestamp, address doctorAddress, address patientAddress,bool isConfirmed) public {\n        patients[patientAddress].appointments.push(Appointment(doctorAddress,timestamp,isConfirmed));\n    }\n\n    function getMyAppointments() public view returns (Appointment[] memory){\n        return patients[msg.sender].appointments;\n    }\n\n}",
  "sourcePath": "/Users/ishajasani/Desktop/FLUJECTS/GFG_TECHIE TWINS/Techie-Twins/techie_twins/contracts/PatientInfo.sol",
  "compiler": {
    "name": "solc",
    "version": "0.8.19+commit.7dd6d404.Emscripten.clang"
  },
  "schemaVersion": "3.4.13",
  "updatedAt": "2023-05-26T09:36:13.553Z",
  "networkType": "ethereum",
  "devdoc": {
    "kind": "dev",
    "methods": {},
    "version": 1
  },
  "userdoc": {
    "kind": "user",
    "methods": {},
    "version": 1
  }
}