{
  "contractName": "PatientInfo",
  "abi": [
    {
      "inputs": [
        {
          "internalType": "address",
          "name": "",
          "type": "address"
        }
      ],
      "name": "patients",
      "outputs": [
        {
          "internalType": "string",
          "name": "name",
          "type": "string"
        },
        {
          "internalType": "string",
          "name": "blood",
          "type": "string"
        },
        {
          "internalType": "string",
          "name": "age",
          "type": "string"
        },
        {
          "internalType": "string",
          "name": "gender",
          "type": "string"
        },
        {
          "internalType": "string",
          "name": "email",
          "type": "string"
        },
        {
          "internalType": "string",
          "name": "phone",
          "type": "string"
        },
        {
          "internalType": "string",
          "name": "height",
          "type": "string"
        },
        {
          "internalType": "string",
          "name": "weight",
          "type": "string"
        },
        {
          "internalType": "string",
          "name": "profileImageURL",
          "type": "string"
        }
      ],
      "stateMutability": "view",
      "type": "function",
      "constant": true
    },
    {
      "inputs": [
        {
          "internalType": "string",
          "name": "name",
          "type": "string"
        },
        {
          "internalType": "string",
          "name": "blood",
          "type": "string"
        },
        {
          "internalType": "string",
          "name": "age",
          "type": "string"
        },
        {
          "internalType": "string",
          "name": "height",
          "type": "string"
        },
        {
          "internalType": "string",
          "name": "weight",
          "type": "string"
        },
        {
          "internalType": "string",
          "name": "gender",
          "type": "string"
        },
        {
          "internalType": "string",
          "name": "email",
          "type": "string"
        },
        {
          "internalType": "string",
          "name": "phone",
          "type": "string"
        },
        {
          "internalType": "string",
          "name": "profileImageURL",
          "type": "string"
        }
      ],
      "name": "registerPatient",
      "outputs": [],
      "stateMutability": "nonpayable",
      "type": "function"
    },
    {
      "inputs": [
        {
          "internalType": "address",
          "name": "patientAddress",
          "type": "address"
        }
      ],
      "name": "getPatient",
      "outputs": [
        {
          "internalType": "string",
          "name": "name",
          "type": "string"
        },
        {
          "internalType": "string",
          "name": "blood",
          "type": "string"
        },
        {
          "internalType": "string",
          "name": "age",
          "type": "string"
        },
        {
          "internalType": "string",
          "name": "height",
          "type": "string"
        },
        {
          "internalType": "string",
          "name": "weight",
          "type": "string"
        },
        {
          "internalType": "string",
          "name": "gender",
          "type": "string"
        },
        {
          "internalType": "string",
          "name": "email",
          "type": "string"
        },
        {
          "internalType": "string",
          "name": "phone",
          "type": "string"
        },
        {
          "internalType": "string",
          "name": "profileImageURL",
          "type": "string"
        }
      ],
      "stateMutability": "view",
      "type": "function",
      "constant": true
    },
    {
      "inputs": [
        {
          "internalType": "string",
          "name": "cid",
          "type": "string"
        },
        {
          "internalType": "address",
          "name": "patientAddress",
          "type": "address"
        }
      ],
      "name": "setPatientRecordCids",
      "outputs": [],
      "stateMutability": "nonpayable",
      "type": "function"
    },
    {
      "inputs": [
        {
          "internalType": "address",
          "name": "patientAddress",
          "type": "address"
        }
      ],
      "name": "getPatientRecordCids",
      "outputs": [
        {
          "internalType": "string[]",
          "name": "cid_",
          "type": "string[]"
        }
      ],
      "stateMutability": "view",
      "type": "function",
      "constant": true
    },
    {
      "inputs": [
        {
          "internalType": "uint256",
          "name": "timestamp",
          "type": "uint256"
        },
        {
          "internalType": "address",
          "name": "doctorAddress",
          "type": "address"
        },
        {
          "internalType": "address",
          "name": "patientAddress",
          "type": "address"
        }
      ],
      "name": "addAppointment",
      "outputs": [],
      "stateMutability": "nonpayable",
      "type": "function"
    },
    {
      "inputs": [
        {
          "internalType": "address",
          "name": "patientAddress",
          "type": "address"
        }
      ],
      "name": "getMyAppointments",
      "outputs": [
        {
          "components": [
            {
              "internalType": "address",
              "name": "doctorAddress",
              "type": "address"
            },
            {
              "internalType": "uint256",
              "name": "datetime",
              "type": "uint256"
            },
            {
              "internalType": "bool",
              "name": "isConfirmed",
              "type": "bool"
            }
          ],
          "internalType": "struct PatientInfo.Appointment[]",
          "name": "",
          "type": "tuple[]"
        }
      ],
      "stateMutability": "view",
      "type": "function",
      "constant": true
    },
    {
      "inputs": [
        {
          "internalType": "address",
          "name": "doctorAddress_",
          "type": "address"
        },
        {
          "internalType": "address",
          "name": "patientAddress",
          "type": "address"
        }
      ],
      "name": "toggleAccess",
      "outputs": [],
      "stateMutability": "nonpayable",
      "type": "function"
    },
    {
      "inputs": [
        {
          "internalType": "address",
          "name": "patientAddress",
          "type": "address"
        },
        {
          "internalType": "address",
          "name": "doctorAddress_",
          "type": "address"
        }
      ],
      "name": "shareCids",
      "outputs": [
        {
          "internalType": "string[]",
          "name": "",
          "type": "string[]"
        }
      ],
      "stateMutability": "view",
      "type": "function",
      "constant": true
    }
  ],
  "bytecode": "0x608060405234801561001057600080fd5b5061295e806100206000396000f3fe608060405234801561001057600080fd5b50600436106100935760003560e01c80639375074a116100665780639375074a1461014c5780639d820a3614610168578063b5368e2014610198578063d9b72799146101d0578063f9c2caa5146101ec57610093565b80630869cfbc1461009857806344a4b331146100d05780634ad297ce1461010057806392e3020c1461011c575b600080fd5b6100b260048036038101906100ad9190611d81565b610208565b6040516100c799989796959493929190611e3e565b60405180910390f35b6100ea60048036038101906100e59190611f0a565b61071e565b6040516100f79190612056565b60405180910390f35b61011a600480360381019061011591906121ad565b6109d5565b005b61013660048036038101906101319190611d81565b610a4d565b604051610143919061233d565b60405180910390f35b61016660048036038101906101619190611f0a565b610b68565b005b610182600480360381019061017d9190611d81565b610e04565b60405161018f9190612056565b60405180910390f35b6101b260048036038101906101ad9190611d81565b610f1e565b6040516101c799989796959493929190611e3e565b60405180910390f35b6101ea60048036038101906101e5919061238b565b6117c3565b005b610206600480360381019061020191906123de565b611a3d565b005b600060205280600052604060002060009150905080600001805461022b906125d3565b80601f0160208091040260200160405190810160405280929190818152602001828054610257906125d3565b80156102a45780601f10610279576101008083540402835291602001916102a4565b820191906000526020600020905b81548152906001019060200180831161028757829003601f168201915b5050505050908060010180546102b9906125d3565b80601f01602080910402602001604051908101604052809291908181526020018280546102e5906125d3565b80156103325780601f1061030757610100808354040283529160200191610332565b820191906000526020600020905b81548152906001019060200180831161031557829003601f168201915b505050505090806002018054610347906125d3565b80601f0160208091040260200160405190810160405280929190818152602001828054610373906125d3565b80156103c05780601f10610395576101008083540402835291602001916103c0565b820191906000526020600020905b8154815290600101906020018083116103a357829003601f168201915b5050505050908060030180546103d5906125d3565b80601f0160208091040260200160405190810160405280929190818152602001828054610401906125d3565b801561044e5780601f106104235761010080835404028352916020019161044e565b820191906000526020600020905b81548152906001019060200180831161043157829003601f168201915b505050505090806004018054610463906125d3565b80601f016020809104026020016040519081016040528092919081815260200182805461048f906125d3565b80156104dc5780601f106104b1576101008083540402835291602001916104dc565b820191906000526020600020905b8154815290600101906020018083116104bf57829003601f168201915b5050505050908060050180546104f1906125d3565b80601f016020809104026020016040519081016040528092919081815260200182805461051d906125d3565b801561056a5780601f1061053f5761010080835404028352916020019161056a565b820191906000526020600020905b81548152906001019060200180831161054d57829003601f168201915b50505050509080600601805461057f906125d3565b80601f01602080910402602001604051908101604052809291908181526020018280546105ab906125d3565b80156105f85780601f106105cd576101008083540402835291602001916105f8565b820191906000526020600020905b8154815290600101906020018083116105db57829003601f168201915b50505050509080600701805461060d906125d3565b80601f0160208091040260200160405190810160405280929190818152602001828054610639906125d3565b80156106865780601f1061065b57610100808354040283529160200191610686565b820191906000526020600020905b81548152906001019060200180831161066957829003601f168201915b50505050509080600801805461069b906125d3565b80601f01602080910402602001604051908101604052809291908181526020018280546106c7906125d3565b80156107145780601f106106e957610100808354040283529160200191610714565b820191906000526020600020905b8154815290600101906020018083116106f757829003601f168201915b5050505050905089565b60608060005b6000808673ffffffffffffffffffffffffffffffffffffffff1673ffffffffffffffffffffffffffffffffffffffff168152602001908152602001600020600b01805490508110156109ca578373ffffffffffffffffffffffffffffffffffffffff166000808773ffffffffffffffffffffffffffffffffffffffff1673ffffffffffffffffffffffffffffffffffffffff168152602001908152602001600020600b0182815481106107da576107d9612604565b5b906000526020600020906002020160000160009054906101000a900473ffffffffffffffffffffffffffffffffffffffff1673ffffffffffffffffffffffffffffffffffffffff16036109b7576000808673ffffffffffffffffffffffffffffffffffffffff1673ffffffffffffffffffffffffffffffffffffffff168152602001908152602001600020600b01818154811061087a57610879612604565b5b906000526020600020906002020160010160149054906101000a900460ff16156109b6576000808673ffffffffffffffffffffffffffffffffffffffff1673ffffffffffffffffffffffffffffffffffffffff168152602001908152602001600020600901805480602002602001604051908101604052809291908181526020016000905b828210156109ab57838290600052602060002001805461091e906125d3565b80601f016020809104026020016040519081016040528092919081815260200182805461094a906125d3565b80156109975780601f1061096c57610100808354040283529160200191610997565b820191906000526020600020905b81548152906001019060200180831161097a57829003601f168201915b5050505050815260200190600101906108ff565b5050505091506109ca565b5b80806109c290612662565b915050610724565b508091505092915050565b6000808273ffffffffffffffffffffffffffffffffffffffff1673ffffffffffffffffffffffffffffffffffffffff16815260200190815260200160002060090182908060018154018082558091505060019003906000526020600020016000909190919091509081610a489190612856565b505050565b60606000808373ffffffffffffffffffffffffffffffffffffffff1673ffffffffffffffffffffffffffffffffffffffff168152602001908152602001600020600a01805480602002602001604051908101604052809291908181526020016000905b82821015610b5d57838290600052602060002090600302016040518060600160405290816000820160009054906101000a900473ffffffffffffffffffffffffffffffffffffffff1673ffffffffffffffffffffffffffffffffffffffff1673ffffffffffffffffffffffffffffffffffffffff168152602001600182015481526020016002820160009054906101000a900460ff16151515158152505081526020019060010190610ab0565b505050509050919050565b60005b6000808373ffffffffffffffffffffffffffffffffffffffff1673ffffffffffffffffffffffffffffffffffffffff168152602001908152602001600020600b0180549050811015610dff578273ffffffffffffffffffffffffffffffffffffffff166000808473ffffffffffffffffffffffffffffffffffffffff1673ffffffffffffffffffffffffffffffffffffffff168152602001908152602001600020600b018281548110610c2157610c20612604565b5b906000526020600020906002020160000160009054906101000a900473ffffffffffffffffffffffffffffffffffffffff1673ffffffffffffffffffffffffffffffffffffffff1603610dec57600015156000808473ffffffffffffffffffffffffffffffffffffffff1673ffffffffffffffffffffffffffffffffffffffff168152602001908152602001600020600b018281548110610cc557610cc4612604565b5b906000526020600020906002020160010160149054906101000a900460ff16151503610d6d5760016000808473ffffffffffffffffffffffffffffffffffffffff1673ffffffffffffffffffffffffffffffffffffffff168152602001908152602001600020600b018281548110610d4057610d3f612604565b5b906000526020600020906002020160010160146101000a81548160ff021916908315150217905550610deb565b60008060008473ffffffffffffffffffffffffffffffffffffffff1673ffffffffffffffffffffffffffffffffffffffff168152602001908152602001600020600b018281548110610dc257610dc1612604565b5b906000526020600020906002020160010160146101000a81548160ff0219169083151502179055505b5b8080610df790612662565b915050610b6b565b505050565b60606000808373ffffffffffffffffffffffffffffffffffffffff1673ffffffffffffffffffffffffffffffffffffffff168152602001908152602001600020600901805480602002602001604051908101604052809291908181526020016000905b82821015610f13578382906000526020600020018054610e86906125d3565b80601f0160208091040260200160405190810160405280929190818152602001828054610eb2906125d3565b8015610eff5780601f10610ed457610100808354040283529160200191610eff565b820191906000526020600020905b815481529060010190602001808311610ee257829003601f168201915b505050505081526020019060010190610e67565b505050509050919050565b606080606080606080606080606060008060008c73ffffffffffffffffffffffffffffffffffffffff1673ffffffffffffffffffffffffffffffffffffffff16815260200190815260200160002060405180610180016040529081600082018054610f88906125d3565b80601f0160208091040260200160405190810160405280929190818152602001828054610fb4906125d3565b80156110015780601f10610fd657610100808354040283529160200191611001565b820191906000526020600020905b815481529060010190602001808311610fe457829003601f168201915b5050505050815260200160018201805461101a906125d3565b80601f0160208091040260200160405190810160405280929190818152602001828054611046906125d3565b80156110935780601f1061106857610100808354040283529160200191611093565b820191906000526020600020905b81548152906001019060200180831161107657829003601f168201915b505050505081526020016002820180546110ac906125d3565b80601f01602080910402602001604051908101604052809291908181526020018280546110d8906125d3565b80156111255780601f106110fa57610100808354040283529160200191611125565b820191906000526020600020905b81548152906001019060200180831161110857829003601f168201915b5050505050815260200160038201805461113e906125d3565b80601f016020809104026020016040519081016040528092919081815260200182805461116a906125d3565b80156111b75780601f1061118c576101008083540402835291602001916111b7565b820191906000526020600020905b81548152906001019060200180831161119a57829003601f168201915b505050505081526020016004820180546111d0906125d3565b80601f01602080910402602001604051908101604052809291908181526020018280546111fc906125d3565b80156112495780601f1061121e57610100808354040283529160200191611249565b820191906000526020600020905b81548152906001019060200180831161122c57829003601f168201915b50505050508152602001600582018054611262906125d3565b80601f016020809104026020016040519081016040528092919081815260200182805461128e906125d3565b80156112db5780601f106112b0576101008083540402835291602001916112db565b820191906000526020600020905b8154815290600101906020018083116112be57829003601f168201915b505050505081526020016006820180546112f4906125d3565b80601f0160208091040260200160405190810160405280929190818152602001828054611320906125d3565b801561136d5780601f106113425761010080835404028352916020019161136d565b820191906000526020600020905b81548152906001019060200180831161135057829003601f168201915b50505050508152602001600782018054611386906125d3565b80601f01602080910402602001604051908101604052809291908181526020018280546113b2906125d3565b80156113ff5780601f106113d4576101008083540402835291602001916113ff565b820191906000526020600020905b8154815290600101906020018083116113e257829003601f168201915b50505050508152602001600882018054611418906125d3565b80601f0160208091040260200160405190810160405280929190818152602001828054611444906125d3565b80156114915780601f1061146657610100808354040283529160200191611491565b820191906000526020600020905b81548152906001019060200180831161147457829003601f168201915b5050505050815260200160098201805480602002602001604051908101604052809291908181526020016000905b8282101561156b5783829060005260206000200180546114de906125d3565b80601f016020809104026020016040519081016040528092919081815260200182805461150a906125d3565b80156115575780601f1061152c57610100808354040283529160200191611557565b820191906000526020600020905b81548152906001019060200180831161153a57829003601f168201915b5050505050815260200190600101906114bf565b505050508152602001600a8201805480602002602001604051908101604052809291908181526020016000905b8282101561164557838290600052602060002090600302016040518060600160405290816000820160009054906101000a900473ffffffffffffffffffffffffffffffffffffffff1673ffffffffffffffffffffffffffffffffffffffff1673ffffffffffffffffffffffffffffffffffffffff168152602001600182015481526020016002820160009054906101000a900460ff16151515158152505081526020019060010190611598565b505050508152602001600b8201805480602002602001604051908101604052809291908181526020016000905b8282101561176b57838290600052602060002090600202016040518060600160405290816000820160009054906101000a900473ffffffffffffffffffffffffffffffffffffffff1673ffffffffffffffffffffffffffffffffffffffff1673ffffffffffffffffffffffffffffffffffffffff1681526020016001820160009054906101000a900473ffffffffffffffffffffffffffffffffffffffff1673ffffffffffffffffffffffffffffffffffffffff1673ffffffffffffffffffffffffffffffffffffffff1681526020016001820160149054906101000a900460ff16151515158152505081526020019060010190611672565b505050508152505090508060000151816020015182604001518360c001518460e00151856060015186608001518760a00151886101000151995099509950995099509950995099509950509193959799909294969850565b6000808273ffffffffffffffffffffffffffffffffffffffff1673ffffffffffffffffffffffffffffffffffffffff168152602001908152602001600020600a0160405180606001604052808473ffffffffffffffffffffffffffffffffffffffff16815260200185815260200160001515815250908060018154018082558091505060019003906000526020600020906003020160009091909190915060008201518160000160006101000a81548173ffffffffffffffffffffffffffffffffffffffff021916908373ffffffffffffffffffffffffffffffffffffffff1602179055506020820151816001015560408201518160020160006101000a81548160ff02191690831515021790555050506000808273ffffffffffffffffffffffffffffffffffffffff1673ffffffffffffffffffffffffffffffffffffffff168152602001908152602001600020600b0160405180606001604052808473ffffffffffffffffffffffffffffffffffffffff1681526020018373ffffffffffffffffffffffffffffffffffffffff16815260200160001515815250908060018154018082558091505060019003906000526020600020906002020160009091909190915060008201518160000160006101000a81548173ffffffffffffffffffffffffffffffffffffffff021916908373ffffffffffffffffffffffffffffffffffffffff16021790555060208201518160010160006101000a81548173ffffffffffffffffffffffffffffffffffffffff021916908373ffffffffffffffffffffffffffffffffffffffff16021790555060408201518160010160146101000a81548160ff0219169083151502179055505050505050565b886000803373ffffffffffffffffffffffffffffffffffffffff1673ffffffffffffffffffffffffffffffffffffffff1681526020019081526020016000206000019081611a8b9190612856565b50876000803373ffffffffffffffffffffffffffffffffffffffff1673ffffffffffffffffffffffffffffffffffffffff1681526020019081526020016000206001019081611ada9190612856565b50866000803373ffffffffffffffffffffffffffffffffffffffff1673ffffffffffffffffffffffffffffffffffffffff1681526020019081526020016000206002019081611b299190612856565b50836000803373ffffffffffffffffffffffffffffffffffffffff1673ffffffffffffffffffffffffffffffffffffffff1681526020019081526020016000206003019081611b789190612856565b50826000803373ffffffffffffffffffffffffffffffffffffffff1673ffffffffffffffffffffffffffffffffffffffff1681526020019081526020016000206004019081611bc79190612856565b50856000803373ffffffffffffffffffffffffffffffffffffffff1673ffffffffffffffffffffffffffffffffffffffff1681526020019081526020016000206006019081611c169190612856565b50846000803373ffffffffffffffffffffffffffffffffffffffff1673ffffffffffffffffffffffffffffffffffffffff1681526020019081526020016000206007019081611c659190612856565b50816000803373ffffffffffffffffffffffffffffffffffffffff1673ffffffffffffffffffffffffffffffffffffffff1681526020019081526020016000206005019081611cb49190612856565b50806000803373ffffffffffffffffffffffffffffffffffffffff1673ffffffffffffffffffffffffffffffffffffffff1681526020019081526020016000206008019081611d039190612856565b50505050505050505050565b6000604051905090565b600080fd5b600080fd5b600073ffffffffffffffffffffffffffffffffffffffff82169050919050565b6000611d4e82611d23565b9050919050565b611d5e81611d43565b8114611d6957600080fd5b50565b600081359050611d7b81611d55565b92915050565b600060208284031215611d9757611d96611d19565b5b6000611da584828501611d6c565b91505092915050565b600081519050919050565b600082825260208201905092915050565b60005b83811015611de8578082015181840152602081019050611dcd565b60008484015250505050565b6000601f19601f8301169050919050565b6000611e1082611dae565b611e1a8185611db9565b9350611e2a818560208601611dca565b611e3381611df4565b840191505092915050565b6000610120820190508181036000830152611e59818c611e05565b90508181036020830152611e6d818b611e05565b90508181036040830152611e81818a611e05565b90508181036060830152611e958189611e05565b90508181036080830152611ea98188611e05565b905081810360a0830152611ebd8187611e05565b905081810360c0830152611ed18186611e05565b905081810360e0830152611ee58185611e05565b9050818103610100830152611efa8184611e05565b90509a9950505050505050505050565b60008060408385031215611f2157611f20611d19565b5b6000611f2f85828601611d6c565b9250506020611f4085828601611d6c565b9150509250929050565b600081519050919050565b600082825260208201905092915050565b6000819050602082019050919050565b600082825260208201905092915050565b6000611f9282611dae565b611f9c8185611f76565b9350611fac818560208601611dca565b611fb581611df4565b840191505092915050565b6000611fcc8383611f87565b905092915050565b6000602082019050919050565b6000611fec82611f4a565b611ff68185611f55565b93508360208202850161200885611f66565b8060005b8581101561204457848403895281516120258582611fc0565b945061203083611fd4565b925060208a0199505060018101905061200c565b50829750879550505050505092915050565b600060208201905081810360008301526120708184611fe1565b905092915050565b600080fd5b600080fd5b7f4e487b7100000000000000000000000000000000000000000000000000000000600052604160045260246000fd5b6120ba82611df4565b810181811067ffffffffffffffff821117156120d9576120d8612082565b5b80604052505050565b60006120ec611d0f565b90506120f882826120b1565b919050565b600067ffffffffffffffff82111561211857612117612082565b5b61212182611df4565b9050602081019050919050565b82818337600083830152505050565b600061215061214b846120fd565b6120e2565b90508281526020810184848401111561216c5761216b61207d565b5b61217784828561212e565b509392505050565b600082601f83011261219457612193612078565b5b81356121a484826020860161213d565b91505092915050565b600080604083850312156121c4576121c3611d19565b5b600083013567ffffffffffffffff8111156121e2576121e1611d1e565b5b6121ee8582860161217f565b92505060206121ff85828601611d6c565b9150509250929050565b600081519050919050565b600082825260208201905092915050565b6000819050602082019050919050565b61223e81611d43565b82525050565b6000819050919050565b61225781612244565b82525050565b60008115159050919050565b6122728161225d565b82525050565b60608201600082015161228e6000850182612235565b5060208201516122a1602085018261224e565b5060408201516122b46040850182612269565b50505050565b60006122c68383612278565b60608301905092915050565b6000602082019050919050565b60006122ea82612209565b6122f48185612214565b93506122ff83612225565b8060005b8381101561233057815161231788826122ba565b9750612322836122d2565b925050600181019050612303565b5085935050505092915050565b6000602082019050818103600083015261235781846122df565b905092915050565b61236881612244565b811461237357600080fd5b50565b6000813590506123858161235f565b92915050565b6000806000606084860312156123a4576123a3611d19565b5b60006123b286828701612376565b93505060206123c386828701611d6c565b92505060406123d486828701611d6c565b9150509250925092565b60008060008060008060008060006101208a8c03121561240157612400611d19565b5b60008a013567ffffffffffffffff81111561241f5761241e611d1e565b5b61242b8c828d0161217f565b99505060208a013567ffffffffffffffff81111561244c5761244b611d1e565b5b6124588c828d0161217f565b98505060408a013567ffffffffffffffff81111561247957612478611d1e565b5b6124858c828d0161217f565b97505060608a013567ffffffffffffffff8111156124a6576124a5611d1e565b5b6124b28c828d0161217f565b96505060808a013567ffffffffffffffff8111156124d3576124d2611d1e565b5b6124df8c828d0161217f565b95505060a08a013567ffffffffffffffff811115612500576124ff611d1e565b5b61250c8c828d0161217f565b94505060c08a013567ffffffffffffffff81111561252d5761252c611d1e565b5b6125398c828d0161217f565b93505060e08a013567ffffffffffffffff81111561255a57612559611d1e565b5b6125668c828d0161217f565b9250506101008a013567ffffffffffffffff81111561258857612587611d1e565b5b6125948c828d0161217f565b9150509295985092959850929598565b7f4e487b7100000000000000000000000000000000000000000000000000000000600052602260045260246000fd5b600060028204905060018216806125eb57607f821691505b6020821081036125fe576125fd6125a4565b5b50919050565b7f4e487b7100000000000000000000000000000000000000000000000000000000600052603260045260246000fd5b7f4e487b7100000000000000000000000000000000000000000000000000000000600052601160045260246000fd5b600061266d82612244565b91507fffffffffffffffffffffffffffffffffffffffffffffffffffffffffffffffff820361269f5761269e612633565b5b600182019050919050565b60008190508160005260206000209050919050565b60006020601f8301049050919050565b600082821b905092915050565b60006008830261270c7fffffffffffffffffffffffffffffffffffffffffffffffffffffffffffffffff826126cf565b61271686836126cf565b95508019841693508086168417925050509392505050565b6000819050919050565b600061275361274e61274984612244565b61272e565b612244565b9050919050565b6000819050919050565b61276d83612738565b6127816127798261275a565b8484546126dc565b825550505050565b600090565b612796612789565b6127a1818484612764565b505050565b5b818110156127c5576127ba60008261278e565b6001810190506127a7565b5050565b601f82111561280a576127db816126aa565b6127e4846126bf565b810160208510156127f3578190505b6128076127ff856126bf565b8301826127a6565b50505b505050565b600082821c905092915050565b600061282d6000198460080261280f565b1980831691505092915050565b6000612846838361281c565b9150826002028217905092915050565b61285f82611dae565b67ffffffffffffffff81111561287857612877612082565b5b61288282546125d3565b61288d8282856127c9565b600060209050601f8311600181146128c057600084156128ae578287015190505b6128b8858261283a565b865550612920565b601f1984166128ce866126aa565b60005b828110156128f6578489015182556001820191506020850194506020810190506128d1565b86831015612913578489015161290f601f89168261281c565b8355505b6001600288020188555050505b50505050505056fea2646970667358221220d31d6e344ca9467e3a5b935a742aefd95c4558fe45bf0910ecfd429a85dd2b3c64736f6c63430008130033",
  "immutableReferences": {},
  "source": "// SPDX-License-Identifier: GPL-3.0\r\n\r\npragma solidity >=0.7.0 <0.9.0;\r\n\r\ncontract PatientInfo {\r\n    struct Appointment {\r\n        address doctorAddress;\r\n        uint256 datetime;\r\n        bool isConfirmed;\r\n    }\r\n\r\n    struct Patient {\r\n        string name;\r\n        string blood;\r\n        string age;\r\n        string gender;\r\n        string email;\r\n        string phone;\r\n        string height;\r\n        string weight;\r\n        string profileImageURL;\r\n        string[] recordCids;\r\n        Appointment[] appointments;\r\n        DoctorAccess[] access;\r\n    }\r\n\r\n    struct DoctorAccess {\r\n        address doctorAddress;\r\n        address patientAddress;\r\n        bool hasAccess;\r\n    }\r\n\r\n    mapping(address => Patient) public patients;\r\n\r\n    function registerPatient(\r\n        string memory name,\r\n        string memory blood,\r\n        string memory age,\r\n        string memory height,\r\n        string memory weight,\r\n        string memory gender,\r\n        string memory email,\r\n        string memory phone,\r\n        string memory profileImageURL\r\n    ) public {\r\n        patients[msg.sender].name = name;\r\n        patients[msg.sender].blood = blood;\r\n        patients[msg.sender].age = age;\r\n        patients[msg.sender].gender = gender;\r\n        patients[msg.sender].email = email;\r\n        patients[msg.sender].height = height;\r\n        patients[msg.sender].weight = weight;\r\n        patients[msg.sender].phone = phone;\r\n        patients[msg.sender].profileImageURL = profileImageURL;\r\n    }\r\n\r\n    function getPatient(address patientAddress)\r\n        public\r\n        view\r\n        returns (\r\n            string memory name,\r\n            string memory blood,\r\n            string memory age,\r\n            string memory height,\r\n            string memory weight,\r\n            string memory gender,\r\n            string memory email,\r\n            string memory phone,\r\n            string memory profileImageURL\r\n        )\r\n    {\r\n        Patient memory patient = patients[patientAddress];\r\n        return (\r\n            patient.name,\r\n            patient.blood,\r\n            patient.age,\r\n            patient.height,\r\n            patient.weight,\r\n            patient.gender,\r\n            patient.email,\r\n            patient.phone,\r\n            patient.profileImageURL\r\n        );\r\n    }\r\n\r\n    function setPatientRecordCids(string memory cid, address patientAddress)\r\n        public\r\n    {\r\n        patients[patientAddress].recordCids.push(cid);\r\n    }\r\n\r\n    function getPatientRecordCids(address patientAddress)\r\n        public\r\n        view\r\n        returns (string[] memory cid_)\r\n    {\r\n        cid_ = patients[patientAddress].recordCids;\r\n    }\r\n\r\n    function addAppointment(\r\n        uint256 timestamp,\r\n        address doctorAddress,\r\n        address patientAddress\r\n    ) public {\r\n        patients[patientAddress].appointments.push(\r\n            Appointment(doctorAddress, timestamp, false)\r\n        );\r\n        patients[patientAddress].access.push(\r\n            DoctorAccess(doctorAddress, patientAddress, false)\r\n        );\r\n    }\r\n\r\n    function getMyAppointments(address patientAddress)\r\n        public\r\n        view\r\n        returns (Appointment[] memory)\r\n    {\r\n        return patients[patientAddress].appointments;\r\n    }\r\n\r\n    function toggleAccess(address doctorAddress_, address patientAddress)\r\n        public\r\n    {\r\n        for (uint256 i = 0; i < patients[patientAddress].access.length; i++) {\r\n            if (\r\n                patients[patientAddress].access[i].doctorAddress ==\r\n                doctorAddress_\r\n            ) {\r\n                if(patients[patientAddress].access[i].hasAccess == false){\r\n                    patients[patientAddress].access[i].hasAccess = true;\r\n                }\r\n                else \r\n                {\r\n                    patients[patientAddress].access[i].hasAccess = false;\r\n                }\r\n            }\r\n        }\r\n    }\r\n\r\n    function shareCids(address patientAddress, address doctorAddress_)\r\n        public\r\n        view\r\n        returns (string [] memory)\r\n    {\r\n        string[] memory recordCids;\r\n        for (uint256 i = 0; i < patients[patientAddress].access.length; i++) {\r\n            if (\r\n                patients[patientAddress].access[i].doctorAddress ==\r\n                doctorAddress_\r\n            ) {\r\n                if( patients[patientAddress].access[i].hasAccess){\r\n                    recordCids =  patients[patientAddress].recordCids;\r\n                    break;\r\n                }\r\n            }\r\n        }\r\n        return recordCids;\r\n    }\r\n}\r\n",
  "sourcePath": "C:\\Users\\mohit\\Desktop\\Techie-Twins\\techie_twins\\contracts\\PatientInfo.sol",
  "compiler": {
    "name": "solc",
    "version": "0.8.19+commit.7dd6d404.Emscripten.clang"
  },
  "schemaVersion": "3.4.13",
  "updatedAt": "2023-05-27T09:04:26.283Z",
  "networkType": "ethereum",
  "devdoc": {
    "kind": "dev",
    "methods": {},
    "version": 1
  },
  "userdoc": {
    "kind": "user",
    "methods": {},
    "version": 1
  }
}