{
  "contractName": "PatientRegistration",
  "abi": [
    {
      "anonymous": false,
      "inputs": [
        {
          "indexed": true,
          "internalType": "address",
          "name": "patientAddress",
          "type": "address"
        },
        {
          "indexed": false,
          "internalType": "string",
          "name": "name",
          "type": "string"
        }
      ],
      "name": "PatientRegistered",
      "type": "event"
    },
    {
      "inputs": [
        {
          "internalType": "address",
          "name": "",
          "type": "address"
        }
      ],
      "name": "patients",
      "outputs": [
        {
          "internalType": "string",
          "name": "name",
          "type": "string"
        },
        {
          "internalType": "string",
          "name": "age",
          "type": "string"
        },
        {
          "internalType": "string",
          "name": "gender",
          "type": "string"
        },
        {
          "internalType": "string",
          "name": "email",
          "type": "string"
        },
        {
          "internalType": "string",
          "name": "phone",
          "type": "string"
        },
        {
          "internalType": "string",
          "name": "height",
          "type": "string"
        },
        {
          "internalType": "string",
          "name": "weight",
          "type": "string"
        },
        {
          "internalType": "string",
          "name": "profileImageURL",
          "type": "string"
        }
      ],
      "stateMutability": "view",
      "type": "function",
      "constant": true
    },
    {
      "inputs": [
        {
          "internalType": "string",
          "name": "name",
          "type": "string"
        },
        {
          "internalType": "string",
          "name": "age",
          "type": "string"
        },
        {
          "internalType": "string",
          "name": "height",
          "type": "string"
        },
        {
          "internalType": "string",
          "name": "weight",
          "type": "string"
        },
        {
          "internalType": "string",
          "name": "gender",
          "type": "string"
        },
        {
          "internalType": "string",
          "name": "email",
          "type": "string"
        },
        {
          "internalType": "string",
          "name": "phone",
          "type": "string"
        },
        {
          "internalType": "string",
          "name": "profileImageURL",
          "type": "string"
        }
      ],
      "name": "registerPatient",
      "outputs": [],
      "stateMutability": "nonpayable",
      "type": "function"
    },
    {
      "inputs": [
        {
          "internalType": "address",
          "name": "patientAddress",
          "type": "address"
        }
      ],
      "name": "getPatient",
      "outputs": [
        {
          "internalType": "string",
          "name": "name",
          "type": "string"
        },
        {
          "internalType": "string",
          "name": "age",
          "type": "string"
        },
        {
          "internalType": "string",
          "name": "height",
          "type": "string"
        },
        {
          "internalType": "string",
          "name": "weight",
          "type": "string"
        },
        {
          "internalType": "string",
          "name": "gender",
          "type": "string"
        },
        {
          "internalType": "string",
          "name": "email",
          "type": "string"
        },
        {
          "internalType": "string",
          "name": "phone",
          "type": "string"
        },
        {
          "internalType": "string",
          "name": "profileImageURL",
          "type": "string"
        }
      ],
      "stateMutability": "view",
      "type": "function",
      "constant": true
    },
    {
      "inputs": [
        {
          "internalType": "string",
          "name": "cid",
          "type": "string"
        }
      ],
      "name": "setPatientRecordCids",
      "outputs": [],
      "stateMutability": "nonpayable",
      "type": "function"
    },
    {
      "inputs": [],
      "name": "getPatientRecordCids",
      "outputs": [
        {
          "internalType": "string[]",
          "name": "cid_",
          "type": "string[]"
        }
      ],
      "stateMutability": "view",
      "type": "function",
      "constant": true
    }
  ],
  "bytecode": "0x608060405234801561001057600080fd5b506117d0806100206000396000f3fe608060405234801561001057600080fd5b50600436106100575760003560e01c80630869cfbc1461005c5780630d15a1181461009357806329cf54a3146100af57806399e5ca9a146100cb578063b5368e20146100e9575b600080fd5b61007660048036038101906100719190610edb565b610120565b60405161008a989796959493929190610f98565b60405180910390f35b6100ad60048036038101906100a89190611183565b6105a8565b005b6100c960048036038101906100c491906111cc565b61061f565b005b6100d361074a565b6040516100e0919061146e565b60405180910390f35b61010360048036038101906100fe9190610edb565b610862565b604051610117989796959493929190610f98565b60405180910390f35b6000602052806000526040600020600091509050806000018054610143906114bf565b80601f016020809104026020016040519081016040528092919081815260200182805461016f906114bf565b80156101bc5780601f10610191576101008083540402835291602001916101bc565b820191906000526020600020905b81548152906001019060200180831161019f57829003601f168201915b5050505050908060010180546101d1906114bf565b80601f01602080910402602001604051908101604052809291908181526020018280546101fd906114bf565b801561024a5780601f1061021f5761010080835404028352916020019161024a565b820191906000526020600020905b81548152906001019060200180831161022d57829003601f168201915b50505050509080600201805461025f906114bf565b80601f016020809104026020016040519081016040528092919081815260200182805461028b906114bf565b80156102d85780601f106102ad576101008083540402835291602001916102d8565b820191906000526020600020905b8154815290600101906020018083116102bb57829003601f168201915b5050505050908060030180546102ed906114bf565b80601f0160208091040260200160405190810160405280929190818152602001828054610319906114bf565b80156103665780601f1061033b57610100808354040283529160200191610366565b820191906000526020600020905b81548152906001019060200180831161034957829003601f168201915b50505050509080600401805461037b906114bf565b80601f01602080910402602001604051908101604052809291908181526020018280546103a7906114bf565b80156103f45780601f106103c9576101008083540402835291602001916103f4565b820191906000526020600020905b8154815290600101906020018083116103d757829003601f168201915b505050505090806005018054610409906114bf565b80601f0160208091040260200160405190810160405280929190818152602001828054610435906114bf565b80156104825780601f1061045757610100808354040283529160200191610482565b820191906000526020600020905b81548152906001019060200180831161046557829003601f168201915b505050505090806006018054610497906114bf565b80601f01602080910402602001604051908101604052809291908181526020018280546104c3906114bf565b80156105105780601f106104e557610100808354040283529160200191610510565b820191906000526020600020905b8154815290600101906020018083116104f357829003601f168201915b505050505090806007018054610525906114bf565b80601f0160208091040260200160405190810160405280929190818152602001828054610551906114bf565b801561059e5780601f106105735761010080835404028352916020019161059e565b820191906000526020600020905b81548152906001019060200180831161058157829003601f168201915b5050505050905088565b6000803373ffffffffffffffffffffffffffffffffffffffff1673ffffffffffffffffffffffffffffffffffffffff1681526020019081526020016000206008018190806001815401808255809150506001900390600052602060002001600090919091909150908161061b91906116a6565b5050565b60008060003373ffffffffffffffffffffffffffffffffffffffff1673ffffffffffffffffffffffffffffffffffffffff16815260200190815260200160002090508881600001908161067291906116a6565b508781600101908161068491906116a6565b508481600201908161069691906116a6565b50838160030190816106a891906116a6565b50868160050190816106ba91906116a6565b50858160060190816106cc91906116a6565b50828160040190816106de91906116a6565b50818160070190816106f091906116a6565b503373ffffffffffffffffffffffffffffffffffffffff167fc85b128388b9c331a2a5485dce4cd0f3db9f7c279d327ce95d6d39d6c94644c78a6040516107379190611778565b60405180910390a2505050505050505050565b60606000803373ffffffffffffffffffffffffffffffffffffffff1673ffffffffffffffffffffffffffffffffffffffff168152602001908152602001600020600801805480602002602001604051908101604052809291908181526020016000905b828210156108595783829060005260206000200180546107cc906114bf565b80601f01602080910402602001604051908101604052809291908181526020018280546107f8906114bf565b80156108455780601f1061081a57610100808354040283529160200191610845565b820191906000526020600020905b81548152906001019060200180831161082857829003601f168201915b5050505050815260200190600101906107ad565b50505050905090565b60608060608060608060608060008060008b73ffffffffffffffffffffffffffffffffffffffff1673ffffffffffffffffffffffffffffffffffffffff168152602001908152602001600020604051806101200160405290816000820180546108ca906114bf565b80601f01602080910402602001604051908101604052809291908181526020018280546108f6906114bf565b80156109435780601f1061091857610100808354040283529160200191610943565b820191906000526020600020905b81548152906001019060200180831161092657829003601f168201915b5050505050815260200160018201805461095c906114bf565b80601f0160208091040260200160405190810160405280929190818152602001828054610988906114bf565b80156109d55780601f106109aa576101008083540402835291602001916109d5565b820191906000526020600020905b8154815290600101906020018083116109b857829003601f168201915b505050505081526020016002820180546109ee906114bf565b80601f0160208091040260200160405190810160405280929190818152602001828054610a1a906114bf565b8015610a675780601f10610a3c57610100808354040283529160200191610a67565b820191906000526020600020905b815481529060010190602001808311610a4a57829003601f168201915b50505050508152602001600382018054610a80906114bf565b80601f0160208091040260200160405190810160405280929190818152602001828054610aac906114bf565b8015610af95780601f10610ace57610100808354040283529160200191610af9565b820191906000526020600020905b815481529060010190602001808311610adc57829003601f168201915b50505050508152602001600482018054610b12906114bf565b80601f0160208091040260200160405190810160405280929190818152602001828054610b3e906114bf565b8015610b8b5780601f10610b6057610100808354040283529160200191610b8b565b820191906000526020600020905b815481529060010190602001808311610b6e57829003601f168201915b50505050508152602001600582018054610ba4906114bf565b80601f0160208091040260200160405190810160405280929190818152602001828054610bd0906114bf565b8015610c1d5780601f10610bf257610100808354040283529160200191610c1d565b820191906000526020600020905b815481529060010190602001808311610c0057829003601f168201915b50505050508152602001600682018054610c36906114bf565b80601f0160208091040260200160405190810160405280929190818152602001828054610c62906114bf565b8015610caf5780601f10610c8457610100808354040283529160200191610caf565b820191906000526020600020905b815481529060010190602001808311610c9257829003601f168201915b50505050508152602001600782018054610cc8906114bf565b80601f0160208091040260200160405190810160405280929190818152602001828054610cf4906114bf565b8015610d415780601f10610d1657610100808354040283529160200191610d41565b820191906000526020600020905b815481529060010190602001808311610d2457829003601f168201915b5050505050815260200160088201805480602002602001604051908101604052809291908181526020016000905b82821015610e1b578382906000526020600020018054610d8e906114bf565b80601f0160208091040260200160405190810160405280929190818152602001828054610dba906114bf565b8015610e075780601f10610ddc57610100808354040283529160200191610e07565b820191906000526020600020905b815481529060010190602001808311610dea57829003601f168201915b505050505081526020019060010190610d6f565b50505050815250509050806000015181602001518260a001518360c001518460400151856060015186608001518760e001519850985098509850985098509850985050919395975091939597565b6000604051905090565b600080fd5b600080fd5b600073ffffffffffffffffffffffffffffffffffffffff82169050919050565b6000610ea882610e7d565b9050919050565b610eb881610e9d565b8114610ec357600080fd5b50565b600081359050610ed581610eaf565b92915050565b600060208284031215610ef157610ef0610e73565b5b6000610eff84828501610ec6565b91505092915050565b600081519050919050565b600082825260208201905092915050565b60005b83811015610f42578082015181840152602081019050610f27565b60008484015250505050565b6000601f19601f8301169050919050565b6000610f6a82610f08565b610f748185610f13565b9350610f84818560208601610f24565b610f8d81610f4e565b840191505092915050565b6000610100820190508181036000830152610fb3818b610f5f565b90508181036020830152610fc7818a610f5f565b90508181036040830152610fdb8189610f5f565b90508181036060830152610fef8188610f5f565b905081810360808301526110038187610f5f565b905081810360a08301526110178186610f5f565b905081810360c083015261102b8185610f5f565b905081810360e083015261103f8184610f5f565b90509998505050505050505050565b600080fd5b600080fd5b7f4e487b7100000000000000000000000000000000000000000000000000000000600052604160045260246000fd5b61109082610f4e565b810181811067ffffffffffffffff821117156110af576110ae611058565b5b80604052505050565b60006110c2610e69565b90506110ce8282611087565b919050565b600067ffffffffffffffff8211156110ee576110ed611058565b5b6110f782610f4e565b9050602081019050919050565b82818337600083830152505050565b6000611126611121846110d3565b6110b8565b90508281526020810184848401111561114257611141611053565b5b61114d848285611104565b509392505050565b600082601f83011261116a5761116961104e565b5b813561117a848260208601611113565b91505092915050565b60006020828403121561119957611198610e73565b5b600082013567ffffffffffffffff8111156111b7576111b6610e78565b5b6111c384828501611155565b91505092915050565b600080600080600080600080610100898b0312156111ed576111ec610e73565b5b600089013567ffffffffffffffff81111561120b5761120a610e78565b5b6112178b828c01611155565b985050602089013567ffffffffffffffff81111561123857611237610e78565b5b6112448b828c01611155565b975050604089013567ffffffffffffffff81111561126557611264610e78565b5b6112718b828c01611155565b965050606089013567ffffffffffffffff81111561129257611291610e78565b5b61129e8b828c01611155565b955050608089013567ffffffffffffffff8111156112bf576112be610e78565b5b6112cb8b828c01611155565b94505060a089013567ffffffffffffffff8111156112ec576112eb610e78565b5b6112f88b828c01611155565b93505060c089013567ffffffffffffffff81111561131957611318610e78565b5b6113258b828c01611155565b92505060e089013567ffffffffffffffff81111561134657611345610e78565b5b6113528b828c01611155565b9150509295985092959890939650565b600081519050919050565b600082825260208201905092915050565b6000819050602082019050919050565b600082825260208201905092915050565b60006113aa82610f08565b6113b4818561138e565b93506113c4818560208601610f24565b6113cd81610f4e565b840191505092915050565b60006113e4838361139f565b905092915050565b6000602082019050919050565b600061140482611362565b61140e818561136d565b9350836020820285016114208561137e565b8060005b8581101561145c578484038952815161143d85826113d8565b9450611448836113ec565b925060208a01995050600181019050611424565b50829750879550505050505092915050565b6000602082019050818103600083015261148881846113f9565b905092915050565b7f4e487b7100000000000000000000000000000000000000000000000000000000600052602260045260246000fd5b600060028204905060018216806114d757607f821691505b6020821081036114ea576114e9611490565b5b50919050565b60008190508160005260206000209050919050565b60006020601f8301049050919050565b600082821b905092915050565b6000600883026115527fffffffffffffffffffffffffffffffffffffffffffffffffffffffffffffffff82611515565b61155c8683611515565b95508019841693508086168417925050509392505050565b6000819050919050565b6000819050919050565b60006115a361159e61159984611574565b61157e565b611574565b9050919050565b6000819050919050565b6115bd83611588565b6115d16115c9826115aa565b848454611522565b825550505050565b600090565b6115e66115d9565b6115f18184846115b4565b505050565b5b818110156116155761160a6000826115de565b6001810190506115f7565b5050565b601f82111561165a5761162b816114f0565b61163484611505565b81016020851015611643578190505b61165761164f85611505565b8301826115f6565b50505b505050565b600082821c905092915050565b600061167d6000198460080261165f565b1980831691505092915050565b6000611696838361166c565b9150826002028217905092915050565b6116af82610f08565b67ffffffffffffffff8111156116c8576116c7611058565b5b6116d282546114bf565b6116dd828285611619565b600060209050601f83116001811461171057600084156116fe578287015190505b611708858261168a565b865550611770565b601f19841661171e866114f0565b60005b8281101561174657848901518255600182019150602085019450602081019050611721565b86831015611763578489015161175f601f89168261166c565b8355505b6001600288020188555050505b505050505050565b600060208201905081810360008301526117928184610f5f565b90509291505056fea26469706673582212201f2d462b5d4ee7457ba14f0a04e97485d6cee7f5865425bba5668d2d3711474f64736f6c63430008130033",
  "immutableReferences": {},
  "source": "// SPDX-License-Identifier: MIT\npragma solidity >=0.7.0 <0.9.0;\n\ncontract PatientRegistration {\n    struct Patient {\n        string name;\n        string age;\n        string gender;\n        string email;\n        string phone;\n        string height;\n        string weight;\n        string profileImageURL;\n        string[] recordCids;\n    }\n\n    mapping(address => Patient) public patients;\n\n    event PatientRegistered(address indexed patientAddress, string name);\n\n    function registerPatient(\n        string memory name,\n        string memory age,\n        string memory height,\n        string memory weight,\n        string memory gender,\n        string memory email,\n        string memory phone,\n        string memory profileImageURL\n    ) public {\n        Patient storage patient = patients[msg.sender];\n        patient.name = name;\n        patient.age = age;\n        patient.gender = gender;\n        patient.email = email;\n        patient.height = height;\n        patient.weight = weight;\n        patient.phone = phone;\n        patient.profileImageURL = profileImageURL;\n        emit PatientRegistered(msg.sender, name);\n    }\n\n    function getPatient(address patientAddress)\n        public\n        view\n        returns (\n            string memory name,\n            string memory age,\n            string memory height,\n            string memory weight,\n            string memory gender,\n            string memory email,\n            string memory phone,\n            string memory profileImageURL\n        )\n    {\n        Patient memory patient = patients[patientAddress];\n        return (\n            patient.name,\n            patient.age,\n            patient.height,\n            patient.weight,\n            patient.gender,\n            patient.email,\n            patient.phone,\n            patient.profileImageURL\n        );\n    }\n\n    function setPatientRecordCids(string memory cid) public\n    {\n        patients[msg.sender].recordCids.push(cid);\n    }\n\n    function getPatientRecordCids() public view returns (string[] memory cid_)\n    {\n        cid_ = patients[msg.sender].recordCids;\n    }\n}",
  "sourcePath": "/media/mohit/Development/Development/GFG Hackathon/Techie-Twins/techie_twins/contracts/PatientRegistration.sol",
  "compiler": {
    "name": "solc",
    "version": "0.8.19+commit.7dd6d404.Emscripten.clang"
  },
  "schemaVersion": "3.4.13",
  "updatedAt": "2023-04-02T14:52:17.438Z",
  "networkType": "ethereum",
  "devdoc": {
    "kind": "dev",
    "methods": {},
    "version": 1
  },
  "userdoc": {
    "kind": "user",
    "methods": {},
    "version": 1
  }
}