{
  "contractName": "PatientRegistration",
  "abi": [
    {
      "anonymous": false,
      "inputs": [
        {
          "indexed": true,
          "internalType": "address",
          "name": "patientAddress",
          "type": "address"
        },
        {
          "indexed": false,
          "internalType": "string",
          "name": "name",
          "type": "string"
        }
      ],
      "name": "PatientRegistered",
      "type": "event"
    },
    {
      "inputs": [
        {
          "internalType": "address",
          "name": "",
          "type": "address"
        }
      ],
      "name": "patients",
      "outputs": [
        {
          "internalType": "string",
          "name": "name",
          "type": "string"
        },
        {
          "internalType": "string",
          "name": "blood",
          "type": "string"
        },
        {
          "internalType": "string",
          "name": "age",
          "type": "string"
        },
        {
          "internalType": "string",
          "name": "gender",
          "type": "string"
        },
        {
          "internalType": "string",
          "name": "email",
          "type": "string"
        },
        {
          "internalType": "string",
          "name": "phone",
          "type": "string"
        },
        {
          "internalType": "string",
          "name": "height",
          "type": "string"
        },
        {
          "internalType": "string",
          "name": "weight",
          "type": "string"
        },
        {
          "internalType": "string",
          "name": "profileImageURL",
          "type": "string"
        }
      ],
      "stateMutability": "view",
      "type": "function",
      "constant": true
    },
    {
      "inputs": [
        {
          "internalType": "string",
          "name": "name",
          "type": "string"
        },
        {
          "internalType": "string",
          "name": "blood",
          "type": "string"
        },
        {
          "internalType": "string",
          "name": "age",
          "type": "string"
        },
        {
          "internalType": "string",
          "name": "height",
          "type": "string"
        },
        {
          "internalType": "string",
          "name": "weight",
          "type": "string"
        },
        {
          "internalType": "string",
          "name": "gender",
          "type": "string"
        },
        {
          "internalType": "string",
          "name": "email",
          "type": "string"
        },
        {
          "internalType": "string",
          "name": "phone",
          "type": "string"
        },
        {
          "internalType": "string",
          "name": "profileImageURL",
          "type": "string"
        }
      ],
      "name": "registerPatient",
      "outputs": [],
      "stateMutability": "nonpayable",
      "type": "function"
    },
    {
      "inputs": [
        {
          "internalType": "address",
          "name": "patientAddress",
          "type": "address"
        }
      ],
      "name": "getPatient",
      "outputs": [
        {
          "internalType": "string",
          "name": "name",
          "type": "string"
        },
        {
          "internalType": "string",
          "name": "blood",
          "type": "string"
        },
        {
          "internalType": "string",
          "name": "age",
          "type": "string"
        },
        {
          "internalType": "string",
          "name": "height",
          "type": "string"
        },
        {
          "internalType": "string",
          "name": "weight",
          "type": "string"
        },
        {
          "internalType": "string",
          "name": "gender",
          "type": "string"
        },
        {
          "internalType": "string",
          "name": "email",
          "type": "string"
        },
        {
          "internalType": "string",
          "name": "phone",
          "type": "string"
        },
        {
          "internalType": "string",
          "name": "profileImageURL",
          "type": "string"
        }
      ],
      "stateMutability": "view",
      "type": "function",
      "constant": true
    },
    {
      "inputs": [
        {
          "internalType": "string",
          "name": "cid",
          "type": "string"
        }
      ],
      "name": "setPatientRecordCids",
      "outputs": [],
      "stateMutability": "nonpayable",
      "type": "function"
    },
    {
      "inputs": [],
      "name": "getPatientRecordCids",
      "outputs": [
        {
          "internalType": "string[]",
          "name": "cid_",
          "type": "string[]"
        }
      ],
      "stateMutability": "view",
      "type": "function",
      "constant": true
    }
  ],
  "bytecode": "0x608060405234801561001057600080fd5b50611b39806100206000396000f3fe608060405234801561001057600080fd5b50600436106100575760003560e01c80630869cfbc1461005c5780630d15a1181461009457806399e5ca9a146100b0578063b5368e20146100ce578063f9c2caa514610106575b600080fd5b610076600480360381019061007191906111fe565b610122565b60405161008b999897969594939291906112bb565b60405180910390f35b6100ae60048036038101906100a991906114bc565b610638565b005b6100b86106af565b6040516100c59190611611565b60405180910390f35b6100e860048036038101906100e391906111fe565b6107c7565b6040516100fd999897969594939291906112bb565b60405180910390f35b610120600480360381019061011b9190611633565b610e6c565b005b600060205280600052604060002060009150905080600001805461014590611828565b80601f016020809104026020016040519081016040528092919081815260200182805461017190611828565b80156101be5780601f10610193576101008083540402835291602001916101be565b820191906000526020600020905b8154815290600101906020018083116101a157829003601f168201915b5050505050908060010180546101d390611828565b80601f01602080910402602001604051908101604052809291908181526020018280546101ff90611828565b801561024c5780601f106102215761010080835404028352916020019161024c565b820191906000526020600020905b81548152906001019060200180831161022f57829003601f168201915b50505050509080600201805461026190611828565b80601f016020809104026020016040519081016040528092919081815260200182805461028d90611828565b80156102da5780601f106102af576101008083540402835291602001916102da565b820191906000526020600020905b8154815290600101906020018083116102bd57829003601f168201915b5050505050908060030180546102ef90611828565b80601f016020809104026020016040519081016040528092919081815260200182805461031b90611828565b80156103685780601f1061033d57610100808354040283529160200191610368565b820191906000526020600020905b81548152906001019060200180831161034b57829003601f168201915b50505050509080600401805461037d90611828565b80601f01602080910402602001604051908101604052809291908181526020018280546103a990611828565b80156103f65780601f106103cb576101008083540402835291602001916103f6565b820191906000526020600020905b8154815290600101906020018083116103d957829003601f168201915b50505050509080600501805461040b90611828565b80601f016020809104026020016040519081016040528092919081815260200182805461043790611828565b80156104845780601f1061045957610100808354040283529160200191610484565b820191906000526020600020905b81548152906001019060200180831161046757829003601f168201915b50505050509080600601805461049990611828565b80601f01602080910402602001604051908101604052809291908181526020018280546104c590611828565b80156105125780601f106104e757610100808354040283529160200191610512565b820191906000526020600020905b8154815290600101906020018083116104f557829003601f168201915b50505050509080600701805461052790611828565b80601f016020809104026020016040519081016040528092919081815260200182805461055390611828565b80156105a05780601f10610575576101008083540402835291602001916105a0565b820191906000526020600020905b81548152906001019060200180831161058357829003601f168201915b5050505050908060080180546105b590611828565b80601f01602080910402602001604051908101604052809291908181526020018280546105e190611828565b801561062e5780601f106106035761010080835404028352916020019161062e565b820191906000526020600020905b81548152906001019060200180831161061157829003601f168201915b5050505050905089565b6000803373ffffffffffffffffffffffffffffffffffffffff1673ffffffffffffffffffffffffffffffffffffffff168152602001908152602001600020600901819080600181540180825580915050600190039060005260206000200160009091909190915090816106ab9190611a0f565b5050565b60606000803373ffffffffffffffffffffffffffffffffffffffff1673ffffffffffffffffffffffffffffffffffffffff168152602001908152602001600020600901805480602002602001604051908101604052809291908181526020016000905b828210156107be57838290600052602060002001805461073190611828565b80601f016020809104026020016040519081016040528092919081815260200182805461075d90611828565b80156107aa5780601f1061077f576101008083540402835291602001916107aa565b820191906000526020600020905b81548152906001019060200180831161078d57829003601f168201915b505050505081526020019060010190610712565b50505050905090565b606080606080606080606080606060008060008c73ffffffffffffffffffffffffffffffffffffffff1673ffffffffffffffffffffffffffffffffffffffff1681526020019081526020016000206040518061014001604052908160008201805461083190611828565b80601f016020809104026020016040519081016040528092919081815260200182805461085d90611828565b80156108aa5780601f1061087f576101008083540402835291602001916108aa565b820191906000526020600020905b81548152906001019060200180831161088d57829003601f168201915b505050505081526020016001820180546108c390611828565b80601f01602080910402602001604051908101604052809291908181526020018280546108ef90611828565b801561093c5780601f106109115761010080835404028352916020019161093c565b820191906000526020600020905b81548152906001019060200180831161091f57829003601f168201915b5050505050815260200160028201805461095590611828565b80601f016020809104026020016040519081016040528092919081815260200182805461098190611828565b80156109ce5780601f106109a3576101008083540402835291602001916109ce565b820191906000526020600020905b8154815290600101906020018083116109b157829003601f168201915b505050505081526020016003820180546109e790611828565b80601f0160208091040260200160405190810160405280929190818152602001828054610a1390611828565b8015610a605780601f10610a3557610100808354040283529160200191610a60565b820191906000526020600020905b815481529060010190602001808311610a4357829003601f168201915b50505050508152602001600482018054610a7990611828565b80601f0160208091040260200160405190810160405280929190818152602001828054610aa590611828565b8015610af25780601f10610ac757610100808354040283529160200191610af2565b820191906000526020600020905b815481529060010190602001808311610ad557829003601f168201915b50505050508152602001600582018054610b0b90611828565b80601f0160208091040260200160405190810160405280929190818152602001828054610b3790611828565b8015610b845780601f10610b5957610100808354040283529160200191610b84565b820191906000526020600020905b815481529060010190602001808311610b6757829003601f168201915b50505050508152602001600682018054610b9d90611828565b80601f0160208091040260200160405190810160405280929190818152602001828054610bc990611828565b8015610c165780601f10610beb57610100808354040283529160200191610c16565b820191906000526020600020905b815481529060010190602001808311610bf957829003601f168201915b50505050508152602001600782018054610c2f90611828565b80601f0160208091040260200160405190810160405280929190818152602001828054610c5b90611828565b8015610ca85780601f10610c7d57610100808354040283529160200191610ca8565b820191906000526020600020905b815481529060010190602001808311610c8b57829003601f168201915b50505050508152602001600882018054610cc190611828565b80601f0160208091040260200160405190810160405280929190818152602001828054610ced90611828565b8015610d3a5780601f10610d0f57610100808354040283529160200191610d3a565b820191906000526020600020905b815481529060010190602001808311610d1d57829003601f168201915b5050505050815260200160098201805480602002602001604051908101604052809291908181526020016000905b82821015610e14578382906000526020600020018054610d8790611828565b80601f0160208091040260200160405190810160405280929190818152602001828054610db390611828565b8015610e005780601f10610dd557610100808354040283529160200191610e00565b820191906000526020600020905b815481529060010190602001808311610de357829003601f168201915b505050505081526020019060010190610d68565b505050508152505090508060000151816020015182604001518360c001518460e00151856060015186608001518760a00151886101000151995099509950995099509950995099509950509193959799909294969850565b886000803373ffffffffffffffffffffffffffffffffffffffff1673ffffffffffffffffffffffffffffffffffffffff1681526020019081526020016000206000019081610eba9190611a0f565b50876000803373ffffffffffffffffffffffffffffffffffffffff1673ffffffffffffffffffffffffffffffffffffffff1681526020019081526020016000206001019081610f099190611a0f565b50866000803373ffffffffffffffffffffffffffffffffffffffff1673ffffffffffffffffffffffffffffffffffffffff1681526020019081526020016000206002019081610f589190611a0f565b50836000803373ffffffffffffffffffffffffffffffffffffffff1673ffffffffffffffffffffffffffffffffffffffff1681526020019081526020016000206003019081610fa79190611a0f565b50826000803373ffffffffffffffffffffffffffffffffffffffff1673ffffffffffffffffffffffffffffffffffffffff1681526020019081526020016000206004019081610ff69190611a0f565b50856000803373ffffffffffffffffffffffffffffffffffffffff1673ffffffffffffffffffffffffffffffffffffffff16815260200190815260200160002060060190816110459190611a0f565b50846000803373ffffffffffffffffffffffffffffffffffffffff1673ffffffffffffffffffffffffffffffffffffffff16815260200190815260200160002060070190816110949190611a0f565b50816000803373ffffffffffffffffffffffffffffffffffffffff1673ffffffffffffffffffffffffffffffffffffffff16815260200190815260200160002060050190816110e39190611a0f565b50806000803373ffffffffffffffffffffffffffffffffffffffff1673ffffffffffffffffffffffffffffffffffffffff16815260200190815260200160002060080190816111329190611a0f565b503373ffffffffffffffffffffffffffffffffffffffff167fc85b128388b9c331a2a5485dce4cd0f3db9f7c279d327ce95d6d39d6c94644c78a6040516111799190611ae1565b60405180910390a2505050505050505050565b6000604051905090565b600080fd5b600080fd5b600073ffffffffffffffffffffffffffffffffffffffff82169050919050565b60006111cb826111a0565b9050919050565b6111db816111c0565b81146111e657600080fd5b50565b6000813590506111f8816111d2565b92915050565b60006020828403121561121457611213611196565b5b6000611222848285016111e9565b91505092915050565b600081519050919050565b600082825260208201905092915050565b60005b8381101561126557808201518184015260208101905061124a565b60008484015250505050565b6000601f19601f8301169050919050565b600061128d8261122b565b6112978185611236565b93506112a7818560208601611247565b6112b081611271565b840191505092915050565b60006101208201905081810360008301526112d6818c611282565b905081810360208301526112ea818b611282565b905081810360408301526112fe818a611282565b905081810360608301526113128189611282565b905081810360808301526113268188611282565b905081810360a083015261133a8187611282565b905081810360c083015261134e8186611282565b905081810360e08301526113628185611282565b90508181036101008301526113778184611282565b90509a9950505050505050505050565b600080fd5b600080fd5b7f4e487b7100000000000000000000000000000000000000000000000000000000600052604160045260246000fd5b6113c982611271565b810181811067ffffffffffffffff821117156113e8576113e7611391565b5b80604052505050565b60006113fb61118c565b905061140782826113c0565b919050565b600067ffffffffffffffff82111561142757611426611391565b5b61143082611271565b9050602081019050919050565b82818337600083830152505050565b600061145f61145a8461140c565b6113f1565b90508281526020810184848401111561147b5761147a61138c565b5b61148684828561143d565b509392505050565b600082601f8301126114a3576114a2611387565b5b81356114b384826020860161144c565b91505092915050565b6000602082840312156114d2576114d1611196565b5b600082013567ffffffffffffffff8111156114f0576114ef61119b565b5b6114fc8482850161148e565b91505092915050565b600081519050919050565b600082825260208201905092915050565b6000819050602082019050919050565b600082825260208201905092915050565b600061154d8261122b565b6115578185611531565b9350611567818560208601611247565b61157081611271565b840191505092915050565b60006115878383611542565b905092915050565b6000602082019050919050565b60006115a782611505565b6115b18185611510565b9350836020820285016115c385611521565b8060005b858110156115ff57848403895281516115e0858261157b565b94506115eb8361158f565b925060208a019950506001810190506115c7565b50829750879550505050505092915050565b6000602082019050818103600083015261162b818461159c565b905092915050565b60008060008060008060008060006101208a8c03121561165657611655611196565b5b60008a013567ffffffffffffffff8111156116745761167361119b565b5b6116808c828d0161148e565b99505060208a013567ffffffffffffffff8111156116a1576116a061119b565b5b6116ad8c828d0161148e565b98505060408a013567ffffffffffffffff8111156116ce576116cd61119b565b5b6116da8c828d0161148e565b97505060608a013567ffffffffffffffff8111156116fb576116fa61119b565b5b6117078c828d0161148e565b96505060808a013567ffffffffffffffff8111156117285761172761119b565b5b6117348c828d0161148e565b95505060a08a013567ffffffffffffffff8111156117555761175461119b565b5b6117618c828d0161148e565b94505060c08a013567ffffffffffffffff8111156117825761178161119b565b5b61178e8c828d0161148e565b93505060e08a013567ffffffffffffffff8111156117af576117ae61119b565b5b6117bb8c828d0161148e565b9250506101008a013567ffffffffffffffff8111156117dd576117dc61119b565b5b6117e98c828d0161148e565b9150509295985092959850929598565b7f4e487b7100000000000000000000000000000000000000000000000000000000600052602260045260246000fd5b6000600282049050600182168061184057607f821691505b602082108103611853576118526117f9565b5b50919050565b60008190508160005260206000209050919050565b60006020601f8301049050919050565b600082821b905092915050565b6000600883026118bb7fffffffffffffffffffffffffffffffffffffffffffffffffffffffffffffffff8261187e565b6118c5868361187e565b95508019841693508086168417925050509392505050565b6000819050919050565b6000819050919050565b600061190c611907611902846118dd565b6118e7565b6118dd565b9050919050565b6000819050919050565b611926836118f1565b61193a61193282611913565b84845461188b565b825550505050565b600090565b61194f611942565b61195a81848461191d565b505050565b5b8181101561197e57611973600082611947565b600181019050611960565b5050565b601f8211156119c35761199481611859565b61199d8461186e565b810160208510156119ac578190505b6119c06119b88561186e565b83018261195f565b50505b505050565b600082821c905092915050565b60006119e6600019846008026119c8565b1980831691505092915050565b60006119ff83836119d5565b9150826002028217905092915050565b611a188261122b565b67ffffffffffffffff811115611a3157611a30611391565b5b611a3b8254611828565b611a46828285611982565b600060209050601f831160018114611a795760008415611a67578287015190505b611a7185826119f3565b865550611ad9565b601f198416611a8786611859565b60005b82811015611aaf57848901518255600182019150602085019450602081019050611a8a565b86831015611acc5784890151611ac8601f8916826119d5565b8355505b6001600288020188555050505b505050505050565b60006020820190508181036000830152611afb8184611282565b90509291505056fea2646970667358221220fb5c11bda91fd8427cbafbf19cb2fd2d007aa2f47d448616fa86fb10f3895f9a64736f6c63430008130033",
  "immutableReferences": {},
  "source": "// SPDX-License-Identifier: MIT\npragma solidity >=0.7.0 <0.9.0;\n\ncontract PatientRegistration {\n    struct Patient {\n        string name;\n        string blood;\n        string age;\n        string gender;\n        string email;\n        string phone;\n        string height;\n        string weight;\n        string profileImageURL;\n        string[] recordCids;\n    }\n\n    mapping(address => Patient) public patients;\n\n    event PatientRegistered(address indexed patientAddress, string name);\n\n    function registerPatient(\n        string memory name,\n        string memory blood,\n        string memory age,\n        string memory height,\n        string memory weight,\n        string memory gender,\n        string memory email,\n        string memory phone,\n        string memory profileImageURL\n    ) public {\n        patients[msg.sender].name = name;\n        patients[msg.sender].blood = blood;\n        patients[msg.sender].age = age;\n        patients[msg.sender].gender = gender;\n        patients[msg.sender].email = email;\n        patients[msg.sender].height = height;\n        patients[msg.sender].weight = weight;\n        patients[msg.sender].phone = phone;\n        patients[msg.sender].profileImageURL = profileImageURL;\n        emit PatientRegistered(msg.sender, name);\n    }\n\n    function getPatient(\n        address patientAddress\n    )\n        public\n        view\n        returns (\n            string memory name,\n            string memory blood,\n            string memory age,\n            string memory height,\n            string memory weight,\n            string memory gender,\n            string memory email,\n            string memory phone,\n            string memory profileImageURL\n        )\n    {\n        Patient memory patient = patients[patientAddress];\n        return (\n            patient.name,\n            patient.blood,\n            patient.age,\n            patient.height,\n            patient.weight,\n            patient.gender,\n            patient.email,\n            patient.phone,\n            patient.profileImageURL\n        );\n    }\n\n    function setPatientRecordCids(string memory cid) public {\n        patients[msg.sender].recordCids.push(cid);\n    }\n\n    function getPatientRecordCids() public view returns (string[] memory cid_) {\n        cid_ = patients[msg.sender].recordCids;\n    }\n}\n",
  "sourcePath": "/Users/ishajasani/Desktop/FLUJECTS/GFG_TECHIE TWINS/Techie-Twins/techie_twins/contracts/PatientRegistration.sol",
  "compiler": {
    "name": "solc",
    "version": "0.8.19+commit.7dd6d404.Emscripten.clang"
  },
  "schemaVersion": "3.4.13",
  "updatedAt": "2023-05-24T12:19:29.260Z",
  "networkType": "ethereum",
  "devdoc": {
    "kind": "dev",
    "methods": {},
    "version": 1
  },
  "userdoc": {
    "kind": "user",
    "methods": {},
    "version": 1
  }
}