{
  "contractName": "PatientRegistration",
  "abi": [
    {
      "anonymous": false,
      "inputs": [
        {
          "indexed": true,
          "internalType": "address",
          "name": "patientAddress",
          "type": "address"
        },
        {
          "indexed": false,
          "internalType": "string",
          "name": "name",
          "type": "string"
        }
      ],
      "name": "PatientRegistered",
      "type": "event"
    },
    {
      "inputs": [
        {
          "internalType": "address",
          "name": "",
          "type": "address"
        }
      ],
      "name": "patients",
      "outputs": [
        {
          "internalType": "string",
          "name": "name",
          "type": "string"
        },
        {
          "internalType": "uint256",
          "name": "age",
          "type": "uint256"
        },
        {
          "internalType": "string",
          "name": "gender",
          "type": "string"
        },
        {
          "internalType": "string",
          "name": "email",
          "type": "string"
        },
        {
          "internalType": "string",
          "name": "phone",
          "type": "string"
        },
        {
          "internalType": "uint256",
          "name": "height",
          "type": "uint256"
        },
        {
          "internalType": "uint256",
          "name": "weight",
          "type": "uint256"
        },
        {
          "internalType": "string",
          "name": "profileImageURL",
          "type": "string"
        }
      ],
      "stateMutability": "view",
      "type": "function",
      "constant": true
    },
    {
      "inputs": [
        {
          "internalType": "string",
          "name": "name",
          "type": "string"
        },
        {
          "internalType": "uint256",
          "name": "age",
          "type": "uint256"
        },
        {
          "internalType": "uint256",
          "name": "height",
          "type": "uint256"
        },
        {
          "internalType": "uint256",
          "name": "weight",
          "type": "uint256"
        },
        {
          "internalType": "string",
          "name": "gender",
          "type": "string"
        },
        {
          "internalType": "string",
          "name": "email",
          "type": "string"
        },
        {
          "internalType": "string",
          "name": "phone",
          "type": "string"
        },
        {
          "internalType": "string",
          "name": "profileImageURL",
          "type": "string"
        }
      ],
      "name": "registerPatient",
      "outputs": [],
      "stateMutability": "nonpayable",
      "type": "function"
    },
    {
      "inputs": [
        {
          "internalType": "address",
          "name": "patientAddress",
          "type": "address"
        }
      ],
      "name": "getPatient",
      "outputs": [
        {
          "internalType": "string",
          "name": "name",
          "type": "string"
        },
        {
          "internalType": "uint256",
          "name": "age",
          "type": "uint256"
        },
        {
          "internalType": "uint256",
          "name": "height",
          "type": "uint256"
        },
        {
          "internalType": "uint256",
          "name": "weight",
          "type": "uint256"
        },
        {
          "internalType": "string",
          "name": "gender",
          "type": "string"
        },
        {
          "internalType": "string",
          "name": "email",
          "type": "string"
        },
        {
          "internalType": "string",
          "name": "phone",
          "type": "string"
        },
        {
          "internalType": "string",
          "name": "profileImageURL",
          "type": "string"
        }
      ],
      "stateMutability": "view",
      "type": "function",
      "constant": true
    },
    {
      "inputs": [
        {
          "internalType": "string",
          "name": "cid",
          "type": "string"
        }
      ],
      "name": "setPatientRecordCids",
      "outputs": [],
      "stateMutability": "nonpayable",
      "type": "function"
    },
    {
      "inputs": [],
      "name": "getPatientRecordCids",
      "outputs": [
        {
          "internalType": "string[]",
          "name": "cid_",
          "type": "string[]"
        }
      ],
      "stateMutability": "view",
      "type": "function",
      "constant": true
    }
  ],
  "bytecode": "0x608060405234801561001057600080fd5b506114f9806100206000396000f3fe608060405234801561001057600080fd5b50600436106100575760003560e01c80630869cfbc1461005c5780630d15a11814610093578063564ecda7146100af57806399e5ca9a146100cb578063b5368e20146100e9575b600080fd5b61007660048036038101906100719190610b91565b610120565b60405161008a989796959493929190610c67565b60405180910390f35b6100ad60048036038101906100a89190610e3d565b610410565b005b6100c960048036038101906100c49190610eb2565b610487565b005b6100d3610597565b6040516100e09190611100565b60405180910390f35b61010360048036038101906100fe9190610b91565b6106af565b604051610117989796959493929190611122565b60405180910390f35b6000602052806000526040600020600091509050806000018054610143906111f2565b80601f016020809104026020016040519081016040528092919081815260200182805461016f906111f2565b80156101bc5780601f10610191576101008083540402835291602001916101bc565b820191906000526020600020905b81548152906001019060200180831161019f57829003601f168201915b5050505050908060010154908060020180546101d7906111f2565b80601f0160208091040260200160405190810160405280929190818152602001828054610203906111f2565b80156102505780601f1061022557610100808354040283529160200191610250565b820191906000526020600020905b81548152906001019060200180831161023357829003601f168201915b505050505090806003018054610265906111f2565b80601f0160208091040260200160405190810160405280929190818152602001828054610291906111f2565b80156102de5780601f106102b3576101008083540402835291602001916102de565b820191906000526020600020905b8154815290600101906020018083116102c157829003601f168201915b5050505050908060040180546102f3906111f2565b80601f016020809104026020016040519081016040528092919081815260200182805461031f906111f2565b801561036c5780601f106103415761010080835404028352916020019161036c565b820191906000526020600020905b81548152906001019060200180831161034f57829003601f168201915b50505050509080600501549080600601549080600701805461038d906111f2565b80601f01602080910402602001604051908101604052809291908181526020018280546103b9906111f2565b80156104065780601f106103db57610100808354040283529160200191610406565b820191906000526020600020905b8154815290600101906020018083116103e957829003601f168201915b5050505050905088565b6000803373ffffffffffffffffffffffffffffffffffffffff1673ffffffffffffffffffffffffffffffffffffffff1681526020019081526020016000206008018190806001815401808255809150506001900390600052602060002001600090919091909150908161048391906113cf565b5050565b60008060003373ffffffffffffffffffffffffffffffffffffffff1673ffffffffffffffffffffffffffffffffffffffff1681526020019081526020016000209050888160000190816104da91906113cf565b50878160010181905550848160020190816104f591906113cf565b508381600301908161050791906113cf565b508681600501819055508581600601819055508281600401908161052b91906113cf565b508181600701908161053d91906113cf565b503373ffffffffffffffffffffffffffffffffffffffff167fc85b128388b9c331a2a5485dce4cd0f3db9f7c279d327ce95d6d39d6c94644c78a60405161058491906114a1565b60405180910390a2505050505050505050565b60606000803373ffffffffffffffffffffffffffffffffffffffff1673ffffffffffffffffffffffffffffffffffffffff168152602001908152602001600020600801805480602002602001604051908101604052809291908181526020016000905b828210156106a6578382906000526020600020018054610619906111f2565b80601f0160208091040260200160405190810160405280929190818152602001828054610645906111f2565b80156106925780601f1061066757610100808354040283529160200191610692565b820191906000526020600020905b81548152906001019060200180831161067557829003601f168201915b5050505050815260200190600101906105fa565b50505050905090565b6060600080600060608060608060008060008b73ffffffffffffffffffffffffffffffffffffffff1673ffffffffffffffffffffffffffffffffffffffff16815260200190815260200160002060405180610120016040529081600082018054610718906111f2565b80601f0160208091040260200160405190810160405280929190818152602001828054610744906111f2565b80156107915780601f1061076657610100808354040283529160200191610791565b820191906000526020600020905b81548152906001019060200180831161077457829003601f168201915b50505050508152602001600182015481526020016002820180546107b4906111f2565b80601f01602080910402602001604051908101604052809291908181526020018280546107e0906111f2565b801561082d5780601f106108025761010080835404028352916020019161082d565b820191906000526020600020905b81548152906001019060200180831161081057829003601f168201915b50505050508152602001600382018054610846906111f2565b80601f0160208091040260200160405190810160405280929190818152602001828054610872906111f2565b80156108bf5780601f10610894576101008083540402835291602001916108bf565b820191906000526020600020905b8154815290600101906020018083116108a257829003601f168201915b505050505081526020016004820180546108d8906111f2565b80601f0160208091040260200160405190810160405280929190818152602001828054610904906111f2565b80156109515780601f1061092657610100808354040283529160200191610951565b820191906000526020600020905b81548152906001019060200180831161093457829003601f168201915b50505050508152602001600582015481526020016006820154815260200160078201805461097e906111f2565b80601f01602080910402602001604051908101604052809291908181526020018280546109aa906111f2565b80156109f75780601f106109cc576101008083540402835291602001916109f7565b820191906000526020600020905b8154815290600101906020018083116109da57829003601f168201915b5050505050815260200160088201805480602002602001604051908101604052809291908181526020016000905b82821015610ad1578382906000526020600020018054610a44906111f2565b80601f0160208091040260200160405190810160405280929190818152602001828054610a70906111f2565b8015610abd5780601f10610a9257610100808354040283529160200191610abd565b820191906000526020600020905b815481529060010190602001808311610aa057829003601f168201915b505050505081526020019060010190610a25565b50505050815250509050806000015181602001518260a001518360c001518460400151856060015186608001518760e001519850985098509850985098509850985050919395975091939597565b6000604051905090565b600080fd5b600080fd5b600073ffffffffffffffffffffffffffffffffffffffff82169050919050565b6000610b5e82610b33565b9050919050565b610b6e81610b53565b8114610b7957600080fd5b50565b600081359050610b8b81610b65565b92915050565b600060208284031215610ba757610ba6610b29565b5b6000610bb584828501610b7c565b91505092915050565b600081519050919050565b600082825260208201905092915050565b60005b83811015610bf8578082015181840152602081019050610bdd565b60008484015250505050565b6000601f19601f8301169050919050565b6000610c2082610bbe565b610c2a8185610bc9565b9350610c3a818560208601610bda565b610c4381610c04565b840191505092915050565b6000819050919050565b610c6181610c4e565b82525050565b6000610100820190508181036000830152610c82818b610c15565b9050610c91602083018a610c58565b8181036040830152610ca38189610c15565b90508181036060830152610cb78188610c15565b90508181036080830152610ccb8187610c15565b9050610cda60a0830186610c58565b610ce760c0830185610c58565b81810360e0830152610cf98184610c15565b90509998505050505050505050565b600080fd5b600080fd5b7f4e487b7100000000000000000000000000000000000000000000000000000000600052604160045260246000fd5b610d4a82610c04565b810181811067ffffffffffffffff82111715610d6957610d68610d12565b5b80604052505050565b6000610d7c610b1f565b9050610d888282610d41565b919050565b600067ffffffffffffffff821115610da857610da7610d12565b5b610db182610c04565b9050602081019050919050565b82818337600083830152505050565b6000610de0610ddb84610d8d565b610d72565b905082815260208101848484011115610dfc57610dfb610d0d565b5b610e07848285610dbe565b509392505050565b600082601f830112610e2457610e23610d08565b5b8135610e34848260208601610dcd565b91505092915050565b600060208284031215610e5357610e52610b29565b5b600082013567ffffffffffffffff811115610e7157610e70610b2e565b5b610e7d84828501610e0f565b91505092915050565b610e8f81610c4e565b8114610e9a57600080fd5b50565b600081359050610eac81610e86565b92915050565b600080600080600080600080610100898b031215610ed357610ed2610b29565b5b600089013567ffffffffffffffff811115610ef157610ef0610b2e565b5b610efd8b828c01610e0f565b9850506020610f0e8b828c01610e9d565b9750506040610f1f8b828c01610e9d565b9650506060610f308b828c01610e9d565b955050608089013567ffffffffffffffff811115610f5157610f50610b2e565b5b610f5d8b828c01610e0f565b94505060a089013567ffffffffffffffff811115610f7e57610f7d610b2e565b5b610f8a8b828c01610e0f565b93505060c089013567ffffffffffffffff811115610fab57610faa610b2e565b5b610fb78b828c01610e0f565b92505060e089013567ffffffffffffffff811115610fd857610fd7610b2e565b5b610fe48b828c01610e0f565b9150509295985092959890939650565b600081519050919050565b600082825260208201905092915050565b6000819050602082019050919050565b600082825260208201905092915050565b600061103c82610bbe565b6110468185611020565b9350611056818560208601610bda565b61105f81610c04565b840191505092915050565b60006110768383611031565b905092915050565b6000602082019050919050565b600061109682610ff4565b6110a08185610fff565b9350836020820285016110b285611010565b8060005b858110156110ee57848403895281516110cf858261106a565b94506110da8361107e565b925060208a019950506001810190506110b6565b50829750879550505050505092915050565b6000602082019050818103600083015261111a818461108b565b905092915050565b600061010082019050818103600083015261113d818b610c15565b905061114c602083018a610c58565b6111596040830189610c58565b6111666060830188610c58565b81810360808301526111788187610c15565b905081810360a083015261118c8186610c15565b905081810360c08301526111a08185610c15565b905081810360e08301526111b48184610c15565b90509998505050505050505050565b7f4e487b7100000000000000000000000000000000000000000000000000000000600052602260045260246000fd5b6000600282049050600182168061120a57607f821691505b60208210810361121d5761121c6111c3565b5b50919050565b60008190508160005260206000209050919050565b60006020601f8301049050919050565b600082821b905092915050565b6000600883026112857fffffffffffffffffffffffffffffffffffffffffffffffffffffffffffffffff82611248565b61128f8683611248565b95508019841693508086168417925050509392505050565b6000819050919050565b60006112cc6112c76112c284610c4e565b6112a7565b610c4e565b9050919050565b6000819050919050565b6112e6836112b1565b6112fa6112f2826112d3565b848454611255565b825550505050565b600090565b61130f611302565b61131a8184846112dd565b505050565b5b8181101561133e57611333600082611307565b600181019050611320565b5050565b601f8211156113835761135481611223565b61135d84611238565b8101602085101561136c578190505b61138061137885611238565b83018261131f565b50505b505050565b600082821c905092915050565b60006113a660001984600802611388565b1980831691505092915050565b60006113bf8383611395565b9150826002028217905092915050565b6113d882610bbe565b67ffffffffffffffff8111156113f1576113f0610d12565b5b6113fb82546111f2565b611406828285611342565b600060209050601f8311600181146114395760008415611427578287015190505b61143185826113b3565b865550611499565b601f19841661144786611223565b60005b8281101561146f5784890151825560018201915060208501945060208101905061144a565b8683101561148c5784890151611488601f891682611395565b8355505b6001600288020188555050505b505050505050565b600060208201905081810360008301526114bb8184610c15565b90509291505056fea2646970667358221220003c0d73c579ae5dc62fd757a4f93a28f66c607fb38d6e114c3db233b7fed17964736f6c63430008130033",
  "immutableReferences": {},
  "source": "// SPDX-License-Identifier: MIT\npragma solidity >=0.7.0 <0.9.0;\n\ncontract PatientRegistration {\n    struct Patient {\n        string name;\n        uint256 age;\n        string gender;\n        string email;\n        string phone;\n        uint256 height;\n        uint256 weight;\n        string profileImageURL;\n        string[] recordCids;\n    }\n\n    mapping(address => Patient) public patients;\n\n    event PatientRegistered(address indexed patientAddress, string name);\n\n    function registerPatient(\n        string memory name,\n        uint256 age,\n        uint256 height,\n        uint256 weight,\n        string memory gender,\n        string memory email,\n        string memory phone,\n        string memory profileImageURL\n    ) public {\n        Patient storage patient = patients[msg.sender];\n        patient.name = name;\n        patient.age = age;\n        patient.gender = gender;\n        patient.email = email;\n        patient.height = height;\n        patient.weight = weight;\n        patient.phone = phone;\n        patient.profileImageURL = profileImageURL;\n        emit PatientRegistered(msg.sender, name);\n    }\n\n    function getPatient(address patientAddress)\n        public\n        view\n        returns (\n            string memory name,\n            uint256 age,\n            uint256 height,\n            uint256 weight,\n            string memory gender,\n            string memory email,\n            string memory phone,\n            string memory profileImageURL\n        )\n    {\n        Patient memory patient = patients[patientAddress];\n        return (\n            patient.name,\n            patient.age,\n            patient.height,\n            patient.weight,\n            patient.gender,\n            patient.email,\n            patient.phone,\n            patient.profileImageURL\n        );\n    }\n\n    function setPatientRecordCids(string memory cid) public\n    {\n        patients[msg.sender].recordCids.push(cid);\n    }\n\n    function getPatientRecordCids() public view returns (string[] memory cid_)\n    {\n        cid_ = patients[msg.sender].recordCids;\n    }\n}",
  "sourcePath": "/Users/ishajasani/Desktop/Isha/GFG_TECHIE TWINS/Techie-Twins/techie_twins/contracts/PatientRegistration.sol",
  "compiler": {
    "name": "solc",
    "version": "0.8.19+commit.7dd6d404.Emscripten.clang"
  },
  "schemaVersion": "3.4.13",
  "updatedAt": "2023-04-01T17:22:39.702Z",
  "networkType": "ethereum",
  "devdoc": {
    "kind": "dev",
    "methods": {},
    "version": 1
  },
  "userdoc": {
    "kind": "user",
    "methods": {},
    "version": 1
  }
}