{
  "contractName": "PatientRegistration",
  "abi": [
    {
      "anonymous": false,
      "inputs": [
        {
          "indexed": true,
          "internalType": "address",
          "name": "patientAddress",
          "type": "address"
        },
        {
          "indexed": false,
          "internalType": "string",
          "name": "name",
          "type": "string"
        }
      ],
      "name": "PatientRegistered",
      "type": "event"
    },
    {
      "inputs": [
        {
          "internalType": "address",
          "name": "",
          "type": "address"
        }
      ],
      "name": "patients",
      "outputs": [
        {
          "internalType": "string",
          "name": "name",
          "type": "string"
        },
        {
          "internalType": "string",
          "name": "age",
          "type": "string"
        },
        {
          "internalType": "string",
          "name": "gender",
          "type": "string"
        },
        {
          "internalType": "string",
          "name": "email",
          "type": "string"
        },
        {
          "internalType": "string",
          "name": "phone",
          "type": "string"
        },
        {
          "internalType": "string",
          "name": "height",
          "type": "string"
        },
        {
          "internalType": "string",
          "name": "weight",
          "type": "string"
        },
        {
          "internalType": "string",
          "name": "profileImageURL",
          "type": "string"
        }
      ],
      "stateMutability": "view",
      "type": "function",
      "constant": true
    },
    {
      "inputs": [
        {
          "internalType": "string",
          "name": "name",
          "type": "string"
        },
        {
          "internalType": "string",
          "name": "age",
          "type": "string"
        },
        {
          "internalType": "string",
          "name": "height",
          "type": "string"
        },
        {
          "internalType": "string",
          "name": "weight",
          "type": "string"
        },
        {
          "internalType": "string",
          "name": "gender",
          "type": "string"
        },
        {
          "internalType": "string",
          "name": "email",
          "type": "string"
        },
        {
          "internalType": "string",
          "name": "phone",
          "type": "string"
        },
        {
          "internalType": "string",
          "name": "profileImageURL",
          "type": "string"
        }
      ],
      "name": "registerPatient",
      "outputs": [],
      "stateMutability": "nonpayable",
      "type": "function"
    },
    {
      "inputs": [
        {
          "internalType": "address",
          "name": "patientAddress",
          "type": "address"
        }
      ],
      "name": "getPatient",
      "outputs": [
        {
          "internalType": "string",
          "name": "name",
          "type": "string"
        },
        {
          "internalType": "string",
          "name": "age",
          "type": "string"
        },
        {
          "internalType": "string",
          "name": "height",
          "type": "string"
        },
        {
          "internalType": "string",
          "name": "weight",
          "type": "string"
        },
        {
          "internalType": "string",
          "name": "gender",
          "type": "string"
        },
        {
          "internalType": "string",
          "name": "email",
          "type": "string"
        },
        {
          "internalType": "string",
          "name": "phone",
          "type": "string"
        },
        {
          "internalType": "string",
          "name": "profileImageURL",
          "type": "string"
        }
      ],
      "stateMutability": "view",
      "type": "function",
      "constant": true
    },
    {
      "inputs": [
        {
          "internalType": "string",
          "name": "cid",
          "type": "string"
        }
      ],
      "name": "setPatientRecordCids",
      "outputs": [],
      "stateMutability": "nonpayable",
      "type": "function"
    },
    {
      "inputs": [],
      "name": "getPatientRecordCids",
      "outputs": [
        {
          "internalType": "string[]",
          "name": "cid_",
          "type": "string[]"
        }
      ],
      "stateMutability": "view",
      "type": "function",
      "constant": true
    }
  ],
  "bytecode": "0x608060405234801561001057600080fd5b50611975806100206000396000f3fe608060405234801561001057600080fd5b50600436106100575760003560e01c80630869cfbc1461005c5780630d15a1181461009357806329cf54a3146100af57806399e5ca9a146100cb578063b5368e20146100e9575b600080fd5b61007660048036038101906100719190611080565b610120565b60405161008a98979695949392919061113d565b60405180910390f35b6100ad60048036038101906100a89190611328565b6105a8565b005b6100c960048036038101906100c49190611371565b61061f565b005b6100d36108ef565b6040516100e09190611613565b60405180910390f35b61010360048036038101906100fe9190611080565b610a07565b60405161011798979695949392919061113d565b60405180910390f35b600060205280600052604060002060009150905080600001805461014390611664565b80601f016020809104026020016040519081016040528092919081815260200182805461016f90611664565b80156101bc5780601f10610191576101008083540402835291602001916101bc565b820191906000526020600020905b81548152906001019060200180831161019f57829003601f168201915b5050505050908060010180546101d190611664565b80601f01602080910402602001604051908101604052809291908181526020018280546101fd90611664565b801561024a5780601f1061021f5761010080835404028352916020019161024a565b820191906000526020600020905b81548152906001019060200180831161022d57829003601f168201915b50505050509080600201805461025f90611664565b80601f016020809104026020016040519081016040528092919081815260200182805461028b90611664565b80156102d85780601f106102ad576101008083540402835291602001916102d8565b820191906000526020600020905b8154815290600101906020018083116102bb57829003601f168201915b5050505050908060030180546102ed90611664565b80601f016020809104026020016040519081016040528092919081815260200182805461031990611664565b80156103665780601f1061033b57610100808354040283529160200191610366565b820191906000526020600020905b81548152906001019060200180831161034957829003601f168201915b50505050509080600401805461037b90611664565b80601f01602080910402602001604051908101604052809291908181526020018280546103a790611664565b80156103f45780601f106103c9576101008083540402835291602001916103f4565b820191906000526020600020905b8154815290600101906020018083116103d757829003601f168201915b50505050509080600501805461040990611664565b80601f016020809104026020016040519081016040528092919081815260200182805461043590611664565b80156104825780601f1061045757610100808354040283529160200191610482565b820191906000526020600020905b81548152906001019060200180831161046557829003601f168201915b50505050509080600601805461049790611664565b80601f01602080910402602001604051908101604052809291908181526020018280546104c390611664565b80156105105780601f106104e557610100808354040283529160200191610510565b820191906000526020600020905b8154815290600101906020018083116104f357829003601f168201915b50505050509080600701805461052590611664565b80601f016020809104026020016040519081016040528092919081815260200182805461055190611664565b801561059e5780601f106105735761010080835404028352916020019161059e565b820191906000526020600020905b81548152906001019060200180831161058157829003601f168201915b5050505050905088565b6000803373ffffffffffffffffffffffffffffffffffffffff1673ffffffffffffffffffffffffffffffffffffffff1681526020019081526020016000206008018190806001815401808255809150506001900390600052602060002001600090919091909150908161061b919061184b565b5050565b876000803373ffffffffffffffffffffffffffffffffffffffff1673ffffffffffffffffffffffffffffffffffffffff168152602001908152602001600020600001908161066d919061184b565b50866000803373ffffffffffffffffffffffffffffffffffffffff1673ffffffffffffffffffffffffffffffffffffffff16815260200190815260200160002060010190816106bc919061184b565b50836000803373ffffffffffffffffffffffffffffffffffffffff1673ffffffffffffffffffffffffffffffffffffffff168152602001908152602001600020600201908161070b919061184b565b50826000803373ffffffffffffffffffffffffffffffffffffffff1673ffffffffffffffffffffffffffffffffffffffff168152602001908152602001600020600301908161075a919061184b565b50856000803373ffffffffffffffffffffffffffffffffffffffff1673ffffffffffffffffffffffffffffffffffffffff16815260200190815260200160002060050190816107a9919061184b565b50846000803373ffffffffffffffffffffffffffffffffffffffff1673ffffffffffffffffffffffffffffffffffffffff16815260200190815260200160002060060190816107f8919061184b565b50816000803373ffffffffffffffffffffffffffffffffffffffff1673ffffffffffffffffffffffffffffffffffffffff1681526020019081526020016000206004019081610847919061184b565b50806000803373ffffffffffffffffffffffffffffffffffffffff1673ffffffffffffffffffffffffffffffffffffffff1681526020019081526020016000206007019081610896919061184b565b503373ffffffffffffffffffffffffffffffffffffffff167fc85b128388b9c331a2a5485dce4cd0f3db9f7c279d327ce95d6d39d6c94644c7896040516108dd919061191d565b60405180910390a25050505050505050565b60606000803373ffffffffffffffffffffffffffffffffffffffff1673ffffffffffffffffffffffffffffffffffffffff168152602001908152602001600020600801805480602002602001604051908101604052809291908181526020016000905b828210156109fe57838290600052602060002001805461097190611664565b80601f016020809104026020016040519081016040528092919081815260200182805461099d90611664565b80156109ea5780601f106109bf576101008083540402835291602001916109ea565b820191906000526020600020905b8154815290600101906020018083116109cd57829003601f168201915b505050505081526020019060010190610952565b50505050905090565b60608060608060608060608060008060008b73ffffffffffffffffffffffffffffffffffffffff1673ffffffffffffffffffffffffffffffffffffffff16815260200190815260200160002060405180610120016040529081600082018054610a6f90611664565b80601f0160208091040260200160405190810160405280929190818152602001828054610a9b90611664565b8015610ae85780601f10610abd57610100808354040283529160200191610ae8565b820191906000526020600020905b815481529060010190602001808311610acb57829003601f168201915b50505050508152602001600182018054610b0190611664565b80601f0160208091040260200160405190810160405280929190818152602001828054610b2d90611664565b8015610b7a5780601f10610b4f57610100808354040283529160200191610b7a565b820191906000526020600020905b815481529060010190602001808311610b5d57829003601f168201915b50505050508152602001600282018054610b9390611664565b80601f0160208091040260200160405190810160405280929190818152602001828054610bbf90611664565b8015610c0c5780601f10610be157610100808354040283529160200191610c0c565b820191906000526020600020905b815481529060010190602001808311610bef57829003601f168201915b50505050508152602001600382018054610c2590611664565b80601f0160208091040260200160405190810160405280929190818152602001828054610c5190611664565b8015610c9e5780601f10610c7357610100808354040283529160200191610c9e565b820191906000526020600020905b815481529060010190602001808311610c8157829003601f168201915b50505050508152602001600482018054610cb790611664565b80601f0160208091040260200160405190810160405280929190818152602001828054610ce390611664565b8015610d305780601f10610d0557610100808354040283529160200191610d30565b820191906000526020600020905b815481529060010190602001808311610d1357829003601f168201915b50505050508152602001600582018054610d4990611664565b80601f0160208091040260200160405190810160405280929190818152602001828054610d7590611664565b8015610dc25780601f10610d9757610100808354040283529160200191610dc2565b820191906000526020600020905b815481529060010190602001808311610da557829003601f168201915b50505050508152602001600682018054610ddb90611664565b80601f0160208091040260200160405190810160405280929190818152602001828054610e0790611664565b8015610e545780601f10610e2957610100808354040283529160200191610e54565b820191906000526020600020905b815481529060010190602001808311610e3757829003601f168201915b50505050508152602001600782018054610e6d90611664565b80601f0160208091040260200160405190810160405280929190818152602001828054610e9990611664565b8015610ee65780601f10610ebb57610100808354040283529160200191610ee6565b820191906000526020600020905b815481529060010190602001808311610ec957829003601f168201915b5050505050815260200160088201805480602002602001604051908101604052809291908181526020016000905b82821015610fc0578382906000526020600020018054610f3390611664565b80601f0160208091040260200160405190810160405280929190818152602001828054610f5f90611664565b8015610fac5780601f10610f8157610100808354040283529160200191610fac565b820191906000526020600020905b815481529060010190602001808311610f8f57829003601f168201915b505050505081526020019060010190610f14565b50505050815250509050806000015181602001518260a001518360c001518460400151856060015186608001518760e001519850985098509850985098509850985050919395975091939597565b6000604051905090565b600080fd5b600080fd5b600073ffffffffffffffffffffffffffffffffffffffff82169050919050565b600061104d82611022565b9050919050565b61105d81611042565b811461106857600080fd5b50565b60008135905061107a81611054565b92915050565b60006020828403121561109657611095611018565b5b60006110a48482850161106b565b91505092915050565b600081519050919050565b600082825260208201905092915050565b60005b838110156110e75780820151818401526020810190506110cc565b60008484015250505050565b6000601f19601f8301169050919050565b600061110f826110ad565b61111981856110b8565b93506111298185602086016110c9565b611132816110f3565b840191505092915050565b6000610100820190508181036000830152611158818b611104565b9050818103602083015261116c818a611104565b905081810360408301526111808189611104565b905081810360608301526111948188611104565b905081810360808301526111a88187611104565b905081810360a08301526111bc8186611104565b905081810360c08301526111d08185611104565b905081810360e08301526111e48184611104565b90509998505050505050505050565b600080fd5b600080fd5b7f4e487b7100000000000000000000000000000000000000000000000000000000600052604160045260246000fd5b611235826110f3565b810181811067ffffffffffffffff82111715611254576112536111fd565b5b80604052505050565b600061126761100e565b9050611273828261122c565b919050565b600067ffffffffffffffff821115611293576112926111fd565b5b61129c826110f3565b9050602081019050919050565b82818337600083830152505050565b60006112cb6112c684611278565b61125d565b9050828152602081018484840111156112e7576112e66111f8565b5b6112f28482856112a9565b509392505050565b600082601f83011261130f5761130e6111f3565b5b813561131f8482602086016112b8565b91505092915050565b60006020828403121561133e5761133d611018565b5b600082013567ffffffffffffffff81111561135c5761135b61101d565b5b611368848285016112fa565b91505092915050565b600080600080600080600080610100898b03121561139257611391611018565b5b600089013567ffffffffffffffff8111156113b0576113af61101d565b5b6113bc8b828c016112fa565b985050602089013567ffffffffffffffff8111156113dd576113dc61101d565b5b6113e98b828c016112fa565b975050604089013567ffffffffffffffff81111561140a5761140961101d565b5b6114168b828c016112fa565b965050606089013567ffffffffffffffff8111156114375761143661101d565b5b6114438b828c016112fa565b955050608089013567ffffffffffffffff8111156114645761146361101d565b5b6114708b828c016112fa565b94505060a089013567ffffffffffffffff8111156114915761149061101d565b5b61149d8b828c016112fa565b93505060c089013567ffffffffffffffff8111156114be576114bd61101d565b5b6114ca8b828c016112fa565b92505060e089013567ffffffffffffffff8111156114eb576114ea61101d565b5b6114f78b828c016112fa565b9150509295985092959890939650565b600081519050919050565b600082825260208201905092915050565b6000819050602082019050919050565b600082825260208201905092915050565b600061154f826110ad565b6115598185611533565b93506115698185602086016110c9565b611572816110f3565b840191505092915050565b60006115898383611544565b905092915050565b6000602082019050919050565b60006115a982611507565b6115b38185611512565b9350836020820285016115c585611523565b8060005b8581101561160157848403895281516115e2858261157d565b94506115ed83611591565b925060208a019950506001810190506115c9565b50829750879550505050505092915050565b6000602082019050818103600083015261162d818461159e565b905092915050565b7f4e487b7100000000000000000000000000000000000000000000000000000000600052602260045260246000fd5b6000600282049050600182168061167c57607f821691505b60208210810361168f5761168e611635565b5b50919050565b60008190508160005260206000209050919050565b60006020601f8301049050919050565b600082821b905092915050565b6000600883026116f77fffffffffffffffffffffffffffffffffffffffffffffffffffffffffffffffff826116ba565b61170186836116ba565b95508019841693508086168417925050509392505050565b6000819050919050565b6000819050919050565b600061174861174361173e84611719565b611723565b611719565b9050919050565b6000819050919050565b6117628361172d565b61177661176e8261174f565b8484546116c7565b825550505050565b600090565b61178b61177e565b611796818484611759565b505050565b5b818110156117ba576117af600082611783565b60018101905061179c565b5050565b601f8211156117ff576117d081611695565b6117d9846116aa565b810160208510156117e8578190505b6117fc6117f4856116aa565b83018261179b565b50505b505050565b600082821c905092915050565b600061182260001984600802611804565b1980831691505092915050565b600061183b8383611811565b9150826002028217905092915050565b611854826110ad565b67ffffffffffffffff81111561186d5761186c6111fd565b5b6118778254611664565b6118828282856117be565b600060209050601f8311600181146118b557600084156118a3578287015190505b6118ad858261182f565b865550611915565b601f1984166118c386611695565b60005b828110156118eb578489015182556001820191506020850194506020810190506118c6565b868310156119085784890151611904601f891682611811565b8355505b6001600288020188555050505b505050505050565b600060208201905081810360008301526119378184611104565b90509291505056fea2646970667358221220de88a7dd1e579937cbe538bc092a3ebd4530e3d4c4eec2e5a8277c32859f33d464736f6c63430008130033",
  "immutableReferences": {},
  "source": "// SPDX-License-Identifier: MIT\npragma solidity >=0.7.0 <0.9.0;\n\ncontract PatientRegistration {\n    struct Patient {\n        string name;\n        string age;\n        string gender;\n        string email;\n        string phone;\n        string height;\n        string weight;\n        string profileImageURL;\n        string[] recordCids;\n    }\n\n    mapping(address => Patient) public patients;\n\n    event PatientRegistered(address indexed patientAddress, string name);\n\n    function registerPatient(\n        string memory name,\n        string memory age,\n        string memory height,\n        string memory weight,\n        string memory gender,\n        string memory email,\n        string memory phone,\n        string memory profileImageURL\n    ) public {\n        patients[msg.sender].name = name;\n        patients[msg.sender].age = age;\n        patients[msg.sender].gender = gender;\n        patients[msg.sender].email = email;\n        patients[msg.sender].height = height;\n        patients[msg.sender].weight = weight;\n        patients[msg.sender].phone = phone;\n        patients[msg.sender].profileImageURL = profileImageURL;\n        emit PatientRegistered(msg.sender, name);\n    }\n\n    function getPatient(\n        address patientAddress\n    )\n        public\n        view\n        returns (\n            string memory name,\n            string memory age,\n            string memory height,\n            string memory weight,\n            string memory gender,\n            string memory email,\n            string memory phone,\n            string memory profileImageURL\n        )\n    {\n        Patient memory patient = patients[patientAddress];\n        return (\n            patient.name,\n            patient.age,\n            patient.height,\n            patient.weight,\n            patient.gender,\n            patient.email,\n            patient.phone,\n            patient.profileImageURL\n        );\n    }\n\n    function setPatientRecordCids(string memory cid) public {\n        patients[msg.sender].recordCids.push(cid);\n    }\n\n    function getPatientRecordCids() public view returns (string[] memory cid_) {\n        cid_ = patients[msg.sender].recordCids;\n    }\n}\n",
  "sourcePath": "/media/mohit/Development/Development/GFG Hackathon/Techie-Twins/techie_twins/contracts/PatientRegistration.sol",
  "compiler": {
    "name": "solc",
    "version": "0.8.19+commit.7dd6d404.Emscripten.clang"
  },
  "schemaVersion": "3.4.13",
  "updatedAt": "2023-04-03T13:36:42.020Z",
  "networkType": "ethereum",
  "devdoc": {
    "kind": "dev",
    "methods": {},
    "version": 1
  },
  "userdoc": {
    "kind": "user",
    "methods": {},
    "version": 1
  }
}