{
  "contractName": "PatientInfo",
  "abi": [
    {
      "inputs": [
        {
          "internalType": "address",
          "name": "",
          "type": "address"
        }
      ],
      "name": "patients",
      "outputs": [
        {
          "internalType": "string",
          "name": "name",
          "type": "string"
        },
        {
          "internalType": "string",
          "name": "blood",
          "type": "string"
        },
        {
          "internalType": "string",
          "name": "age",
          "type": "string"
        },
        {
          "internalType": "string",
          "name": "gender",
          "type": "string"
        },
        {
          "internalType": "string",
          "name": "email",
          "type": "string"
        },
        {
          "internalType": "string",
          "name": "phone",
          "type": "string"
        },
        {
          "internalType": "string",
          "name": "height",
          "type": "string"
        },
        {
          "internalType": "string",
          "name": "weight",
          "type": "string"
        },
        {
          "internalType": "string",
          "name": "profileImageURL",
          "type": "string"
        }
      ],
      "stateMutability": "view",
      "type": "function",
      "constant": true
    },
    {
      "inputs": [
        {
          "internalType": "string",
          "name": "name",
          "type": "string"
        },
        {
          "internalType": "string",
          "name": "blood",
          "type": "string"
        },
        {
          "internalType": "string",
          "name": "age",
          "type": "string"
        },
        {
          "internalType": "string",
          "name": "height",
          "type": "string"
        },
        {
          "internalType": "string",
          "name": "weight",
          "type": "string"
        },
        {
          "internalType": "string",
          "name": "gender",
          "type": "string"
        },
        {
          "internalType": "string",
          "name": "email",
          "type": "string"
        },
        {
          "internalType": "string",
          "name": "phone",
          "type": "string"
        },
        {
          "internalType": "string",
          "name": "profileImageURL",
          "type": "string"
        }
      ],
      "name": "registerPatient",
      "outputs": [],
      "stateMutability": "nonpayable",
      "type": "function"
    },
    {
      "inputs": [
        {
          "internalType": "address",
          "name": "patientAddress",
          "type": "address"
        }
      ],
      "name": "getPatient",
      "outputs": [
        {
          "internalType": "string",
          "name": "name",
          "type": "string"
        },
        {
          "internalType": "string",
          "name": "blood",
          "type": "string"
        },
        {
          "internalType": "string",
          "name": "age",
          "type": "string"
        },
        {
          "internalType": "string",
          "name": "height",
          "type": "string"
        },
        {
          "internalType": "string",
          "name": "weight",
          "type": "string"
        },
        {
          "internalType": "string",
          "name": "gender",
          "type": "string"
        },
        {
          "internalType": "string",
          "name": "email",
          "type": "string"
        },
        {
          "internalType": "string",
          "name": "phone",
          "type": "string"
        },
        {
          "internalType": "string",
          "name": "profileImageURL",
          "type": "string"
        }
      ],
      "stateMutability": "view",
      "type": "function",
      "constant": true
    },
    {
      "inputs": [
        {
          "internalType": "string",
          "name": "cid",
          "type": "string"
        }
      ],
      "name": "setPatientRecordCids",
      "outputs": [],
      "stateMutability": "nonpayable",
      "type": "function"
    },
    {
      "inputs": [],
      "name": "getPatientRecordCids",
      "outputs": [
        {
          "internalType": "string[]",
          "name": "cid_",
          "type": "string[]"
        }
      ],
      "stateMutability": "view",
      "type": "function",
      "constant": true
    },
    {
      "inputs": [
        {
          "internalType": "uint256",
          "name": "timestamp",
          "type": "uint256"
        },
        {
          "internalType": "address",
          "name": "doctorAddress",
          "type": "address"
        },
        {
          "internalType": "address",
          "name": "patientAddress",
          "type": "address"
        },
        {
          "internalType": "bool",
          "name": "isConfirmed",
          "type": "bool"
        }
      ],
      "name": "addAppointment",
      "outputs": [],
      "stateMutability": "nonpayable",
      "type": "function"
    },
    {
      "inputs": [
        {
          "internalType": "address",
          "name": "patientAddress",
          "type": "address"
        }
      ],
      "name": "getMyAppointments",
      "outputs": [
        {
          "components": [
            {
              "internalType": "address",
              "name": "doctorAddress",
              "type": "address"
            },
            {
              "internalType": "uint256",
              "name": "datetime",
              "type": "uint256"
            },
            {
              "internalType": "bool",
              "name": "isConfirmed",
              "type": "bool"
            }
          ],
          "internalType": "struct PatientInfo.Appointment[]",
          "name": "",
          "type": "tuple[]"
        }
      ],
      "stateMutability": "view",
      "type": "function",
      "constant": true
    }
  ],
  "bytecode": "0x6080604052600060015534801561001557600080fd5b50612051806100256000396000f3fe608060405234801561001057600080fd5b506004361061007d5760003560e01c806399e5ca9a1161005b57806399e5ca9a14610106578063b5368e2014610124578063c5e8036d1461015c578063f9c2caa5146101785761007d565b80630869cfbc146100825780630d15a118146100ba57806392e3020c146100d6575b600080fd5b61009c6004803603810190610097919061152d565b610194565b6040516100b1999897969594939291906115ea565b60405180910390f35b6100d460048036038101906100cf91906117eb565b6106aa565b005b6100f060048036038101906100eb919061152d565b610721565b6040516100fd9190611968565b60405180910390f35b61010e61083c565b60405161011b9190611a96565b60405180910390f35b61013e6004803603810190610139919061152d565b610954565b604051610153999897969594939291906115ea565b60405180910390f35b61017660048036038101906101719190611b10565b6110d3565b005b610192600480360381019061018d9190611b77565b6111e9565b005b60006020528060005260406000206000915090508060000180546101b790611d6c565b80601f01602080910402602001604051908101604052809291908181526020018280546101e390611d6c565b80156102305780601f1061020557610100808354040283529160200191610230565b820191906000526020600020905b81548152906001019060200180831161021357829003601f168201915b50505050509080600101805461024590611d6c565b80601f016020809104026020016040519081016040528092919081815260200182805461027190611d6c565b80156102be5780601f10610293576101008083540402835291602001916102be565b820191906000526020600020905b8154815290600101906020018083116102a157829003601f168201915b5050505050908060020180546102d390611d6c565b80601f01602080910402602001604051908101604052809291908181526020018280546102ff90611d6c565b801561034c5780601f106103215761010080835404028352916020019161034c565b820191906000526020600020905b81548152906001019060200180831161032f57829003601f168201915b50505050509080600301805461036190611d6c565b80601f016020809104026020016040519081016040528092919081815260200182805461038d90611d6c565b80156103da5780601f106103af576101008083540402835291602001916103da565b820191906000526020600020905b8154815290600101906020018083116103bd57829003601f168201915b5050505050908060040180546103ef90611d6c565b80601f016020809104026020016040519081016040528092919081815260200182805461041b90611d6c565b80156104685780601f1061043d57610100808354040283529160200191610468565b820191906000526020600020905b81548152906001019060200180831161044b57829003601f168201915b50505050509080600501805461047d90611d6c565b80601f01602080910402602001604051908101604052809291908181526020018280546104a990611d6c565b80156104f65780601f106104cb576101008083540402835291602001916104f6565b820191906000526020600020905b8154815290600101906020018083116104d957829003601f168201915b50505050509080600601805461050b90611d6c565b80601f016020809104026020016040519081016040528092919081815260200182805461053790611d6c565b80156105845780601f1061055957610100808354040283529160200191610584565b820191906000526020600020905b81548152906001019060200180831161056757829003601f168201915b50505050509080600701805461059990611d6c565b80601f01602080910402602001604051908101604052809291908181526020018280546105c590611d6c565b80156106125780601f106105e757610100808354040283529160200191610612565b820191906000526020600020905b8154815290600101906020018083116105f557829003601f168201915b50505050509080600801805461062790611d6c565b80601f016020809104026020016040519081016040528092919081815260200182805461065390611d6c565b80156106a05780601f10610675576101008083540402835291602001916106a0565b820191906000526020600020905b81548152906001019060200180831161068357829003601f168201915b5050505050905089565b6000803373ffffffffffffffffffffffffffffffffffffffff1673ffffffffffffffffffffffffffffffffffffffff1681526020019081526020016000206009018190806001815401808255809150506001900390600052602060002001600090919091909150908161071d9190611f49565b5050565b60606000808373ffffffffffffffffffffffffffffffffffffffff1673ffffffffffffffffffffffffffffffffffffffff168152602001908152602001600020600a01805480602002602001604051908101604052809291908181526020016000905b8282101561083157838290600052602060002090600302016040518060600160405290816000820160009054906101000a900473ffffffffffffffffffffffffffffffffffffffff1673ffffffffffffffffffffffffffffffffffffffff1673ffffffffffffffffffffffffffffffffffffffff168152602001600182015481526020016002820160009054906101000a900460ff16151515158152505081526020019060010190610784565b505050509050919050565b60606000803373ffffffffffffffffffffffffffffffffffffffff1673ffffffffffffffffffffffffffffffffffffffff168152602001908152602001600020600901805480602002602001604051908101604052809291908181526020016000905b8282101561094b5783829060005260206000200180546108be90611d6c565b80601f01602080910402602001604051908101604052809291908181526020018280546108ea90611d6c565b80156109375780601f1061090c57610100808354040283529160200191610937565b820191906000526020600020905b81548152906001019060200180831161091a57829003601f168201915b50505050508152602001906001019061089f565b50505050905090565b606080606080606080606080606060008060008c73ffffffffffffffffffffffffffffffffffffffff1673ffffffffffffffffffffffffffffffffffffffff168152602001908152602001600020604051806101600160405290816000820180546109be90611d6c565b80601f01602080910402602001604051908101604052809291908181526020018280546109ea90611d6c565b8015610a375780601f10610a0c57610100808354040283529160200191610a37565b820191906000526020600020905b815481529060010190602001808311610a1a57829003601f168201915b50505050508152602001600182018054610a5090611d6c565b80601f0160208091040260200160405190810160405280929190818152602001828054610a7c90611d6c565b8015610ac95780601f10610a9e57610100808354040283529160200191610ac9565b820191906000526020600020905b815481529060010190602001808311610aac57829003601f168201915b50505050508152602001600282018054610ae290611d6c565b80601f0160208091040260200160405190810160405280929190818152602001828054610b0e90611d6c565b8015610b5b5780601f10610b3057610100808354040283529160200191610b5b565b820191906000526020600020905b815481529060010190602001808311610b3e57829003601f168201915b50505050508152602001600382018054610b7490611d6c565b80601f0160208091040260200160405190810160405280929190818152602001828054610ba090611d6c565b8015610bed5780601f10610bc257610100808354040283529160200191610bed565b820191906000526020600020905b815481529060010190602001808311610bd057829003601f168201915b50505050508152602001600482018054610c0690611d6c565b80601f0160208091040260200160405190810160405280929190818152602001828054610c3290611d6c565b8015610c7f5780601f10610c5457610100808354040283529160200191610c7f565b820191906000526020600020905b815481529060010190602001808311610c6257829003601f168201915b50505050508152602001600582018054610c9890611d6c565b80601f0160208091040260200160405190810160405280929190818152602001828054610cc490611d6c565b8015610d115780601f10610ce657610100808354040283529160200191610d11565b820191906000526020600020905b815481529060010190602001808311610cf457829003601f168201915b50505050508152602001600682018054610d2a90611d6c565b80601f0160208091040260200160405190810160405280929190818152602001828054610d5690611d6c565b8015610da35780601f10610d7857610100808354040283529160200191610da3565b820191906000526020600020905b815481529060010190602001808311610d8657829003601f168201915b50505050508152602001600782018054610dbc90611d6c565b80601f0160208091040260200160405190810160405280929190818152602001828054610de890611d6c565b8015610e355780601f10610e0a57610100808354040283529160200191610e35565b820191906000526020600020905b815481529060010190602001808311610e1857829003601f168201915b50505050508152602001600882018054610e4e90611d6c565b80601f0160208091040260200160405190810160405280929190818152602001828054610e7a90611d6c565b8015610ec75780601f10610e9c57610100808354040283529160200191610ec7565b820191906000526020600020905b815481529060010190602001808311610eaa57829003601f168201915b5050505050815260200160098201805480602002602001604051908101604052809291908181526020016000905b82821015610fa1578382906000526020600020018054610f1490611d6c565b80601f0160208091040260200160405190810160405280929190818152602001828054610f4090611d6c565b8015610f8d5780601f10610f6257610100808354040283529160200191610f8d565b820191906000526020600020905b815481529060010190602001808311610f7057829003601f168201915b505050505081526020019060010190610ef5565b505050508152602001600a8201805480602002602001604051908101604052809291908181526020016000905b8282101561107b57838290600052602060002090600302016040518060600160405290816000820160009054906101000a900473ffffffffffffffffffffffffffffffffffffffff1673ffffffffffffffffffffffffffffffffffffffff1673ffffffffffffffffffffffffffffffffffffffff168152602001600182015481526020016002820160009054906101000a900460ff16151515158152505081526020019060010190610fce565b505050508152505090508060000151816020015182604001518360c001518460e00151856060015186608001518760a00151886101000151995099509950995099509950995099509950509193959799909294969850565b6000808373ffffffffffffffffffffffffffffffffffffffff1673ffffffffffffffffffffffffffffffffffffffff168152602001908152602001600020600a0160405180606001604052808573ffffffffffffffffffffffffffffffffffffffff168152602001868152602001831515815250908060018154018082558091505060019003906000526020600020906003020160009091909190915060008201518160000160006101000a81548173ffffffffffffffffffffffffffffffffffffffff021916908373ffffffffffffffffffffffffffffffffffffffff1602179055506020820151816001015560408201518160020160006101000a81548160ff021916908315150217905550505050505050565b886000803373ffffffffffffffffffffffffffffffffffffffff1673ffffffffffffffffffffffffffffffffffffffff16815260200190815260200160002060000190816112379190611f49565b50876000803373ffffffffffffffffffffffffffffffffffffffff1673ffffffffffffffffffffffffffffffffffffffff16815260200190815260200160002060010190816112869190611f49565b50866000803373ffffffffffffffffffffffffffffffffffffffff1673ffffffffffffffffffffffffffffffffffffffff16815260200190815260200160002060020190816112d59190611f49565b50836000803373ffffffffffffffffffffffffffffffffffffffff1673ffffffffffffffffffffffffffffffffffffffff16815260200190815260200160002060030190816113249190611f49565b50826000803373ffffffffffffffffffffffffffffffffffffffff1673ffffffffffffffffffffffffffffffffffffffff16815260200190815260200160002060040190816113739190611f49565b50856000803373ffffffffffffffffffffffffffffffffffffffff1673ffffffffffffffffffffffffffffffffffffffff16815260200190815260200160002060060190816113c29190611f49565b50846000803373ffffffffffffffffffffffffffffffffffffffff1673ffffffffffffffffffffffffffffffffffffffff16815260200190815260200160002060070190816114119190611f49565b50816000803373ffffffffffffffffffffffffffffffffffffffff1673ffffffffffffffffffffffffffffffffffffffff16815260200190815260200160002060050190816114609190611f49565b50806000803373ffffffffffffffffffffffffffffffffffffffff1673ffffffffffffffffffffffffffffffffffffffff16815260200190815260200160002060080190816114af9190611f49565b50505050505050505050565b6000604051905090565b600080fd5b600080fd5b600073ffffffffffffffffffffffffffffffffffffffff82169050919050565b60006114fa826114cf565b9050919050565b61150a816114ef565b811461151557600080fd5b50565b60008135905061152781611501565b92915050565b600060208284031215611543576115426114c5565b5b600061155184828501611518565b91505092915050565b600081519050919050565b600082825260208201905092915050565b60005b83811015611594578082015181840152602081019050611579565b60008484015250505050565b6000601f19601f8301169050919050565b60006115bc8261155a565b6115c68185611565565b93506115d6818560208601611576565b6115df816115a0565b840191505092915050565b6000610120820190508181036000830152611605818c6115b1565b90508181036020830152611619818b6115b1565b9050818103604083015261162d818a6115b1565b9050818103606083015261164181896115b1565b9050818103608083015261165581886115b1565b905081810360a083015261166981876115b1565b905081810360c083015261167d81866115b1565b905081810360e083015261169181856115b1565b90508181036101008301526116a681846115b1565b90509a9950505050505050505050565b600080fd5b600080fd5b7f4e487b7100000000000000000000000000000000000000000000000000000000600052604160045260246000fd5b6116f8826115a0565b810181811067ffffffffffffffff82111715611717576117166116c0565b5b80604052505050565b600061172a6114bb565b905061173682826116ef565b919050565b600067ffffffffffffffff821115611756576117556116c0565b5b61175f826115a0565b9050602081019050919050565b82818337600083830152505050565b600061178e6117898461173b565b611720565b9050828152602081018484840111156117aa576117a96116bb565b5b6117b584828561176c565b509392505050565b600082601f8301126117d2576117d16116b6565b5b81356117e284826020860161177b565b91505092915050565b600060208284031215611801576118006114c5565b5b600082013567ffffffffffffffff81111561181f5761181e6114ca565b5b61182b848285016117bd565b91505092915050565b600081519050919050565b600082825260208201905092915050565b6000819050602082019050919050565b611869816114ef565b82525050565b6000819050919050565b6118828161186f565b82525050565b60008115159050919050565b61189d81611888565b82525050565b6060820160008201516118b96000850182611860565b5060208201516118cc6020850182611879565b5060408201516118df6040850182611894565b50505050565b60006118f183836118a3565b60608301905092915050565b6000602082019050919050565b600061191582611834565b61191f818561183f565b935061192a83611850565b8060005b8381101561195b57815161194288826118e5565b975061194d836118fd565b92505060018101905061192e565b5085935050505092915050565b60006020820190508181036000830152611982818461190a565b905092915050565b600081519050919050565b600082825260208201905092915050565b6000819050602082019050919050565b600082825260208201905092915050565b60006119d28261155a565b6119dc81856119b6565b93506119ec818560208601611576565b6119f5816115a0565b840191505092915050565b6000611a0c83836119c7565b905092915050565b6000602082019050919050565b6000611a2c8261198a565b611a368185611995565b935083602082028501611a48856119a6565b8060005b85811015611a845784840389528151611a658582611a00565b9450611a7083611a14565b925060208a01995050600181019050611a4c565b50829750879550505050505092915050565b60006020820190508181036000830152611ab08184611a21565b905092915050565b611ac18161186f565b8114611acc57600080fd5b50565b600081359050611ade81611ab8565b92915050565b611aed81611888565b8114611af857600080fd5b50565b600081359050611b0a81611ae4565b92915050565b60008060008060808587031215611b2a57611b296114c5565b5b6000611b3887828801611acf565b9450506020611b4987828801611518565b9350506040611b5a87828801611518565b9250506060611b6b87828801611afb565b91505092959194509250565b60008060008060008060008060006101208a8c031215611b9a57611b996114c5565b5b60008a013567ffffffffffffffff811115611bb857611bb76114ca565b5b611bc48c828d016117bd565b99505060208a013567ffffffffffffffff811115611be557611be46114ca565b5b611bf18c828d016117bd565b98505060408a013567ffffffffffffffff811115611c1257611c116114ca565b5b611c1e8c828d016117bd565b97505060608a013567ffffffffffffffff811115611c3f57611c3e6114ca565b5b611c4b8c828d016117bd565b96505060808a013567ffffffffffffffff811115611c6c57611c6b6114ca565b5b611c788c828d016117bd565b95505060a08a013567ffffffffffffffff811115611c9957611c986114ca565b5b611ca58c828d016117bd565b94505060c08a013567ffffffffffffffff811115611cc657611cc56114ca565b5b611cd28c828d016117bd565b93505060e08a013567ffffffffffffffff811115611cf357611cf26114ca565b5b611cff8c828d016117bd565b9250506101008a013567ffffffffffffffff811115611d2157611d206114ca565b5b611d2d8c828d016117bd565b9150509295985092959850929598565b7f4e487b7100000000000000000000000000000000000000000000000000000000600052602260045260246000fd5b60006002820490506001821680611d8457607f821691505b602082108103611d9757611d96611d3d565b5b50919050565b60008190508160005260206000209050919050565b60006020601f8301049050919050565b600082821b905092915050565b600060088302611dff7fffffffffffffffffffffffffffffffffffffffffffffffffffffffffffffffff82611dc2565b611e098683611dc2565b95508019841693508086168417925050509392505050565b6000819050919050565b6000611e46611e41611e3c8461186f565b611e21565b61186f565b9050919050565b6000819050919050565b611e6083611e2b565b611e74611e6c82611e4d565b848454611dcf565b825550505050565b600090565b611e89611e7c565b611e94818484611e57565b505050565b5b81811015611eb857611ead600082611e81565b600181019050611e9a565b5050565b601f821115611efd57611ece81611d9d565b611ed784611db2565b81016020851015611ee6578190505b611efa611ef285611db2565b830182611e99565b50505b505050565b600082821c905092915050565b6000611f2060001984600802611f02565b1980831691505092915050565b6000611f398383611f0f565b9150826002028217905092915050565b611f528261155a565b67ffffffffffffffff811115611f6b57611f6a6116c0565b5b611f758254611d6c565b611f80828285611ebc565b600060209050601f831160018114611fb35760008415611fa1578287015190505b611fab8582611f2d565b865550612013565b601f198416611fc186611d9d565b60005b82811015611fe957848901518255600182019150602085019450602081019050611fc4565b868310156120065784890151612002601f891682611f0f565b8355505b6001600288020188555050505b50505050505056fea2646970667358221220be9386664063020f9403106e915f9da9beb5194a5cb1a69d71856602cf93930864736f6c63430008130033",
  "immutableReferences": {},
  "source": "// SPDX-License-Identifier: GPL-3.0\n\npragma solidity >=0.7.0 <0.9.0;\n\ncontract PatientInfo{\n    struct Appointment {\n        address doctorAddress;\n        uint256 datetime;\n        bool isConfirmed;\n    }\n\n    struct Patient {\n        string name;\n        string blood;\n        string age;\n        string gender;\n        string email;\n        string phone;\n        string height;\n        string weight;\n        string profileImageURL;\n        string[] recordCids;\n        Appointment[] appointments;\n    }\n\n    mapping(address => Patient) public patients;\n    uint appointmentCount = 0;\n\n    function registerPatient(\n        string memory name,\n        string memory blood,\n        string memory age,\n        string memory height,\n        string memory weight,\n        string memory gender,\n        string memory email,\n        string memory phone,\n        string memory profileImageURL\n    ) public {\n        patients[msg.sender].name = name;\n        patients[msg.sender].blood = blood;\n        patients[msg.sender].age = age;\n        patients[msg.sender].gender = gender;\n        patients[msg.sender].email = email;\n        patients[msg.sender].height = height;\n        patients[msg.sender].weight = weight;\n        patients[msg.sender].phone = phone;\n        patients[msg.sender].profileImageURL = profileImageURL;\n    }\n\n    function getPatient(\n        address patientAddress\n    )\n        public\n        view\n        returns (\n            string memory name,\n            string memory blood,\n            string memory age,\n            string memory height,\n            string memory weight,\n            string memory gender,\n            string memory email,\n            string memory phone,\n            string memory profileImageURL\n        )\n    {\n        Patient memory patient = patients[patientAddress];\n        return (\n            patient.name,\n            patient.blood,\n            patient.age,\n            patient.height,\n            patient.weight,\n            patient.gender,\n            patient.email,\n            patient.phone,\n            patient.profileImageURL\n        );\n    }\n\n    function setPatientRecordCids(string memory cid) public {\n        patients[msg.sender].recordCids.push(cid);\n    }\n\n    function getPatientRecordCids() public view returns (string[] memory cid_) {\n        cid_ = patients[msg.sender].recordCids;\n    }\n\n    function addAppointment (uint256 timestamp, address doctorAddress, address patientAddress,bool isConfirmed) public {\n        patients[patientAddress].appointments.push(Appointment(doctorAddress,timestamp,isConfirmed));\n    }\n\n    function getMyAppointments(address patientAddress) public view returns (Appointment[] memory){\n        return patients[patientAddress].appointments;\n    }\n\n}",
  "sourcePath": "/Users/ishajasani/Desktop/FLUJECTS/GFG_TECHIE TWINS/Techie-Twins/techie_twins/contracts/PatientInfo.sol",
  "compiler": {
    "name": "solc",
    "version": "0.8.19+commit.7dd6d404.Emscripten.clang"
  },
  "schemaVersion": "3.4.13",
  "updatedAt": "2023-05-26T13:56:41.667Z",
  "networkType": "ethereum",
  "devdoc": {
    "kind": "dev",
    "methods": {},
    "version": 1
  },
  "userdoc": {
    "kind": "user",
    "methods": {},
    "version": 1
  }
}